:020000040800F2
:1000000078890220C1010008451100087F1000080E
:100010004111000899020008A11B0008000000001F
:10002000000000000000000000000000A51600080D
:100030009D02000800000000E911000839180008BE
:10004000DB010008DB010008DB010008DB01000820
:10005000DB010008DB010008DB010008DB01000810
:10006000DB010008DB010008DB010008DB01000800
:10007000DB010008DB010008DB010008DB010008F0
:10008000DB010008DB010008DB010008DB010008E0
:10009000DB010008DB010008DB010008DB010008D0
:1000A000DB010008DB010008DB010008DB010008C0
:1000B000DB010008DB010008DB010008DB010008B0
:1000C000DB010008DB010008DB010008DB010008A0
:1000D000DB010008DB010008DB010008DB01000890
:1000E000F10D0008DB010008DB010008DB0100085E
:1000F000DB010008DB010008DB010008DB01000870
:10010000DB010008DB010008DB010008DB0100085F
:10011000DB010008DB01000831190008DB010008E1
:10012000DB010008DB010008DB010008DB0100083F
:10013000DB010008DB010008DB010008DB0100082F
:10014000DB010008DB010008DB010008DB0100081F
:10015000DB010008DB010008DB010008DB0100080F
:10016000DB010008DB010008DB010008DB010008FF
:10017000DB010008DB010008DB010008DB010008EF
:10018000DB010008DB010008DB010008DB010008DF
:10019000DB010008DB010008DB010008DB010008CF
:1001A000DB010008DB010008DB010008DFF80CD0F0
:1001B00000F060F8004800474939000878890220BB
:1001C0000648804706480047FEE7FEE7FEE7FEE7F1
:1001D000FEE7FEE7FEE7FEE7FEE7FEE74918000858
:1001E000AD01000840EA01039B0703D009E008C9FC
:1001F000121F08C0042AFAD203E011F8013B00F8EC
:10020000013B521EF9D27047D2B201E000F8012B37
:10021000491EFBD270470022F6E710B513460A4686
:1002200004461946FFF7F0FF204610BD30B50446DE
:100230000020034600E05B1C934203D2E05CCD5CEF
:10024000401BF8D030BD30B50B46014600202022BF
:10025000012409E021FA02F59D4205D303FA02F5D3
:10026000491B04FA02F52844151EA2F10102F1DC33
:1002700030BD0000064C074D06E0E06840F0010389
:1002800094E8070098471034AC42F6D3FFF792FF8A
:100290006C7300088C73000800BFFEE77047000015
:1002A000064909680144064A116000BF044909680B
:1002B000024A12689142F9D87047000004000020F9
:1002C0000C0000201FB5042001F0A2FA684600F0DF
:1002D000FFFF64210198B0FBF1F4601EB0F1807F54
:1002E00000D30FE0601E4FF0E02148610F214FF076
:1002F000FF3000F065FF00204FF0E021886107200B
:10030000086100BF0021481E00F05AFF00F0BCF851
:1003100000F00EFB1021012000F0FCFB10F0010F9B
:1003200005D00648006840F010000449086001202C
:1003300000F0FAFD00F0D6FD1FBD000028000020EF
:1003400030B10749896941F00201054A916105E030
:100350000349896921F00201014A91617047000057
:100360000090024070B50C4613460021124D2860E3
:1003700000BF18E000EB41124FF00045156044F259
:10038000F4555560C1EBC11505EB450504EB85053A
:1003900095605D1E8D4204D900EB41152035D56076
:1003A00000E0D060491C9942E4D3044DE860044D5C
:1003B000044E356070BD00007800002000900240BF
:1003C000A83A02207C00002030B10749896941F435
:1003D0000051054A916105E00349896921F4005102
:1003E000014A9161704700000090024030B50C4610
:1003F000134600210F4D286000BF15E000EB4112AD
:100400004FF480151560C1EBC11505EB450504EBF4
:10041000850595605D1E8D4204D900EB41152035A0
:10042000D56000E0D060491C9942E7D3024D2861B5
:1004300030BD0000740000200090024002680A43B2
:100440000260704710B50121480600F0DFFE002170
:100450004FF0007000F0DAFE10BD000008B500207B
:1004600000900848806940F4801006498861084679
:10047000806900900120FFF713FF0249009888610E
:1004800008BD0000009002401CB50121C72000F00B
:10049000ADFE0121880300F0D9FE4FF4807000907A
:1004A00003208DF8050002208DF8040000208DF84F
:1004B00006008DF807006946404800F064FD002101
:1004C0004FF4800000F080FF002001F0EDF88F2055
:1004D00000906946394800F056FD0B22002137484C
:1004E00000F099FD0B220121344800F094FD0B220D
:1004F0000221324800F08FFD0B2203212F4800F02B
:100500008AFD0B2207212D4800F085FD4FF4506035
:10051000009069462A4800F036FD0B220821284841
:1005200000F079FD0B220A21254800F074FD0B2212
:100530001146234800F06FFD3E2000906946214897
:1005400000F021FD0B2201211E4800F064FD0B226A
:1005500002211C4800F05FFD0B220321194800F026
:100560005AFD0B220421174800F055FD0B220521EE
:10057000144800F050FD4FF4C04000906946124806
:1005800000F001FD0B220D210F4800F044FD0B226D
:100590000E210D4800F03FFDC020009069460B4839
:1005A00000F0F1FC0B220621084800F034FD0B227C
:1005B0000721064800F02FFD1CBD0000000002408E
:1005C000000402400008024000180240001C0240E3
:1005D00000200449096811F0010F01D0012000E05A
:1005E00000207047009002402DE9F04188B0044699
:1005F0000F464FF00008002500200790B54E0290EE
:1006000001200190B448056925F01C0503A800F0FD
:100610005FFE049EB148864205D3B148864202D2AD
:1006200045F008051AE0AE48864205D3A94886423F
:1006300002D245F00C0511E0A648864203D3A94832
:10064000864200D20AE0A748864205D3A6488642E1
:1006500002D245F0040501E045F010059E48056111
:100660004FF400420021384600F00EFB10B9002084
:1006700001906AE0FF20FFF713FE2068002850D0A9
:1006800000BF0298401C02900121384600F042FA57
:1006900010F0040F03D1954902988842F1D3934991
:1006A0000298884202D1002001904EE00020029082
:1006B0004FF480520021384600F0E6FA08B90020D5
:1006C000019000BF0298401C02900121384600F0C2
:1006D00021FA10F0200F03D1844902988842F1D307
:1006E00082490298884202D1002001902DE000202A
:1006F00002901021384600F00DFA804618F0040FE1
:1007000003D04FF40060206201E00020206218F066
:10071000020F02D00020606116E04FF4804060615B
:1007200012E0206AC0F3CF006169C1F34F0140EAD3
:1007300001020021384600F0A7FA08B90020019014
:1007400040F6FF70FFF7ACFD00BF019820B94FF4F1
:1007500000602062C00060615F4805686448054031
:10076000D4E901010843E16808432169084361694C
:100770000843A1690843E1690843216A0843616AA3
:100780000843A16A0843E16A0843216B0843616B8F
:10079000084305435048056005680120FFF780FDC8
:1007A0004D480560D4E90E010843216C0843616C93
:1007B0000843A16C0843E16C0843216D0843616D57
:1007C000084345494860084645680120FFF768FD31
:1007D000414845604049A06D8860E06DC8600846AA
:1007E00085694FF641700540B4F86010606E40EACC
:1007F0000140A16E0843E16E0843216F0843616F19
:10080000084305433448856185690120FFF748FDA9
:1008100031488561D4E91E0108432F49C861084663
:10082000C5690120FFF73CFD2B48C561314885694A
:1008300031480540D4E920010843D4F88810084322
:10084000D4F88C100843D4F890100843D4F89410CE
:100850000843D4F898100843D4F89C100843D4F8FF
:10086000A010084305432348856185690120FFF7EF
:1008700017FD20488561D4E929010843D4F8AC105C
:100880000843D4F8B0100843D4F8B41040EA81000B
:10089000D4F8B810084340F4000016490860084630
:1008A00005680120FFF7FCFC12480560006840F075
:1008B000800010490860084605680120FFF7F0FC39
:1008C0000C4805600198012802D108B0BDE8F0810C
:1008D0000020FAE70087930300800240002D3101D9
:1008E000C00E160200E1F50580D1F008FFFF0400FC
:1008F0000F8120FF00900240233FDEF810B50B79F6
:100900004C7943EA0422094B03441A64CB781B0652
:100910008C7843EA04434C7843EA04230C7843EA96
:100920000402024B03445A6410BD000000800240E0
:1009300010B501214FF0606000F058FCFFF782FD18
:1009400000F01EF900BFFFF743FE0128FBD01E4850
:1009500000F040F901201C4908600020C8614FF4F4
:10096000007088620020C86288634864C8640865B3
:1009700048654FF4806048620020C1F880004FF065
:100980000070C1F884000011C1F88C000020C1F88B
:100990009400C1F898000420C1F8A000C005C1F877
:1009A000A4004012C1F8A8008001C1F8AC004012B8
:1009B000C1F8B0004000C1F8B80001210248FFF7BB
:1009C00013FE0249086010BD10010220280000201B
:1009D00038B504460020009034B10B48006840F060
:1009E00004000949086005E00748006820F0040099
:1009F000054908600448006800900120FFF750FC9A
:100A000001490098086038BD0080024038B50446AE
:100A10000020009034B10B48006840F008000949FC
:100A2000086005E00748006820F0080005490860F4
:100A30000448006800900120FFF732FC014900984B
:100A4000086038BD0080024070B5024600230025D2
:100A500000242E480068006810F0004F01D00020EC
:100A600070BD2A48016840F2F450824208DD92FBD2
:100A7000F0F392FBF0F600FB162010B15B1C00E0D7
:100A80000123012B0CD1086840F040500860C2F3EC
:100A90000C004860086840F000400860C96826E023
:100AA000002422E0086820F0405008601CB9086863
:100AB00040F08050086040F2F4504860581EA04258
:100AC0000DD1086840F000500860581EC0EBC010FF
:100AD00000EB4000A2EB8005C5F30C0048600868FD
:100AE00040F000400860C968641C9C42DAD30748A3
:100AF00001600748406910F0040F04D00420044E40
:100B00007061002070600120AAE7000074000020DE
:100B10000090024018B502460B46002100200090CC
:100B20001548016901F01C014FF4784000EAC22029
:100B300001434FF4F86000EA8310014321F0020101
:100B400041F001010C48016100BF0098401C009079
:100B50000948016911F0010F03D0084C0098A04228
:100B6000F3D3064C0098A04201D1002018BD0248E2
:100B7000406980B2FAE7000000800240FFFF0400F5
:100B80000348006840F00100014908607047000018
:100B90000090024010B50120FFF738FF0120FFF759
:100BA00017FFFFF75BFC0120FFF70EFC0120FFF7AA
:100BB000C7FB10BD10B50020FFF706FC0020FFF7B3
:100BC000BFFB0020FFF704FFFFF748FC0020FFF702
:100BD0001DFF10BD01210160002141608160C160E5
:100BE00001614FF48041416100218161C1614FF495
:100BF00000610162002141628162C162016341635F
:100C00008163C1634021016420214164002181642A
:100C1000C164016541658165C165016680214166E8
:100C200000218166C166016741678167C1674FF036
:100C30008061C0F880104910C0F884100021C0F80D
:100C400088104FF40011C0F88C100021C0F89010EB
:100C5000C0F89410C0F89810C0F89C10C0F8A0100C
:100C60004FF00071C0F8A4104912C0F8A810890113
:100C7000C0F8AC104912C0F8B0100021C0F8B41090
:100C8000C0F8B8107047000038B503460C46002184
:100C9000002000901448016901F01C014FF47840D5
:100CA00000EAC32001434FF4F86000EA84100143D6
:100CB00041F0020141F001010B484261016100BFB6
:100CC0000098401C00900848016911F0010F03D002
:100CD000064D0098A842F3D3044D0098A84201D1D4
:100CE000002038BD0120FCE700800240FFFF040027
:100CF0007FB506460020039096F83100C0F300103F
:100D000000285DD034480068002843D000200390BC
:100D10004FF4805200210120FFF7B6FF00BF039877
:100D2000401C039001210846FFF7F4FE10F0200F4D
:100D300003D12A4903988842F1D30020039010215F
:100D40000120FFF7E7FE044614F0040F04D04FF42F
:100D500000602149086202E000201F49086214F087
:100D6000020F03D000201C49486103E04FF480408B
:100D7000194948611A480568174840691649096ABF
:100D800008430543164805600120FFF789FA144817
:100D900005680560FFF7FEFE0020029001900090BC
:100DA0000120104908706B4601AA02A90E4803F001
:100DB00069F80D4803F01EF900200C4908700AE09C
:100DC000FFF7F8FE052007490870304601F022FAC7
:100DD000054803F071F87FBD10010220FFFF0400F9
:100DE0000080024044000020CC0102202C000020A2
:100DF00010B54FF4005000F01FF840B10A480078D9
:100E000008B903F0C3FF4FF4005000F00FF84FF49F
:100E1000804000F011F830B1012000F065F84FF487
:100E2000804000F003F810BD2C000020014908604C
:100E300070470000143C014001460020034A12683C
:100E40000A4201D0012000E000207047143C01401C
:100E5000002123498279002A3AD00A4612680368A1
:100E60009A430B461A600A1D126803689A430B1DC9
:100E70001A60027911440A6803681A430A60184A22
:100E80000832126803689A43154B08331A601A1D1A
:100E9000126803689A43124B0C331A604279102A85
:100EA0000ED11A1F126803681A430D4B08331A60DB
:100EB0001A1D126803681A43094B0C331A600DE0BF
:100EC0000749427911440A6803681A430A6005E039
:100ED000027911440A6803689A430A607047000067
:100EE000003C01407047000010B504461221204626
:100EF000FFF710FE10F4005F10D010212046FFF71E
:100F000009FE10F0010F03D0054803F045F805E095
:100F1000012004490870024803F029F810BD0000C0
:100F2000CC0102202C00002070B5054600241121C0
:100F30002846FFF7EFFD044644F003042246112142
:100F40002846FFF7A1FE08B9002070BD12212846EF
:100F5000FFF7E0FD044644F0200422461221284613
:100F6000FFF792FE08B90020EFE719212846FFF7A6
:100F7000D1FD044644F02004224619212846FFF7FB
:100F800083FE0120E1E7F0B50A460021002300249A
:100F900000BF3DE0012505FA01F3156805EA0304E9
:100FA0009C4234D105684F000326BE40B54305601E
:100FB00015794E00B5400668354305601579012D59
:100FC00002D01579022D16D185684F000326BE4048
:100FD000B543856055794E00B540866835438560D8
:100FE000456801268E40B5434560456896798E4038
:100FF000B6B235434560C5684F000326BE40B543D1
:10100000C560D5794E00B540C6683543C560491CFA
:101010001029BFD3F0BDF0B5002300244D07ED0E1D
:1010200002FA05F3CE1000F1200555F826504E07C0
:10103000F70E0F26BE40B543CF1000F1200646F84C
:101040002750CE1000F1200555F8265045EA03043C
:10105000CE1000F1200545F82640F0BD02460020E4
:1010600013690B4201D0012000E00020704741834A
:1010700070470183704742694A404261704700BF30
:10108000FEE700001CB50121082000F0AFF84FF486
:101090000050009002208DF8050001208DF804001A
:1010A00000208DF806008DF8070069460148FFF71B
:1010B0006AFF1CBD000C024000B587B002F018FDAD
:1010C00002F060FE00200690059004901648174933
:1010D000002204ABCDE90021029005AA06A914481C
:1010E00002F098FE124802F0E1FE12480068112852
:1010F0000ED10F4890F8310040F010000C4981F8F3
:101100003100084602F076FF01200B49087005E027
:10111000074802F0D1FE0520074908700749044836
:1011200002F022FF07B000BD152A0008CD2A0008F2
:10113000CC0102202800002044000020F10C00080F
:1011400000BFFEE77047000070B5002100230F22AA
:10115000C47824B3174C246804F4E064C4F5E06454
:10116000C4F30721C1F10404E3B20A4144789C406E
:10117000E1B28478144021430C07210E0E4C05780F
:101180006155047804F01F050124AC4005786D1109
:101190004FF0E02606EB8505C5F8004109E004782C
:1011A00004F01F040125A540044C0678761144F88C
:1011B000265070BD0CED00E000E400E080E100E0AE
:1011C00010B5002807DA0A07140E054A00F00F03CD
:1011D0001B1FD45403E00A07130E024A135410BD18
:1011E00018ED00E000E400E07047000029B1064A75
:1011F00012680243044B1A6004E0034A12688243F7
:10120000014B1A60704700003038024029B1064A8D
:1012100012680243044B1A6004E0034A12688243D6
:10122000014B1A60704700001038024029B1064A8D
:1012300012680243044B1A6004E0034A12688243B6
:10124000014B1A60704700004038024029B1064A3D
:1012500012680243044B1A6004E0034A1268824396
:10126000014B1A607047000044380240144800687F
:1012700040F001001249086000201149083108605F
:101280000F4800680F4908400D4908600E48091DC5
:1012900008600E480A49843108600B481038091D5F
:1012A00008600748006820F4802005490860002095
:1012B00003490C31086002498C3108607047000016
:1012C00000380240FFFFF6EA103000240030002012
:1012D000F0B5002100220024022500260223324F0F
:1012E0003F6807F00C0121B1042905D0082937D146
:1012F00005E02E4F076036E02D4F076033E02A4FA0
:101300003F1F3F68C7F38056274F3F1F3F6807F0D6
:101310003F036EB1264FB7FBF3F7DFF88CC0ACF19B
:10132000040CDCF800C0CCF3881C07FB0CF40CE0C8
:101330001E4FB7FBF3F7DFF870C0ACF1040CDCF81C
:1013400000C0CCF3881C07FB0CF4174F3F1F3F680D
:10135000C7F301477F1C7D00B4FBF5F7076002E08F
:10136000124F076000BF00BF0F4F3F6807F0F0014A
:101370000909104F7A5C0768D74047600A4F3F68F9
:1013800007F4E051890A0B4F7A5C4768D7408760C1
:10139000054F3F6807F46041490B064F7A5C476888
:1013A000D740C760F0BD0000083802400024F400B8
:1013B00040787D01640000200021024A117011462E
:1013C000087070470238024002460020044B18683B
:1013D00020F0EC6042EA01031843014B18607047AB
:1013E0000838024002460020044B186820F078407C
:1013F00042EA01031843014B186070470838024065
:1014000001490866704700000000474270B5049C1F
:1014100041EA82150126C6EB530645EA0645054317
:1014200045EA0465014E356070BD00000438024095
:1014300001460020034A106820F0030008431060B2
:1014400070470000083802400EB501210846FFF73A
:10145000CDFE4FF48070019003208DF8090002202A
:101460008DF8080000208DF80A008DF80B0001A906
:101470001A48FFF788FD4FF0E0614FF48000FFF756
:10148000A3FF01210420FFF7B1FE4FF4007001908B
:1014900003208DF8090002208DF8080000208DF847
:1014A0000A008DF80B0001A90D48FFF76CFD002123
:1014B0000846FFF797FF0220052390221946009067
:1014C0004005FFF7A3FF0120FFF79AFF0220FFF777
:1014D000AFFF0120FFF770FF0EBD000000000240CB
:1014E0000008024021B1028842F04002028004E07C
:1014F00002884FF6BF731A40028070470146888900
:1015000070478181704710B50022028802F4415271
:101510000B884C8823438C882343CC8823430C8935
:1015200023434C8923438C892343CC8923431A4387
:101530000280838B4FF2FF74234083830B8A0382E4
:1015400010BD00007CB504460D462C4951F824100E
:101550002B4A52F8242041EA02000121FFF746FEFF
:101560002CB9284951F824000121FFF76FFE264BC2
:1015700013F81420254B33F81410254B53F824008E
:10158000FFF749FD234B13F81420234B33F81410B5
:10159000224B53F82400FFF73EFD00208DF8060093
:1015A00001208DF8070002208DF804001C4830F857
:1015B0001400009002208DF80500154951F8240010
:1015C0006946FFF7E0FC02208DF80400154830F86A
:1015D00014000090114951F824006946FFF7D3FC2C
:1015E000114951F82400294600F06CFA0E4951F8CF
:1015F0002400012100F038FA7CBD00006872000868
:101600006C72000864720008787200087472000836
:10161000200000207A720008767200082400002062
:1016200070720008727200081C00002000B585B0BE
:1016300001210420FFF7DAFD01218803FFF706FEF0
:1016400000208DF810008DF813004FF40050039027
:1016500003A91348FFF797FC0D21022000F02AF898
:101660004FF40050019000208DF808000C208DF8F8
:10167000090001208DF80A0001A8FFF7E9FB2820E6
:101680008DF800000F208DF801008DF80200012078
:101690008DF803006846FFF757FD05B000BD000058
:1016A00000080240704700000149086070470000D0
:1016B000DC00274230B500228B071C0F0F2303FAF2
:1016C00004F20B4B8C1053F824309343084C8D10CC
:1016D00044F8253023468C1053F824308C07240F0F
:1016E00000FA04F42343024C8D1044F8253030BD39
:1016F000083801400CB50020019000904048006877
:1017000040F480303E49086000BF3D48006800F466
:10171000003000900198401C0190009818B9019881
:10172000B0F5A04FF1D13648006810F4003F02D068
:101730000120009001E000200090009801285DD178
:101740002F484030006840F080502D4940310860FB
:101750002C48006840F440402A4908602848083076
:1017600000682749083108600846006840F40040D6
:1017700008600846006840F4A05008602248091F2D
:101780000860081F006840F08070091F086000BFF3
:101790001B48006810F0007FFAD01A48006840F437
:1017A00080301849086000BF1648406810F4803F38
:1017B000FAD01448006840F400301249086000BFB5
:1017C0001048406810F4003FFAD040F205700F490D
:1017D00008600B480830006820F003000849083111
:1017E00008600846006840F00200086000BF044836
:1017F0000830006800F00C000828F8D10CBD00008B
:101800000038024000700040195A4007003C024076
:10181000042808D14FF0E021096941F004014FF09C
:10182000E022116107E04FF0E021096921F0040195
:101830004FF0E0221161704702480068401C0149E6
:10184000086070471800002010B51548006840F483
:101850007000134908601348006840F00100114906
:10186000086000200F49083108600E4800680E49E2
:1018700008400C4908600D48091D0860081F0068F1
:1018800020F48020091F0860002006490C31086000
:10189000FFF730FF4FF0006001498039086010BD4C
:1018A00088ED00E000380240FFFFF6FE1030002413
:1018B0001FB5002401211020FFF7B8FC36208DF859
:1018C000000000208DF8010001208DF802008DF845
:1018D00003006846FFF738FC1248006840081249C8
:1018E000B0FBF1F0401E84B24FF6FF700290002072
:1018F000ADF80400ADF80C00ADF8060001A90B48E6
:1019000000F056F801222146084800F04EF8012266
:101910001146064800F040F80121044800F01FF885
:101920001FBD000050000020808D5B0000100040B3
:1019300010B50121064800F01EF840B1012104480D
:1019400000F00AF84FF400510248FFF794FB10BD75
:1019500000100040000C0240CA430282704721B1CF
:10196000028842F00102028004E002884FF6FE7312
:101970001A400280704730B5024600200023002440
:10198000158A05EA0103958905EA010413B10CB132
:10199000012000E0002030BD1AB183890B43838110
:1019A00002E083898B43838170470185828270477F
:1019B00000220288184B98420ED0184B98420BD048
:1019C000B0F1804F08D0164B984205D0154B984285
:1019D00002D0154B984204D14FF68F731A404B88B2
:1019E0001A43124B984207D0114B984204D04FF63D
:1019F000FF431A400B891A4302804B68C3620B886D
:101A00000385054B984202D0044B984201D18B7A52
:101A100003860123838270470000014000040140D7
:101A20000004004000080040000C0040001000408E
:101A3000001400401CB501218020FFF7D7FB0820CF
:101A4000009002208DF8050001208DF80400002090
:101A50008DF806008DF8070069460248FFF793FAF3
:101A60001CBD0000001C024021B1828942F40052DA
:101A7000828104E082894DF6FF731A4082817047AB
:101A80001FB54FF4612000900020ADF80400ADF8C0
:101A90000600ADF80800ADF80C000C20ADF80A0007
:101AA00069460020FFF74EFD1FBD02460020B1F53C
:101AB000007F00D100BF13880B4201D0012000E05D
:101AC000002070472DE9FF4705460E460024A14639
:101AD00000BFA046B08900B100BF2C8A24F4405456
:101AE000F08804432C82AC8941F20C608443B088B6
:101AF00031890843718908430443AC81AC8A24F4DA
:101B00004074B0890443AC826846FFF7E1FB20488B
:101B1000854202D01F48854202D1DDF80C9001E0D9
:101B2000DDF80890A88910F4004F08D009EBC9002F
:101B300000EB091031684900B0FBF1F707E009EB51
:101B4000C90000EB091031688900B0FBF1F764208F
:101B5000B7FBF0F004012009642101FB1078A8898B
:101B600010F4004F08D0322000EBC800B0FBF1F0B9
:101B700000F00700044308E0322000EB0810642165
:101B8000B0FBF1F000F00F0004432C81BDE8FF87AB
:101B90000010014000140140C1F308028280704728
:101BA00000BFFEE70FB4054B10B503A9044A029825
:101BB00000F020F810BC5DF814FB0000FD2A0008BE
:101BC0000C01002002E008C8121F08C1002AFAD147
:101BD00070477047002001E001C1121F002AFBD1AD
:101BE00070470246002102E000BF00BF491C91423D
:101BF000FAD370472DE9FF4F89B09B460446002574
:101C000097E0252833D10027641C4E49B8460122AD
:101C10002378203B02FA03F0084202D00743641CF9
:101C2000F6E720782E2819D114F8010F47F00407A1
:101C30002A280ED06FF02F022078A0F13001092958
:101C40000CD808EB880102EB410100EB0108641C91
:101C5000F2E70A98641C50F8048B0A902078002858
:101C60006BD0642808D0692806D0752820D05A4641
:101C70000B9990476D1C5BE00A994FF00A0901C966
:101C80000A91002804DAC0F100004FF02D0102E0B3
:101C9000390504D52B218DF82010012103E0F90727
:101CA00004D02021F7E78A4608AE0EE00021FAE7CB
:101CB0000A994FF00A0901C90A91F7E74946FEF768
:101CC000C2FA01F1300106F8011D0028F6D1ADEB92
:101CD000060000F12009780701D44FF00108C8453B
:101CE00002DDA8EB090000E000208046002706E0A6
:101CF00008A85A46C05D0B9990476D1C7F1C57453C
:101D0000F6DB04E030205A460B9990476D1CB8F181
:101D10000001A8F10108F5DC05E016F8010B5A46B0
:101D20000B9990476D1CB9F10001A9F10109F4DC90
:101D3000641C207800287FF464AF0DB02846BDE80D
:101D4000F08F00000928010070B504460D4600BF61
:101D500004B970BD00BF606A58B1606A007B082892
:101D600007D12868616A496A884202D1204600F09A
:101D7000A7F800BFEDE700002DE9F04106460C464C
:101D8000174600BF1EB96FF00D00BDE8F08100BF1F
:101D900000BF14B96FF00500F7E700BF00BF00BF38
:101DA00000BF00BF00224FF49A71104602F03DF9C7
:101DB0002061206910B94FF0FF30E6E700BF00BF97
:101DC000607B20B93C480068401C3B4908603A48A9
:101DD00000682060206940686061012061690870C6
:101DE0006169487096F82A0061698870002061690D
:101DF000C870206801F05AFD61694860002061697F
:101E00000881616948816169C860082F09D0042F81
:101E100007D0032F08D1207B052802D0207B04287F
:101E200002D170686169C8600020616908616169F8
:101E300048616169886100250DE096F82A00A84292
:101E400003DD06F12B00405D00E0002061691C31DC
:101E50004855681C85B2102DEFD3002505E0002100
:101E600060692C304155681C85B2402DF7D30025A0
:101E700005E0002160696C304155681C85B2802DF9
:101E8000F7D30E486169C1F8EC00002020830025DB
:101E900004E06069F0304555681C85B2442DF8D3E4
:101EA00001223521204600F0EBF83946204600F0AB
:101EB000F7F8002069E70000840000206382536384
:101EC0002DE9F84305466C6A00260C21204600F0F7
:101ED00099F9042221462846FFF74EFF0646FEB92F
:101EE00004223221204600F0CBF8606A01F0F1FCB8
:101EF00080464146204600F0DCF8204600F00BF911
:101F0000228BF03291B2206902F0A0FA00954323AF
:101F10000B4A2169606805F03DF9204600F012F88F
:101F2000607B401C607342F2107707F2F3104FF4AD
:101F3000FA7190FBF1F060833046BDE8F883000051
:101F4000F472000810B5044600BF04B910BD00BF0C
:101F500000BF00BF00BF00BF206910B1206902F0C0
:101F6000F3F900202061606100BFEFE7F8B5054696
:101F70006C6A0026002060620621204600F042F9CB
:101F8000012221462846FFF7F7FE0646002E30D1F3
:101F900002223921204600F073F8298D204600F0F6
:101FA000A9F804223721204600F06AF801212046D2
:101FB00000F076F80321204600F072F81C2120463C
:101FC00000F06EF80621204600F06AF8204600F086
:101FD000A2F8228BF03291B2206902F037FA009514
:101FE0004323124A2169606805F0D4F82046FFF7C0
:101FF000A9FF607B401C6073607B062803DA617B6D
:102000000120884000E03C2000EB4001C1EBC01003
:102010004FF6FF7101EAC00707F2F3104FF4FA71AF
:1020200090FBF1F060833046F8BD0000F4720008C8
:1020300070B505466C6A04B970BD207B042809D0D0
:1020400003DC98B1032812D107E0052803D00A2841
:102050000DD101E000BF00BF00BF284601F02CFFFA
:1020600000206073284600F079F806E005E00020C3
:1020700060732846FFF77AFF00BF00BF00BFDBE7B1
:1020800010B500BF00BF048B631C03834369F033AA
:102090001955048B631C03834369F0331A5510BD33
:1020A00000BF00BF038B5A1C02834269F032D15437
:1020B000704710B500BF00BF0B0E048B621C02837B
:1020C0004269F0321355C1F30743048B621C02834B
:1020D0004269F0321355C1F30723048B621C02835B
:1020E0004269F0321355048B621C02834269F0325C
:1020F000115510BD10B500BF00BF0B0A048B621C48
:1021000002834269F0321355048B621C02834269D8
:10211000F032115510BD00BF00B9704700BF00BFBD
:1021200000BF00BF00BFFF22038B591C0183416920
:10213000F031CA5406E00022038B591C0183416927
:10214000F031CA54018B442903D3017E11F0030FEF
:1021500002D0018B4429EED300BFDEE72DE9F8431E
:1021600005466C6A0321204600F04CF80322214604
:102170002846FFF701FE06464EBB022239212046C3
:10218000FFF77EFF4FF410712046FFF7B3FF0422E4
:1021900032212046FFF774FF606A01F09AFB804607
:1021A00041462046FFF785FF2046FFF7B4FF228B0C
:1021B000F03291B2206902F049F900954323104AA8
:1021C0002169606804F0E6FF2046FFF7BBFE607BF4
:1021D000401C6073607B0A2805DA607B4FF47A71DB
:1021E00010FB01F001E042F2107087B207F2F31029
:1021F0004FF4FA7190FBF1F060833046BDE8F8834C
:10220000F4720008027B8A4203D0017300224273F9
:102210004283704770B5054600BF05B970BD00BF69
:102220006C6A95F8310020F0080085F8310064B13F
:10223000606820B1606804F08DFF0020606000BF1E
:1022400000BF00212046FFF7DDFF00BFE6E72DE9D4
:10225000FC4705468846164600BF0DB9BDE8FC8719
:1022600000BF70892A2803DA304602F06DF8F5E7DE
:10227000776807F10E042088B0F5807F08D12079B7
:10228000062805D16079042802D16088082803D087
:10229000304602F059F8E1E7D4F80E000190A06949
:1022A0000090281D01D0686810B94FF0000907E0C0
:1022B00000986968884201D1012000E00020814631
:1022C000B9F1000F01D0012000E00220034604F123
:1022D000080201A9284600F041FBE088B0F5807FA4
:1022E00003D0B0F5007F31D12BE0B9F1000F26D03B
:1022F000022001F0E8FAE080D4F80E00A0616868DE
:10230000C4F80E0000BF00BFA068C4F81200A08986
:10231000E082A0683860A089B880D8F80000A0608A
:10232000B8F80400A081D8F80000C7F80600B8F893
:102330000400788131462846AA69904700E000BF32
:1023400005E001A92846FFF7FFFC00E000BF00BF41
:10235000304601F0F9FF00BF80E7000070B5054688
:10236000002412E004EB8400094901EB8000867C24
:102370004EB104EB840001EB80008068A84202D1DA
:10238000204600F0B7F8601CC4B20A2CEADB70BD2E
:10239000B08402202DE9FC5F05460F464FF00A0885
:1023A000C1460A260024A34600200190B2460090B0
:1023B00000BF5CE004EB84004D4A02EB8000817CAE
:1023C0000A2E02D109B966B24FE000294DD000BFF4
:1023D00000BF5DB104EB8402454B03EB8202286829
:1023E0005268904202D160B2BDE8FC9F012928D119
:1023F00004EB84003E4A52F8200088B104EB8400CC
:1024000002EB8000C27C009882422EDB4FFA84FAF5
:1024100004EB8400364A02EB8000C07C009024E08C
:1024200004EB8400324A02EB8000C07C58451CDB80
:102430004FFA84F804EB840002EB800090F813B0AC
:1024400013E0022911DB04EB8400294A02EB80002F
:10245000C27C0198824208DB4FFA84F904EB8400C5
:10246000234A02EB8000C07C0190601CC4B20A2C9D
:10247000A0DB17F0020F04D10A2E05D117F0010FCF
:1024800002D14FF0FF30AFE70A2E01DAF4B21AE0C2
:10249000B9F10A0F03DA09F0FF0400BF0EE0B8F14A
:1024A0000A0F02DA08F0FF0408E0BAF10A0F02DAB4
:1024B0000AF0FF0402E04FF0FF3095E700BF00BFD5
:1024C000204600F017F800BF00BF00BF00BF35B1C5
:1024D00004EB8401064A02EB810128684860002071
:1024E00004EB8401024A02EB8101C87460B27BE70D
:1024F000B084022010B5044604EB84000C4951F866
:10250000200060B104EB8401094A52F8210001F077
:102510001BFF002004EB8401054A42F82100002043
:1025200004EB8401024A02EB8101887410BD0000B3
:10253000B08402202DE9FC4704460F461546A94603
:1025400000BF00BF00BF00BF00BF00BF0E21384664
:1025500001F03DFF18B16FF00100BDE8FC87214696
:10256000286800F00BFC10B1DFF8048177E02878D0
:1025700000F0F000E02815D101208DF800000020C7
:102580008DF801005E208DF80200687800F07F0071
:102590008DF80300A8788DF80400E8788DF8050020
:1025A000E8465BE02868A1680840D4E901121140C0
:1025B000884210D0288880B2A0F57E41A9390AD07F
:1025C00014F10C0004D0E06810B104F10C0902E031
:1025D0006FF00300C1E72748007800EB8000264930
:1025E00001EB8000807C022812DB2249097801EB94
:1025F0008101214A02EB8101D9F800004968884233
:1026000006D11C4802783946204600F037F8A4E786
:1026100000261BE006EB8600174901EB8000807C5A
:10262000022811DB06EB8601134A02EB8101D9F87F
:1026300000004968884207D10E490E70F2B239464F
:10264000204600F01BF888E7701C46B20A2EE1DB3A
:102650003A464946204600F047F87EE700BF434629
:1026600004F12B023946204600F05CF975E70000C2
:10267000F87200080A010020B084022070B50546F7
:102680000E46144600BF00BF04EB8400154901EB61
:102690008000807C022817D104EB840001EB8000CD
:1026A000C07CE42810DB04EB84000A4602EB8000C7
:1026B000011D284600F020F930B9032004EB840105
:1026C000084A02EB8101887404EB8400054901EBA0
:1026D000800000F10C0305F12B023146284600F082
:1026E00021F970BDB08402202DE9F05F80460E46CE
:1026F000174608F12B094FF0FF3A4146306800F0C9
:102700003DFB38B9307800F0F000E02802D00EB17F
:10271000306818B96FF00D00BDE8F09F0121304618
:10272000FFF738FE0446002C01DA2046F4E704EBFC
:102730008400424901EB8000807C30B9012004EB29
:1027400084013E4A02EB8101887400BF00BF04EBA4
:1027500084003A4901EB8000807C012800D03FB919
:102760003146404600F0C8F882460FB95046D3E7DC
:1027700000BF00BF04EB8400304901EB8000807C87
:1027800002280FDB2E490C7004EB84002B4901EB6F
:10279000800000F10C034A463946404600F0C2F87A
:1027A000824648E004EB8400244901EB8000807CF1
:1027B000012840D14FF0000B3D4608E000BF00BFAC
:1027C000287B012802D04FF0010B02E02D68002D7C
:1027D000F4D100BFBBF1000F10D0298900220320E3
:1027E00001F023FC05466DB13946284601F04CFD49
:1027F00040B1284601F0A8FD002503E03D462846EB
:1028000001F060FEA5B104EB84000C4951F82000F2
:1028100030B104EB8401094A52F8210001F094FD23
:1028200004EB8400054941F820504FF0000A01E014
:102830004FF0FF3A00BF50466EE70000B084022020
:102840000A0100202DE9F84F0746884691469A462E
:10285000DDF828B00020009000BF00BF00222A2130
:10286000032001F0E2FB05461DB94FF0FF30BDE843
:10287000F88F00BF00BF6E6806F10E040D9801F0DE
:1028800022F8E08000BF00BFDAF80000A060BAF8CC
:102890000400A0810B980168C4F812108088E082BF
:1028A000D9F800003060B9F80400B080D8F8000012
:1028B000C6F80600B8F804007081DBF80000C4F820
:1028C0000E000C980068A0614FF4807020800820F2
:1028D000608006202071042060714FF4C160B081D7
:1028E00029463846BA6990470090284601F02CFDE9
:1028F00000250098BBE700007FB504460D46012186
:10290000064A201D04F12B038DE825000391044A9B
:1029100019462046FFF796FF04B070BDFE7200080E
:10292000F87200082DE9F04105460E461746984614
:10293000746800BF00BFD8F800002060B8F8040039
:10294000A0803868C4F80600B88860810820A0819B
:1029500031462846AA699047BDE8F0812DE9F04745
:1029600006460D461746984600BF00BF5DB1286871
:1029700048B13146286800F001FA20B9287800F003
:10298000F000E02803D16FF00D00BDE8F08741466C
:102990002846FFF7FFFC0446002C01DA2046F4E746
:1029A000022004EB84011A4A02EB8101887404EBD3
:1029B0008400114601EB8000866004EB840001EB8B
:1029C00080003968C160B9880182002004EB84016D
:1029D00002EB8101C87404EB8400114651F8200019
:1029E00098B104EB840051F82090002004EB84019E
:1029F00042F821003B4606F12B0249463046FFF7DC
:102A000091FF484601F0A0FC00BF0020BDE7000098
:102A1000B08402202DE9F04104460E464FF00E0826
:102A200060890E2800DC49E06568AF89287810F0DD
:102A3000010F16D02878012809D1687888B9A878BC
:102A40005E280ED1607B40F01000607309E0062222
:102A50001D492846FDF7EAFB18B9607B40F00800E5
:102A60006073082F03D0B7F5C16F22D114E096F838
:102A7000310010F0200F00D120E0C8F1000001B2B9
:102A8000204601F0A4FC10B100BF00BF16E03146A3
:102A9000204600F07FFA0DE096F8310010F0200F8C
:102AA00000D10BE0224606F12B013046FFF7CFFBA9
:102AB00000E003E000BF0020BDE8F081204601F007
:102AC00043FC0020F8E70000F872000810B5044647
:102AD00000BF00BF732084F83200742133200155F9
:102AE000044860610448A061204600F02FFE0020E9
:102AF00010BD000035250008CD37000870B504462C
:102B00000D46E1B20548FFF747F800BF40210348F2
:102B1000FEF7CBFF0028F9D0204670BD0010014021
:102B200070B505460C4622460321284600F0B0F851
:102B300070BD00002DE9FE4F04468946656828787F
:102B400000074FEA9068C8F10001204601F03FFC01
:102B500010B92089042800D28DE0606890F800A0A8
:102B6000BAF1000F03D0BAF1080F7ED100E07DE08A
:102B700001264548007800F0F000E02800D100264A
:102B800041490868494600F0F9F800B1002626B925
:102B9000204601F0D9FBBDE8FE8F2089082800D22D
:102BA00069E0204600F0BFF818B1204601F0CCFBE8
:102BB000F1E72221204601F00AFC48B341462046B5
:102BC00001F005FC10B100BF00BF58E021890022D0
:102BD000022001F02AFA064606B950E000BF00BF05
:102BE0002146304601F050FB10B100BF00BF46E067
:102BF0007568C8F1000001B2304601F0E8FB10B181
:102C000000BF00BF3BE0204601F09EFB344608E0D9
:102C10006FF02101204601F0DAFB10B100BF00BFC8
:102C20002DE0676818480068E86018480068286167
:102C3000002038707880FF2028720020688141468B
:102C4000204601F0C4FB10B100BF0DE00DE00120F3
:102C50000021FF230A46CDE9010900910A492046D7
:102C600000F092FA064600BF00E000BF00BF204619
:102C700001F06AFB8FE7204601F066FB8BE72046F8
:102C800001F062FB00BF86E7FC000020F800002096
:102C90002DE9FE4306460F469046002224210120DE
:102CA00001F0C3F905460DB9BDE8FE8300BF00BFC2
:102CB000D6F804906C68277084F801800020A0800A
:102CC000E08071686A6802F108001C22FDF78AFA48
:102CD000002060806989204600F01BF86080D9F8E8
:102CE0000C00029001200021FF2302AACDE9001070
:102CF000284600F02DFA284601F026FB00BFD3E756
:102D000070B505460C4622460B212846FFF7C0FF4A
:102D100070BD70B504460D462946204600F0E5FD1D
:102D2000C04380B270BD2DE9F04106460024002763
:102D3000354617E06989686800F0D7FD0444A0B201
:102D400000EB1444688900EBD0714910B0EB4101ED
:102D500007D0C7F10100C7B2E0B2C4F3072141EACE
:102D600000242D68002DE5D127B1E0B2C4F307217E
:102D700041EA0024E04380B2BDE8F08118B5024684
:102D80000092D04300D00AB9012018BD91F831005B
:102D900010F0020F01D10020F7E74868904201D1FE
:102DA0000020F2E700988B681840D1E901342340F5
:102DB000984208D1886822EA00008C68E343984270
:102DC00001D10120E1E70020DFE700002DE9F74F06
:102DD0008CB004468946B9F8280008901420049065
:102DE0004FF0000860680B900B9EF08800F077FDB4
:102DF00003900398C0F30C000790039800F4005070
:102E000006902089143880B209900899A1F1140025
:102E1000C11700EB5171C1F3CF010A91A4E00898EA
:102E200014380999884201DB012000E00020059058
:102E30000798C0F30C00069908430390059818B949
:102E4000039840F400500390059808B1099801E0F8
:102E50000A98C0001FFA80FB00221421022001F012
:102E6000E4F8054625B94FF0FF300FB0BDE8F08F0C
:102E700000BF00BF142268680B99FDF7B3F96E68B4
:102E8000616804980844606061890498081A608148
:102E9000CDF808B03FE061890298814201DD0298D7
:102EA00000E060898046B8F1000F01D1246832E06B
:102EB00000F062F807462FB9284601F045FA4FF0B6
:102EC000FF30D2E760683B4602224146CDE9000868
:102ED000032001F073F98246BAF1000F08D1384699
:102EE00000F04FF8284601F02FFA4FF0FF30BCE712
:102EF000204601F0E7FA7C611E48386151462846B9
:102F000001F092F90298A0EB080080B202900298BA
:102F100000B1246800BF02980028BCD1CDF8108011
:102F2000039800F0D0FCF0800BF1140188B200F09F
:102F3000CAFC70800020708114213046FFF7E9FE42
:102F40007081D9F81430294648460E9A9847284689
:102F500001F0FAF90998A0EB0B0080B209900A99E8
:102F60000798084480B20790099800287FF457AF6B
:102F700000BF7AE72D37000810B5062000F034FFB7
:102F800010BD10B5044600BF00BF2146062000F06A
:102F9000E9FE10BD2DE9F05F06460F464FF0010A2D
:102FA000756828780421B1EB201F05D0304601F068
:102FB000CBF90020BDE8F09F287800F00F084FF60D
:102FC000FF7000EA8808688800F089FC81467089F3
:102FD000404502DB3089484504DA304601F0B4F957
:102FE0000020E7E74946304601F030FA28695349A6
:102FF0000860E868524908604FF0010B3C4600BF8A
:1030000094F8310010F0010F0FD0201D0DD0606832
:1030100058B14A4800686168884205D04749086845
:103020002146FFF7ABFE00B10DE0BBF1000F04D06D
:103030004FF0000B4348046800E02468BC4200D114
:103040002468002CDCD100BF64B9687A112809D14A
:1030500005EB08004188B1F5884F02D13C464FF09E
:10306000000A00BFBAF1000F14D0354890B10068D3
:1030700080B1334908683946FFF780FE28B93048E7
:10308000007800F0F000E02804D1304601F05CF94F
:1030900000208FE724B9304601F056F9002089E777
:1030A000E8884FF63F71084207D0304600F0CEF86E
:1030B00006460EB900207DE775682348076023485F
:1030C00005603946304601F047FA58BB687A012856
:1030D0000DD0062806D011280ED13946304603F00F
:1030E00025FF1EE03946304601F00EFF19E0394653
:1030F0003046FFF71FFD14E0104908683946FFF716
:103100003DFE50B90D48007800F0F000E02804D0F2
:10311000756002213046FFF703FD304601F014F9D7
:1031200000BF00BF00200849086008490860044942
:1031300008600249086000BF3CE70000FC00002076
:10314000F800002094000020F0000020F40000208F
:103150002DE9FE4F06460F4615469846DDE90C9AC6
:1031600000BF00BF284600F0B7FA040002D1001FDC
:10317000BDE8FE8F43462A4639463046CDE9009ADF
:10318000029400F001F8F3E72DE9F84F05460F46E9
:1031900090469A46DDF828B00C9E00BF00BFB8F1FB
:1031A000000F3BD04FF014091421284601F00FF90D
:1031B00018B16FF00100BDE8F88F6C6800BF00BF68
:1031C00084F808A00B986072D8F800002061484687
:1031D0004FEAE97109EB9171C1F3870141F04001B8
:1031E000217084F801B0288900F06DFB6080002018
:1031F000E0801548008800F066FBA0801248008837
:10320000401C114908800FB1386810B97068E0603F
:1032100001E03868E0600020608103E06C682069AC
:103220000090E846308D48B12889318D884205DD0F
:10323000424631462846FFF7C9FDBCE742462946CB
:10324000304673699847B6E7000100202DE9F84F32
:10325000804600200090D8F80450287800F00F0035
:103260001421B1EB800F00D0ACE0E88800F037FB10
:10327000C0F30C004FF6FF7101EAC00A688800F045
:103280002EFB297801F00F01A0EB81001FFA80FBD3
:10329000404600F0F0FF06464D48018888190A288C
:1032A0000ADD3146284600F0D9F920B148480088A7
:1032B00030440A2800DD85E04648046812E0606971
:1032C000E968884209D1A0692969884205D1A089A5
:1032D000A988884201D1012000E0002000B103E06C
:1032E00000942468002CEAD100BF34B93146284646
:1032F00000F03AF9044694B964E0E88800F0EFFA87
:10330000C004C00C0BD1E08900F0E9FAC004C00C85
:1033100005D01422294604F10800FCF763FF2C486D
:10332000008830442A490880A87910F0200F06D17F
:10333000A07F40F00100A0770AEB0B00A08341467C
:10334000204600F049F8D0B3A08B1430A083606809
:103350004068076860684568142204F1080128463F
:10336000FCF740FFA08B00F0AEFA68800020E880F8
:10337000688114212846FFF7CCFC6881D4F80480CA
:103380000CE0D7F804906FF01301384601F01FF8F5
:103390003946404600F048FFD9F80070002FF0D1C0
:1033A0002046009900F0CAF8404600F064FF084942
:1033B0000988081A064908804046BDE8F88FFFE7EB
:1033C0000020FAE7404600F0BFFF0020F5E70000CC
:1033D00008010020040100202DE9FC5F81460E4613
:1033E00000254FF0010BD6F804A0BAF8020000F057
:1033F00076FA9AF8001001F00F01A0EB810080B27C
:103400000090BAF8060000F06AFAC0F30C004FF61C
:10341000FF7101EAC000019000BF00BF7468002086
:1034200020600198A080DDE900100844E080D9F810
:1034300004802AE0D8F80470A088B988884210DA9D
:10344000C4F8008055B1A088E988884203DBE08891
:10345000B988884200DD62E02E6001E0C9F80460AE
:1034600016E0A088B988884200D158E0A088F98881
:10347000884200DA53E02DB1E888B988884201D04B
:103480004FF0000BD7F800803D46B8F1000FD1D1C6
:1034900000BFB8F1000F0ED14DB100BF00BF2E60CC
:1034A000E888A188884206D04FF0000B03E000BFF7
:1034B00000BFC9F8046099F81E0010F0010F2CD06D
:1034C000BBF1000F26D0D9F804004068808810B105
:1034D0004FF0000B1EE02546D4F800800BE0D8F832
:1034E0000440E888A188884202D04FF0000B05E034
:1034F0002546D4F80080B8F1000FF0D100BFBBF131
:10350000000F07D000BF00BF00BF00BF00BF00BF5B
:1035100000BF00BF5846BDE8FC9F0020FBE73046D7
:1035200000F0A9FE04490988081A034908803046BA
:1035300000F00AFF0020EEE70801002070B5044605
:103540000D4608480068A04203D10649206808607B
:1035500003E000BF00BF206828602146052000F07E
:1035600001FC70BD0401002070B505460E46052023
:1035700000F03AFC044664B93146284600F06EF883
:10358000B04203DB052000F02FFC04460CB90020FC
:1035900070BD20212046FCF73EFE0320E077064860
:1035A00000682060044804601422294604F10800E1
:1035B000FCF718FE2046EBE7040100202DE9F04758
:1035C00004468946002600BF00BFB9F1000F01D0B4
:1035D00000BF00BF6068D0F80480B8F80400C0B92C
:1035E0006568D8F800006060142204F1080168687A
:1035F000FCF7F8FD01212846FFF782FB284600F082
:103600003AFE074600BF00BFF01986B2284600F018
:103610009BFE656810E0D5F80480AA46D8F80050F3
:10362000504600F028FE074600BF00BFF01986B2E2
:10363000504600F089FE00BF002DECD149462046DF
:10364000FFF77CFF00BF00BF03480088801B0249D2
:1036500008803046BDE8F087080100202DE9F05FC2
:1036600005468946002700BF0026B346B2461948E2
:1036700004681DE06069E968884207D1A06929698A
:10368000884203D1A089A988884201D0012000E0A6
:10369000002048B10AF1010A0EB9264604E0E07F95
:1036A000F17F884200DC2646206800B1A3462468EA
:1036B000002CDFD12EB159463046FFF77FFF804600
:1036C00047444F4502DABAF1010FCDDC3846BDE878
:1036D000F09F00000401002010B502461148016867
:1036E0000FE091F8310010F0010F09D010688B68DD
:1036F0001840D1E901342340984201D1084610BD59
:1037000009680029EDD10848006830B10648006812
:1037100090F8310010F0010F01D10020EFE70248CE
:103720000068ECE7940000209800002070B5054682
:103730002C4600BF00BF00BF00BF606910B16069C8
:1037400000F002FE2046FFF71CFC70BD70B5044679
:10375000062084F82A00022084F82B0000212C2067
:1037600001552D2001552E2001552F2001553020C7
:10377000015504F12B010020FDF7C0F840F2DC50A8
:103780002085222084F8310004220C490C48FCF7E3
:103790002DFE04220B490C48FCF7E4FD002507E050
:1037A000074901EB45104FF44001FCF747FE6D1C43
:1037B000042DF5DBFDF7EEF970BD0000D8220220E4
:1037C000880A0220080B0220080A02202DE9F84F7F
:1037D0008B4634480068806800904FF00009002450
:1037E0000026A2462F48D0F8008000BF5D4644E086
:1037F000D8F8000010F0004F02D06FF0010743E04E
:103800006E894FF0000A25E040F2F4531A1B6B68F2
:1038100003EB0A01009B1819FCF7E4FCD8F80C80B4
:10382000D8F8000010F0004F02D06FF007072BE02F
:10383000D8F80800009040F2F450001B361A40F20D
:10384000F450001B824440F2F450001B48441FFA1D
:1038500080F90024301940F2F4518842D4D86A68C3
:1038600002EB0A01009A10193246FCF7BBFC344403
:1038700009EB06001FFA80F92D68002DB8D14846E3
:10388000FDF7E2F8002700BF0748406910F0200F5D
:1038900004D0202004494861002048603846BDE833
:1038A000F88F0000740000200090024001460806D6
:1038B00001F47F4240EA022001F47F0240EA122034
:1038C00040EA1160704701460806000C40EA1120EA
:1038D000704700B503461846FFF7E8FF00BD00B586
:1038E00002461046FFF7EFFF00BDF8B505460A4651
:1038F0002B4600200090002103F0010636B1002A7B
:1039000004DD13F8010B8DF80100521E1C4603E084
:1039100034F8027B3944921E012AF9DC002A02DDC8
:1039200020788DF80000BDF80000014488B200EB5B
:10393000114188B200EB114126B1C8B2C1F307278B
:1039400047EA002188B2F8BD0EB5FDF78FFCFDF700
:103950007BFDFDF797FBFDF769FEFEF76BF800F0C6
:10396000C5FE00F033FEFDF7A3FFFCF7ABFCFDF74F
:10397000A3FBFEF785F801203E49088000BF3D48C3
:1039800000884FF6FF7188421FDB01203A4908701A
:103990000020384908803948008838B93748801EE7
:1039A000008818B93548001F008868B1002407E076
:1039B000334830F81420214632A0FEF7F3F8641C97
:1039C0004FF6FF708442F3DB00BF2A4800882A4983
:1039D00091F900100844274908800320FEF701F9F7
:1039E00001212A48FDF743FB0320FEF7FAF821489E
:1039F00001882748FDF785FD0320FEF7F2F8012135
:103A00002248FDF736FB002000900190029000252F
:103A100026E040211F48FDF72CFB19E0002410E0B0
:103A200000211D48FDF76DFD1420FEF7DAF81A4855
:103A3000FDF764FD5DF8241008444DF82400601C77
:103A4000C4B2032CECDB40211248FDF710FB00BF91
:103A50004FF400711148FDF701FB0028DED16D1C09
:103A6000012DD6DB009881B20548024A128820F861
:103A7000121084E70A000020000000203EF9012017
:103A80001001002025642C25640A0D00002002404E
:103A90000038004000140240005001400004024081
:103AA00070B5054605B970BD00BF00BF00BF00BFBF
:103AB0000C480068854203D30B480068854200D358
:103AC000F1E7A5F1080400BF00BF002020710748FE
:103AD0000068844201D205480460204600F0F8FCEA
:103AE00000BFE0E7880000208C000020900000204C
:103AF00000BF00BF114921F00301114A11601146B6
:103B000008684FF420510180002141800171114665
:103B1000096801F520510B4A1160012112681171E9
:103B20004FF42051074A12681180064A12685180EA
:103B300003490968044A116070470000B73A02203F
:103B4000880000208C00002090000020F0B5024684
:103B50000AB90020F0BDD01C20F0030082B20C2A6C
:103B600000DA0C22B2F5205F01DD0020F2E72F48D9
:103B700000882F4E3688801B83B250E02C480068A6
:103B8000C1180879002847D10E8803F10800301ABF
:103B9000904241D30E8803F10800361A02F1140056
:103BA000864218D303F10800104485B2204800680B
:103BB0004419002020710888208063800D80012036
:103BC00008712088B0F5205F07D02088184E36682D
:103BD0003044458001E001200871144800688142AA
:103BE00011D1124E306803E00688114F3F68F0197A
:103BF00006791EB10F4E3668B042F5D10B4E3060DB
:103C000000BF00BF00BF00BF00BF00BF00BF00BFBC
:103C100000BF01F108009DE705480068C35AC2F5DE
:103C200020509842AADC002094E700009000002079
:103C3000880000208C0000202DE9F04106460A464D
:103C4000D01C20F0030082B20C2A00DA0C22B2F55C
:103C5000205F02DD0020BDE8F08100BF00BF3E48CC
:103C60000068864203D33D480068864201D330464F
:103C7000F1E7A6F1080438480088201A85B22088A8
:103C8000401B083887B200BF00BFBA4201DD0020E8
:103C9000E1E7BA4201D13046DDE72088DFF8B8C05D
:103CA000DCF800C000EB0C01087980BB088805F146
:103CB000080C94441FFA8CF3DFF8A4C0DCF800C0B1
:103CC0008C4508D1DFF890C0DCF800C09C44DFF8D8
:103CD0009080C8F800C0DFF880C0DCF800C00CEBB2
:103CE00003014FF0000C81F804C008804D80238050
:103CF000B1F800C0BCF5205F08D0B1F800C0DFF813
:103D00005880D8F80080C444ACF8023022E0FFE7C5
:103D100002F11400B8421DD805F10800104483B226
:103D20000D480068C1180E480068814201D20C4855
:103D3000016000200871208808804D802380088859
:103D4000B0F5205F06D00888DFF80CC0DCF800C0B2
:103D50006044438030467EE7880000208C000020CD
:103D60009000002001B9704700BF00BF0A46044B15
:103D700053F820301360024B43F8202000BFF2E7D5
:103D8000C862022010B5002001E0431C98B2092847
:103D9000FBDB114B23F00301002019E000230F4C43
:103DA00044F8203000220CE00C4B53F820300B601C
:103DB0000A4B43F820100A4B33F810301944531CB7
:103DC0009AB2084B33F810309342EDDC431C98B2A2
:103DD0000928E3DB10BD0000EF620220C862022068
:103DE0007C7200088E720008024600BF092A01DBBF
:103DF0000020704700BF064850F8221031B1044B34
:103E0000086843F8220000BF00BF00BF0846F0E783
:103E1000C86202202DE9F04704460D4616461F46AB
:103E2000DDE909A9DDF8208000BF00BF0020606047
:103E3000A060E06084F831006062E061C4F8208036
:103E40000E48007884F834000C480078401C0B4978
:103E50000870C4F810903B4632462946204600F0D0
:103E600011F82046D04710B10020BDE8F087044883
:103E700000682060024804602046F6E79C000020AD
:103E8000940000202DE9F04106460F4614461D46D9
:103E90003946304600F02CF82146304600F0A4F8B0
:103EA0002946304600F01DF8BDE8F0810149086060
:103EB000704700009800002010B5044694F83100C7
:103EC00010F0010F0CD014F8310F20F00100207019
:103ED00014F8310910F0200F02D02046FEF73EFA08
:103EE00010BD09B9002200E00A68C26070470000F6
:103EF0002DE9F04107460C4654B3206879688842A2
:103F000001D1012000E0002010BB154806680BE03D
:103F100030687968884206D1D6F80C80304600F0C7
:103F2000ABFC464600E0F668002EF1D10D4805686E
:103F30000CE055B1286840B128687968884204D1FE
:103F40000CB9002000E020682860ED68002DF0D159
:103F50000CB9002000E020687860BDE8F081000026
:103F6000B8000020B400002000B1C161704710B556
:103F7000044694F8310010F0100F0CD094F8310082
:103F800020F0100084F8310000BFE06910B1204635
:103F9000E169884700BF10BD10B5044694F83100B0
:103FA00010F0100F1FD194F8310040F0100084F889
:103FB0003100606A10B12046FEF73AF894F83100FB
:103FC00010F0010F08D094F8310010F0200F03D04A
:103FD000211D2046FEF790FC00BFE06910B120468D
:103FE000E169884700BF10BD09B9002200E00A68F6
:103FF0008260704710B5044694F8310010F0010F4C
:1040000012D114F8310F40F00100207014F831097A
:1040100010F0100F08D094F8310010F0200F03D0EA
:10402000211D2046FEF768FC10BD2DE9F05F834698
:104030000F469046BBF1000F09D0BBF1010F08D02D
:10404000BBF1020F07D0BBF1030F08D105E0362604
:104050000AE0222608E00E2606E0002604E000BF63
:1040600000BF0020BDE8F09F00BFB8F1000F68D08E
:10407000B8F1010F74D0B8F1020F72D0B8F1030F8C
:1040800070D10820FFF7B0FE04460CB90020E9E724
:1040900084F80C800020206006F110002044C01C31
:1040A00020F00300606000BF00BF2781F01C20F0FB
:1040B0000300C0F5FA70B84201DD384604E0F01C98
:1040C00020F00300C0F5FA70608100BF00BF00BFA0
:1040D00000BF0120E081A2466089A7EB00092CE027
:1040E0000820FFF781FE054625B9204600F02CF98F
:1040F0000020B7E785F80C80002068732860CAF8B4
:10410000005000BF00BFA5F808901FFA89F0B0F575
:10411000FA7F02DA1FFA89F001E04FF4FA70688141
:1041200005F11000686000BF00BF00BF00BF0120A4
:10413000E8816889A9EB0009AA46B9F1000FCFDC34
:1041400035E006F1130121F00302F91C21F003010F
:10415000114488B2FFF7FAFC044624B9002081E735
:1041600011E011E01FE004F110003044C01C20F009
:1041700003006060278167810020206084F80C8044
:1041800000BF00BF13E000BF0720FFF72DFE04466D
:104190000CB9002066E700206060278167812060FD
:1041A00084F80C8003E000BF00BF00205AE700BF86
:1041B0000120E08100206073204653E7F0B50546FA
:1041C0000C46DDE9056735B1012D06D0022D06D07C
:1041D000032D08D105E0362109E0222107E00E2158
:1041E00005E0002103E000BF00BF0020F0BD00BFDC
:1041F000C81C20F003002044B84201DD0020F5E790
:10420000002018602EB1C81C20F003003044586014
:1042100001E000205860022058731C815C811A73F1
:104220000120D8811846E1E710B5024600BF02B16F
:1042300001B910BD00BF104604E003890C89234476
:10424000038100680368002BF7D100BF00BF00BFE7
:1042500000BF03890C8923440381016000BFE8E7A4
:1042600030B505460C4621462846FFF7DDFF2046BF
:1042700000F028F930BD0146002002E0421CD0B217
:1042800009680029FAD170472DE9F04105460C462E
:104290000026002700BF25B11CB12889218988424A
:1042A00003DA6FF00D00BDE8F08100BF00BF688940
:1042B000801B6189C91B884204DB6089C01B1FFA0F
:1042C00080F803E06889801B1FFA80F86268D119C2
:1042D0006A6890194246FBF785FF06EB080086B234
:1042E00007EB080087B200BF00BF00BF00BF6089B6
:1042F000B84201DC002724686889B04208D1002652
:104300002D6800BF1DB914B16FF00D00CBE700BFE1
:1043100054B160892189884206D100BF206810B15C
:104320006FF00500BFE700BF55B168892989884251
:1043300006D100BF286810B16FF00500B3E700BFD9
:10434000002CB4D10020AEE72DE9F047044624B993
:1043500000BF00BF0020BDE8F08700BF00BF0026FF
:1043600031E000BF00BFE089401E1FFA80F8A4F8CA
:104370000E80B8F1000F24D12768257B607B10F0F8
:10438000020F07D0A14600BF00BF2046D9F8101089
:10439000884712E0032D04D121460820FFF7E2FCF4
:1043A0000BE0012D01D0022D04D121460720FFF79B
:1043B000D9FC02E02046FFF773FB701CC6B23C46F6
:1043C00000E0002400BF002CCBD13046C3E770B51D
:1043D000024600BF00BF01B10AB9002070BD00292C
:1043E00008DA484284B200BF5089A04201DA0120B5
:1043F000F4E700E08CB2137B55680BB1032B0AD1B4
:104400005068401A506002F110005668864215D27A
:1044100055600120E2E7022B01D0012B0AD10029CF
:1044200006DA5089A04203DB5068401A506005E06C
:104430000120D3E700BF00BF0120CFE75089084427
:1044400050811089084410810020C7E72DE9F04110
:1044500006460F4600BF00BF00BF00BF3089B8420C
:1044600001DCBDE8F0813089A7EB00083D46344609
:104470000AE06089281A85B200BF00BF2089404445
:104480002081246800BF00BF6089A842F1DB207B47
:1044900060B96089A84209D0A088001B284481B275
:1044A0002046FFF7C9FB044600BF00BF6581608955
:1044B0002081206810B12068FFF746FF00202060AF
:1044C00000BFCEE710B1C189491CC181704700000F
:1044D00030B500BF00BF00BF00BF00BF00BF00BFBE
:1044E00000BF0388194C24681919884215D00B792C
:1044F0009BB9174B1B6899420FD0164B1B688B4218
:1045000001D1144B18600B880380104B1B88C31A11
:104510000C880E4D2D682C44638043880B4C246816
:104520001A19824211D013797BB90A4B1B68834256
:1045300001D1084B1A6003881380044B1B88D31ADF
:104540000488024D2D682C44638030BD8800002013
:104550008C000020900000202DE9F04705468A4697
:104560000027D5F8048098F80990002614480468BC
:104570001FE0207C48451AD134B1206820B1114990
:1045800020680968884212D1606980B10E4B2A46C2
:104590002146D4E905C0E04748B10025012736B1DE
:1045A000E068F06006480068E06005480460264660
:1045B000E4680FB9002CDCD13846BDE8F087000074
:1045C000A0000020FC000020F800002000B585B00D
:1045D00000F02AF80020ADF800004FF48270ADF82A
:1045E00002004FF40060ADF804000220ADF80600B0
:1045F0000120ADF808004002ADF80A000820ADF82F
:104600000C000020ADF80E000720ADF81000694640
:104610000448FCF778FF01210248FCF763FF05B06E
:1046200000BD0000005001401CB501210805FCF749
:104630000DFE01212020FCF7D9FD01210220FCF70D
:10464000D5FD00208DF8040002208DF80500002023
:104650008DF807004FF40070009069462148FCF780
:1046600092FC052207212048FCF7D5FC05220821F1
:104670001D48FCF7D0FC052209211B48FCF7CBFCA8
:1046800002208DF804008DF8050000208DF806004A
:1046900002208DF807008020009069461248FCF740
:1046A00072FC4FF40070009069460F48FCF76BFCF9
:1046B0004FF48070009069460B48FCF764FC402082
:1046C000009001208DF8040000208DF806000220E3
:1046D0008DF8050000208DF8070069460248FCF7B8
:1046E00052FC1CBD000402400014024000B585B01D
:1046F00000F030F801211548FCF7BBFC0020ADF8B4
:1047000000004FF48270ADF802004FF40060ADF885
:1047100004000020ADF80600ADF808004FF400706A
:10472000ADF80A000820ADF80C000020ADF80E002E
:104730000720ADF8100069460548FCF7E4FE0121AA
:104740000348FCF7CFFE05B000BD0000002002408A
:10475000003800401CB501218803FCF767FD0121EA
:104760000802FCF743FD052201211D48FCF753FC1C
:10477000052202211A48FCF74EFC052203211848A5
:10478000FCF749FC02208DF804008DF8050000209C
:104790008DF8060002208DF8070000906946104849
:1047A000FCF7F1FB0820009069460D48FCF7EBFB95
:1047B0000420009069460A48FCF7E5FB01200090C0
:1047C0008DF8040000208DF8060002208DF8050009
:1047D00000208DF8070069460148FCF7D4FB1CBD9A
:1047E000002002402DE9FC4704460E4600BF00BFF2
:1047F000207E0A2808D121461C4801F021F92146D3
:104800000220FFF7AFFA2FE0276DD4F82880D4F804
:104810008850D4F8109000BF2146154801F010F9D7
:1048200001201449087000BF206F10B1206F02F002
:104830006BF8E06E10B1E06E02F066F84EB1A08B3E
:10484000618B231D2246CDE900104146384602F017
:1048500010F821460220FFF785FA00BF1DB16FF066
:1048600009014846A84700BFBDE8FC87BC000020FE
:10487000B8000020C400002010B5044601212046E5
:10488000FFF7B0FF10BD000070B506460220FFF72D
:10489000ABFA04467CB900F09BFD0220FFF7A4FAB6
:1048A00004463CB9304600F069FD0220FFF79CFA4F
:1048B000044600BF00BF002C44D094212046FBF7E3
:1048C000AAFC04F11004667241F2D060A4F856000C
:1048D0004FF00000A4F8580040F66830A083E08351
:1048E0004FF0000004F8070C4FF0FF0004F8060C2E
:1048F0004FF40670E0844FF00600A0864FF00000F1
:1049000020864FF0060060864FF0FF30A0844FF005
:104910000100A08700F04CFE0546A5642564A56350
:10492000E564094800686061084800786074002008
:10493000E0730748E0660748E067002084F88200DB
:10494000A4F11004204670BDAC000020C600002079
:104950003567000800DD6D0010B50446207E012893
:1049600003D0A07F40F01000A0770121204600F086
:1049700001F810BD7CB504460E46002E5BD0207EAB
:10498000042802D0207E072855D1606F20B9A08D61
:10499000A0F5306168394ED000BF00BFA08B618B9D
:1049A000CDE90010231D2246A16A206D01F061FFB0
:1049B000204601F025F800BF00BF5A480068A04219
:1049C00005D158480068C0685649086018E0554845
:1049D0000068554908600EE053480068C068A0426E
:1049E00004D15149E0680968C86008E04E48006891
:1049F000C0684D4908604C4800680028ECD100BFF1
:104A00000020E06000BF01204849087000BF207E00
:104A100004280AD10A20207600BF45480068E060DB
:104A20004348046001F0C8FF03E021460220FFF77D
:104A300099F900207CBD207E082868D2DFE800F0CC
:104A400004343F4F5767675F0025608B30B300BF6A
:104A500038480068A04205D136480068C06835492A
:104A6000086018E0334800682F4908600EE02E48BF
:104A70000068C068A04204D12B49E0680968C8609A
:104A800008E029480068C06827490860264800688F
:104A90000028ECD100BF0020E06000BF21460220CA
:104AA000FFF760F9002435E000252146224800F098
:104AB000C7FF21460320FFF755F900242AE000250F
:104AC00000BF2146174800F0BBFF012017490870BE
:104AD00000BF21460220FFF745F900241AE02046D6
:104AE00001F045FF05460DB90520207612E020466D
:104AF00001F03DFF05460DB9052020760AE020466D
:104B000001F035FF05460DB90920207602E00025A9
:104B1000002400BF00BF1CB115B9204600F056FDAF
:104B2000284687E7B8000020C0000020C40000200D
:104B3000BC000020B0000020B40000202DE9F05F90
:104B400004460E469046994600BF207E18B16FF08D
:104B50000800BDE8F09F00BF16B13068606002E059
:104B60006FF00500F5E7A4F81C800CB1206868B967
:104B7000201DFEF7B1FD8346BBF1000F02D16FF09F
:104B80000300E6E7DBF80400206000BFB4F81AA0D9
:104B9000608B38B900F0D8FC6083608B10B96FF07F
:104BA0000100D6E700F004FD0546002044F8280F78
:104BB000A562681E2062606340F66830A080E080D5
:104BC0002068A06040F6683020874FF40670E081CE
:104BD000E089314600F0F8F8E0810120A084E08906
:104BE00000EB80004FF6FF7101EA4000E084C4F85A
:104BF0005890A4F128044FF00201204600F0FBF881
:104C00000746002F3CD102202076BAF1000F26D0B3
:104C100000BF1C480068A04205D11A480068C0685F
:104C20001849086018E017480068174908600EE046
:104C300015480068C068A04204D11349E0680968BB
:104C4000C86008E010480068C0680F4908600E4856
:104C500000680028ECD100BF0020E06000BF00BF6A
:104C600000BF0A480068E0600848046001F0A4FE44
:104C700000BF01200649087000BF204600F0A6FCD6
:104C8000384666E7B0000020C0000020B8000020D1
:104C9000C40000202DE9F04107460D4690464FF034
:104CA000FF36002403E00D4921F81440641CB4F5DC
:104CB0007A7FF8D301234FF4FA620849284601F0BD
:104CC000FAFE01234FF4FA620449284601F0F3FE8C
:104CD0002846FFF741FE0020BDE8F08136020220A1
:104CE0002DE9F05F07460E4691469A46DDF828808A
:104CF00018F0010F01D0042000E0002018F0020F8E
:104D000001D00C2100E0002145180420FFF76CF8C9
:104D1000040005D13046FFF717FB0020BDE8F09FE7
:104D200084F80A800020206066603089401B208162
:104D300014213046FFF74BFB20B1204601F0D7FD90
:104D40000020EBE760684068E060788BFEF7BBFD11
:104D5000E1680880B88BFEF7B6FDE16848805046F0
:104D6000FEF7A4FDE1684860AB46E91705EB9171D9
:104D70008910491D49EA013188B2FEF7A4FDE168B6
:104D800088810020E16848822046C7E708B500F026
:104D9000D5FB0A4908600846006848B108480090F9
:104DA000084B0722694605480068FFF7C7FE04E084
:104DB000024801680220FEF7D5FF08BD4C00002024
:104DC000C0A80179954C00082DE9F04105460E4632
:104DD0003046FEF781FC044654B1208D40B1208D51
:104DE000283887B2BD4201DA284600E03846054639
:104DF0002846BDE8F0812DE9F84304460D4600271A
:104E0000B84600BF00BFB4F86800082805DAB4F857
:104E100068004FF6FC71884207D9A07F40F08000FF
:104E2000A0774FF0FF30BDE8F88315F0020F00D0F7
:104E3000012717F0010F01D0042000E0002017F037
:104E4000020F01D00C2100E0002100EB0108B4F8B2
:104E5000660010B94FF0FF30E5E7002241461046EA
:104E6000FFF7E3F85FEA000906D1A07F40F0800079
:104E7000A0774FF0FF30D6E700BF00BF00972A466B
:104E800049462046E36DFFF72BFF060005D1A07FC2
:104E900040F08000A077701EC5E700BF00BF00BFD4
:104EA00000BFE06E08B9E66607E0E06E00E000686B
:104EB00001680029FBD1066000BF0020A4F86A0049
:104EC00015F0020F02D115F0010F07D0E06D401C64
:104ED000E065B4F86600401EA4F8660015F0010F06
:104EE00003D0A07F40F02000A0777068FFF7C3F9DF
:104EF00034F8681F0844208034F8680908B100BFFE
:104F000000BF00208FE700002DE9FC4706468A46D7
:104F1000FE4970680860FD4871680068007800F01C
:104F20000F0001EB8000FA490860F848006800783B
:104F30000007800E41423046FFF749FA10B9308928
:104F4000142800D20FE2F34908685146FDF716FF16
:104F500028B9F048007800F0F000E02800D102E223
:104F6000EB4909688889FEF7BAFC4FEA20394FEA15
:104F7000890041423046FFF72AFA00B1F3E1E449E3
:104F800009680888FEF7ABFCE14909680880E04938
:104F900009684888FEF7A3FCDD4909684880DC49B8
:104FA00009684868FEF795FCD94909684860DA49FC
:104FB0000860D74909688868FEF78BFCD4490968FE
:104FC0008860D6490860D2490968C889FEF787FC1D
:104FD000CF490968C881CE4909688889FEF77FFCF6
:104FE00000F03F00CE4908703089097811F0030FB6
:104FF00001D0012100E000210844CA4908800027AF
:10500000C94804682AE000BF00BF00BF00BF00BF5E
:1050100000BFA08BBE490968098888421CD1608BFB
:10502000BB4909684988884216D1C0496068096847
:10503000884211D1B7492068096888420CD100BF65
:1050400000BF37B1E068F860B7480068E060B64874
:10505000046000BF00BF03E02746E468002CD2D103
:1050600000BF002C4DD1B248046820E000BF00BF53
:10507000A08BA74909680988884217D1608BA44989
:1050800009684988884211D1A8496068096888423E
:105090000CD1A04920680968884207D1204601F058
:1050A0008DFC3046FFF750F9BDE8FC87E468002C22
:1050B000DCD100279F48056810E0688B9449096897
:1050C0004988884208D1934928680968884202D0F3
:1050D0000DB1286800B903E02F46ED68002DECD132
:1050E00000BF75B137B1E868F86092480068E860C1
:1050F00090480560284600F089F93046FFF724F90A
:10510000D2E7002C75D000208B49086030890881D7
:10511000084646607E480068C860002087490860ED
:10512000874908707E48007810F0080F03D0707B24
:1051300040F001007073606F58B1204600F08EFFA0
:105140000A3005D0606F20B176480088002800DD65
:10515000B8E07C480460204600F0BAFC804618F1B4
:105160000A0017D07648007810F0080F13D000BF5F
:10517000D4F8880028B16FF00A01D4F8882020699B
:10518000904700BF2146684800F05AFC21460220A3
:10519000FEF7E8FD95E06A48007810F0100F17D090
:1051A000A07F10F0100F0AD100BFD4F8880028B1FA
:1051B0006FF00B01D4F888202069904700BF21468A
:1051C000594800F03DFC21460220FEF7CBFD78E077
:1051D0004FF00008B4F86400002812DD00BFA06F93
:1051E00040B1B4F864202146A36F206998478046F7
:1051F00002E077E04FF0000800BF18F10A0000D18C
:1052000060E04E48006868B300BF00BFA07F10F0A8
:10521000100F07D049480068FFF796F82046FFF7BF
:105220002BFB4FE000BFE06F48B100234349D4F8A7
:105230007CC020690A682146E047804607E00023D9
:105240003E4821460268184601F074FA804600BFC5
:1052500018F10A0000D135E0B8F1000F02D037484C
:10526000006860673648007810F0200F23D0606F28
:1052700030B1606F407B40F02000616F48731AE0EE
:10528000A08DA0F53061683902D0A08D401CA085AA
:1052900000BFE06F40B100231A462146D4F87CC01D
:1052A0002069E047804601E04FF0000800BF18F198
:1052B0000A0000D106E0002022490860204600F0E4
:1052C00085F900BF00201F4908601C4908601A4882
:1052D0004068C8B318494868FFF736F800201649F7
:1052E00048603DE00A4909688889FEF7F8FA10F03D
:1052F000040F32D1064800680088054909684988CA
:10530000CDE9001004480068064A1EE0CC000020E9
:10531000C8000020FC000020D0000020D4000020A5
:10532000D8000020DA000020B8000020F80000209B
:10533000BC000020B4000020A0840220E000002077
:10534000DC000020E40000200AE012888118084BED
:10535000084A0948006801F08CFA3046FEF7F4FF6D
:1053600000BF00BFA0E63046FEF7EEFF00BF9BE6A1
:10537000F8000020FC000020D40000202DE9F041BE
:1053800006464FF07F08002700250F48046813E009
:10539000607EB0420FDC607E40450CDC0B49606AE9
:1053A0000968081AB84206D30849606A09680F1AE2
:1053B000254694F81980E468002CE9D115B12846F7
:1053C000FFF75AFABDE8F081B8000020AC000020D9
:1053D00070B5002600250B4804680BE00A49606A96
:1053E0000968081AB04204D30749606A09680E1AAE
:1053F0002546E468002CF1D115B12846FFF73CFAA8
:1054000070BD0000BC000020AC0000207CB505464B
:105410004148007810F0040F01D000207CBD3E48C8
:10542000007810F0100F13D03C48006800883B490A
:1054300009684988CDE9001039480068394A12885E
:105440008118394B394A3A48006801F012FA60E095
:105450003148007810F0020F5BD0687EFFF714FA35
:10546000044614B94FF0FF30D8E730480068206098
:10547000688B60832C48006860602848006800885A
:10548000A0830320207626480068401CA062A06A02
:10549000206322480068C089A4F860001F480068A3
:1054A000C089A4F86200B4F86000A4F84E001C485B
:1054B0000068401E60652869206168696061287A1B
:1054C00000F08C00207200BF00BF1A480068E06046
:1054D0001848046001F070FA00BF012016490870F6
:1054E00000BF204600F0F4F9E08E211DFFF76CFCB0
:1054F000E08612212046FFF77EFC06462EB10021F1
:105500002046FFF76FF9304688E7204600F05EF846
:1055100084E7002082E70000D8000020C8000020B7
:10552000D0000020DA000020F8000020FC0000205D
:10553000D4000020B8000020C400002010B5402096
:10554000FFF7A2F910BD000030B5002300BF1648D8
:1055500004880088401C144D2880A4F57F40FF3843
:1055600003D14FF440402C462080002117E00F4823
:1055700050F8210002680EE0508B0B4C2488A042AA
:1055800008D1581C80B20346B0F5804F01DB0020E3
:1055900030BDDCE7D268002AEED1481CC1B2042934
:1055A000E5DB01480088F3E7A4000020E072000872
:1055B000044800680449096808440249086008462C
:1055C00000687047A8000020AC0000202DE9F047DB
:1055D000044600BF00BF6C480068A04202D1002012
:1055E000BDE8F087B4F86000B4F84C10884202DAE5
:1055F000B4F8600001E0B4F84C008146E56EA07F8D
:1056000010F0020F0ED04DB1E9684868FEF761F95D
:10561000A16C401A29890844484503D9204601F065
:105620007FF9DDE7266F26B100E036683068002894
:10563000FBD191E000BFE9688889FEF750F900BF0F
:10564000206FA0B1A07F10F0440F10D1E06E38B1F0
:10565000E06E006858B9E06E0089E18E884206DA93
:10566000B4F8660018B1B4F86800082801DB01201E
:1056700000E0002020B9A07F10F0A00F00D177E05B
:105680002868E066207E02280BD01020FEF71BF968
:10569000E96889890843E9688881A07F20F00300D0
:1056A000A0772146284600F0ADF8E9684868FEF783
:1056B00010F90746E9688889FEF711F910F0030F21
:1056C00001D0012000E000202989084407EB0008F0
:1056D000206DB0EB080001D5C4F85080E9688889D6
:1056E000FEF7FDF810F0030F01D0012000E00020CC
:1056F0002989084400282BDD00202860206F10B97C
:1057000025672E4627E0E9684868FEF7E2F8074675
:10571000F1684868FEF7DDF8381A16D504F170070D
:1057200000E03F68386860B13968C9684868FEF7CA
:10573000D0F88246E9684868FEF7CBF8BAEB00007B
:10574000EFD4386828603D6005E03560366802E0D7
:10575000284601F0CCF8E56E55B1E9684868FEF7D7
:10576000B8F8A16C401A2989084448457FF662AF11
:1057700000BFE06E10B90020A4F86A00A07F20F0FE
:105780008000A07700202BE7E40000202DE9F047FF
:1057900005460E469046994606F11400404481B2F3
:1057A00000220120FEF741FC074647B300BF00BFBF
:1057B0007C68688BFEF787F82080A88BFEF783F85B
:1057C0006080C4F80490A86AFEF770F8A060B24642
:1057D000F11706EB91718910491D102242EA01313F
:1057E00088B2FEF770F8A081E88DFEF76CF8E081D2
:1057F000002020826082E98DA86A08442863384628
:10580000BDE8F0872DE9FC4705460C46A06AFEF787
:105810004DF8E9688860E08DFEF755F8E968C881C1
:10582000E18DA06A08442063E86800F11408A87AB2
:1058300010F0010F0ED0211D40F2B450FFF7C4FA52
:10584000814649F00170FEF731F8C8F8000008F110
:10585000040800BFB4F93400401C00D1A0860CB18C
:10586000206840B9201DFDF737FF06460EB9BDE898
:10587000FC8770682060A06B38B914480068A0638A
:10588000E9684868FEF725F8E063A88969688988AF
:10589000401A87B268684089C01B69684881686897
:1058A0000089C01B696808816968E8684860002051
:1058B000E96808820621607ACDE90001A37A221DF9
:1058C00021466868FDF744FC00BFD0E7AC0000202B
:1058D0002DE9F04780462B48006800F1140529495E
:1058E00009688889FDF7FBFF0521B1EB203F46DA07
:1058F000244909688889FDF7F2FF0521C1EB2030B2
:105900004FF6FF7101EA8006002436E015F8049096
:10591000B9F1000F06D0B9F1010F05D0B9F1020FAE
:1059200021D104E0BDE8F087601C84B224E0601C53
:10593000285C042802D1201DB04200DDF2E7E01C03
:10594000295CA01C285C41EA002740F2B450874241
:1059500000DC17B940F2B45000E03846A8F8360031
:10596000201D84B208E0601C285C00B9DAE7601CE6
:10597000285C204484B200BF00BFB442C6DB00BF35
:10598000D0E70000C80000202DE9FF5F0C46164656
:105990009846DDE90FAB0E9FA146B4421BDA1AF020
:1059A000020F0AD1B87F10F0400F14D1BBF1000FE5
:1059B00003D0F86E08B9386F68B104F2B75020F020
:1059C0000300B04201DD304603E004F2B75020F09E
:1059D00003001FFA80F9002249460098FEF725FBD4
:1059E00005461DB9002004B0BDE8F09F00BF00BF10
:1059F0006889001BA8F800002C816C812846F2E71A
:105A000010B50446207ED0B1207E0A2817D0207E13
:105A1000012814D0606F20B1606FFEF795FC002064
:105A200060674FF0FF30A086E06E00F06DFF206FE2
:105A300000F06AFF0020E0662067A4F86A0010BD4D
:105A400070B505460C4600BF2868A04203D12868FF
:105A5000C068286017E01D49286808600EE01B48F0
:105A60000068C068A04204D11849E0680968C860AD
:105A700008E016480068C0681449086013480068C8
:105A80000028ECD100BF0020E06000BF2046FFF7F7
:105A9000B7FF207E0A280DD0207E01280AD0A07FE3
:105AA00010F0010F06D0A07F40F00200A077204642
:105AB000FFF78CFD207E012803D000BF00BF00BF90
:105AC00000BF0020207600BF00BF70BDC0000020D6
:105AD0002DE9FC4104464FF000080026FE480078FE
