:020000040800F2
:10000000A82F0220C1010008590500081D0500089D
:10001000550500087D020008490D00080000000099
:10002000000000000000000000000000B50900080A
:100030008102000800000000D5050008150B00082B
:10004000DB010008DB010008DB010008DB01000820
:10005000DB010008DB010008DB010008DB01000810
:10006000DB010008DB010008DB010008DB01000800
:10007000DB010008DB010008DB010008DB010008F0
:10008000DB010008DB010008DB010008DB010008E0
:10009000DB010008DB010008DB010008DB010008D0
:1000A000DB010008DB010008DB010008DB010008C0
:1000B000DB010008DB010008DB010008DB010008B0
:1000C000DB010008DB010008DB010008DB010008A0
:1000D000DB010008DB010008DB010008DB01000890
:1000E000F1020008DB010008DB010008DB01000869
:1000F000DB010008DB010008DB010008DB01000870
:10010000DB010008DB010008DB010008DB0100085F
:10011000DB010008DB0100088D0B0008DB01000893
:10012000DB010008DB010008DB010008DB0100083F
:10013000DB010008DB010008DB010008DB0100082F
:10014000DB010008DB010008DB010008DB0100081F
:10015000DB010008DB010008DB010008DB0100080F
:10016000DB010008DB010008DB010008DB010008FF
:10017000DB010008DB010008DB010008DB010008EF
:10018000DB010008DB010008DB010008DB010008DF
:10019000DB010008DB010008DB010008DB010008CF
:1001A000DB010008DB010008DB010008DFF80CD0F0
:1001B00000F052F8004800476D180008A82F0220F0
:1001C0000648804706480047FEE7FEE7FEE7FEE7F1
:1001D000FEE7FEE7FEE7FEE7FEE7FEE7250B000889
:1001E000AD01000840EA01039B0703D009E008C9FC
:1001F000121F08C0042AFAD203E011F8013B00F8EC
:10020000013B521EF9D27047D2B201E000F8012B37
:10021000491EFBD270470022F6E710B513460A4686
:1002200004461946FFF7F0FF204610BD30B50B46D7
:10023000014600202022012409E021FA02F59D4216
:1002400005D303FA02F5491B04FA02F52844151EEA
:10025000A2F10102F1DC30BD064C074D06E0E0687A
:1002600040F0010394E8070098471034AC42F6D3FD
:10027000FFF7A0FFB0380008D038000800BFFEE745
:100280007047000018B502460B4600210020009080
:100290001548016901F01C014FF4784000EAC220C2
:1002A00001434FF4F86000EA8310014321F002019A
:1002B00041F001010C48016100BF0098401C009012
:1002C0000948016911F0010F03D0084C0098A042C1
:1002D000F3D3064C0098A04201D1002018BD02487B
:1002E000406980B2FAE7000000800240FFFF04008E
:1002F00010B54FF4005000F01FF840B10A480078E4
:1003000008B902F01BFB4FF4005000F00FF84FF457
:10031000804000F011F830B1012000F063F84FF494
:10032000804000F003F810BD2C0000200149086057
:1003300070470000143C014001460020034A126847
:100340000A4201D0012000E000207047143C014027
:10035000002123498279002A3AD00A4612680368AC
:100360009A430B461A600A1D126803689A430B1DD4
:100370001A60027911440A6803681A430A60184A2D
:100380000832126803689A43154B08331A601A1D25
:10039000126803689A43124B0C331A604279102A90
:1003A0000ED11A1F126803681A430D4B08331A60E6
:1003B0001A1D126803681A43094B0C331A600DE0CA
:1003C0000749427911440A6803681A430A6005E044
:1003D000027911440A6803689A430A607047000072
:1003E000003C014010B5044612212046FFF74AFFA9
:1003F00010F4005F10D010212046FFF743FF10F0EB
:10040000010F03D0054801F05BFC05E00120044921
:100410000870024801F03FFC10BD0000C800022037
:100420002C000020F0B50A4600210023002400BF64
:100430003DE0012505FA01F3156805EA03049C4235
:1004400034D105684F000326BE40B54305601579D9
:100450004E00B5400668354305601579012D02D080
:100460001579022D16D185684F000326BE40B5438D
:10047000856055794E00B54086683543856045688E
:1004800001268E40B5434560456896798E40B6B2E8
:1004900035434560C5684F000326BE40B543C5607F
:1004A000D5794E00B540C6683543C560491C102952
:1004B000BFD3F0BDF0B5002300244D07ED0E02FAC6
:1004C00005F3CE1000F1200555F826504E07F70E23
:1004D0000F26BE40B543CF1000F1200646F8275046
:1004E000CE1000F1200555F8265045EA0304CE1041
:1004F00000F1200545F82640F0BD024600201369B2
:100500000B4201D0012000E000207047418370477A
:100510000183704742694A404261704700BFFEE76D
:100520001CB50121082000F057F84FF4005000904E
:1005300002208DF8050001208DF8040000208DF8C0
:1005400006008DF8070069460148FFF76BFF1CBDE8
:10055000000C024000BFFEE77047000070B50021AC
:1005600000230F22C47824B3174C246804F4E064F9
:10057000C4F5E064C4F30721C1F10404E3B20A4105
:1005800044789C40E1B28478144021430C07210E4A
:100590000E4C05786155047804F01F050124AC4029
:1005A00005786D114FF0E02606EB8505C5F8004192
:1005B00009E0047804F01F040125A540044C0678E6
:1005C000761144F8265070BD0CED00E000E400E028
:1005D00080E100E07047000029B1064A126802433A
:1005E000044B1A6004E0034A12688243014B1A600C
:1005F000704700003038024029B1064A12680243B1
:10060000044B1A6004E0034A12688243014B1A60EB
:10061000704700004038024029B1064A1268024380
:10062000044B1A6004E0034A12688243014B1A60CB
:1006300070470000443802401448006840F0010050
:100640001249086000201149083108600F4800680D
:100650000F4908400D4908600E48091D08600E4802
:100660000A49843108600B481038091D08600748A2
:10067000006820F4802005490860002003490C31FF
:10068000086002498C310860704700000038024061
:10069000FFFFF6EA1030002400300020F0B5002102
:1006A00000220024022500260223324F3F6807F073
:1006B0000C0121B1042905D0082937D105E02E4FBE
:1006C000076036E02D4F076033E02A4F3F1F3F6839
:1006D000C7F38056274F3F1F3F6807F03F036EB1B7
:1006E000264FB7FBF3F7DFF88CC0ACF1040CDCF855
:1006F00000C0CCF3881C07FB0CF40CE01E4FB7FBCA
:10070000F3F7DFF870C0ACF1040CDCF800C0CCF3F8
:10071000881C07FB0CF4174F3F1F3F68C7F30147C6
:100720007F1C7D00B4FBF5F7076002E0124F076005
:1007300000BF00BF0F4F3F6807F0F0010909104FDD
:100740007A5C0768D74047600A4F3F6807F4E0517A
:10075000890A0B4F7A5C4768D7408760054F3F682E
:1007600007F46041490B064F7A5C4768D740C76081
:10077000F0BD0000083802400024F40040787D01FC
:10078000380000200021024A11701146087070479D
:100790000238024002460020044B186820F0EC604A
:1007A00042EA01031843014B1860704708380240C1
:1007B0001CB501210846FFF70FFF4FF48070009031
:1007C00003208DF8050002208DF8040000208DF82C
:1007D00006008DF8070069460548FFF723FE002153
:1007E0004FF48000FFF7D6FF0120FFF7CBFF1CBDC1
:1007F0000000024021B1028842F04002028004E081
:1008000002884FF6BF731A400280704701468889FC
:1008100070478181704710B50022028802F441526E
:100820000B884C8823438C882343CC8823430C8932
:1008300023434C8923438C892343CC8923431A4384
:100840000280838B4FF2FF74234083830B8A0382E1
:1008500010BD00007CB504460D462C4951F824100B
:100860002B4A52F8242041EA02000121FFF7B4FE8E
:100870002CB9284951F824000121FFF7CDFE264B61
:1008800013F81420254B33F81410254B53F824008B
:10089000FFF710FE234B13F81420234B33F81410EA
:1008A000224B53F82400FFF705FE00208DF80600C8
:1008B00001208DF8070002208DF804001C4830F854
:1008C0001400009002208DF80500154951F824000D
:1008D0006946FFF7A7FD02208DF80400154830F89F
:1008E00014000090114951F824006946FFF79AFD61
:1008F000114951F82400294600F0B8F90E4951F881
:100900002400012100F084F97CBD0000D0370008EC
:10091000D4370008CC370008E0370008DC3700087F
:1009200020000020E2370008DE3700082400002005
:10093000D8370008DA3700081C00002000B585B061
:1009400001210420FFF748FE01218803FFF764FE20
:1009500000208DF810008DF813004FF40050039024
:1009600003A91348FFF75EFD0D21022000F024F8D3
:100970004FF40050019000208DF808000C208DF8F5
:10098000090001208DF80A0001A8FFF7E1FC2820EA
:100990008DF800000F208DF801008DF80200012075
:1009A0008DF803006846FFF7D9FD05B000BD0000D3
:1009B000000802407047000030B500228B071C0F72
:1009C0000F2303FA04F20B4B8C1053F8243093439B
:1009D000084C8D1044F8253023468C1053F82430F1
:1009E0008C07240F00FA04F42343024C8D1044F8C2
:1009F000253030BD083801400CB500200190009032
:100A00004048006840F480303E49086000BF3D48DF
:100A1000006800F4003000900198401C019000989C
:100A200018B90198B0F5A04FF1D13648006810F41C
:100A3000003F02D00120009001E0002000900098CB
:100A400001285DD12F484030006840F080502D498A
:100A5000403108602C48006840F440402A49086052
:100A600028480830006827490831086008460068AF
:100A700040F4004008600846006840F4A050086058
:100A80002248091F0860081F006840F08070091F95
:100A9000086000BF1B48006810F0007FFAD01A48B9
:100AA000006840F480301849086000BF164840686C
:100AB00010F4803FFAD01448006840F40030124926
:100AC000086000BF1048406810F4003FFAD040F2C0
:100AD00005700F4908600B480830006820F00300DB
:100AE0000849083108600846006840F002000860C4
:100AF00000BF04480830006800F00C000828F8D156
:100B00000CBD00000038024000700040195A400738
:100B1000003C024002480068401C014908607047E0
:100B20001800002010B51548006840F47000134903
:100B300008601348006840F0010011490860002077
:100B40000F49083108600E4800680E4908400C49FA
:100B500008600D48091D0860081F006820F4802007
:100B6000091F0860002006490C310860FFF744FFA8
:100B70004FF0006001498039086010BD88ED00E049
:100B800000380240FFFFF6FE1030002410B50121AE
:100B9000064800F012F840B10121044800F00AF8BC
:100BA0004FF400510248FFF7B5FC10BD00100040A3
:100BB000000C0240CA430282704730B50246002052
:100BC00000230024158A05EA0103958905EA01043A
:100BD00013B10CB1012000E0002030BD1CB5012193
:100BE0008020FFF7F9FC0820009002208DF8050016
:100BF00001208DF8040000208DF806008DF8070014
:100C000069460248FFF70EFC1CBD0000001C0240B4
:100C100021B1828942F40052828104E082894DF63A
:100C2000FF731A40828170471FB54FF46120009016
:100C30000020ADF80400ADF80600ADF80800ADF8EE
:100C40000C000C20ADF80A0069460020FFF702FEF8
:100C50001FBD02460020B1F5007F00D100BF138800
:100C60000B4201D0012000E0002070472DE9FF4732
:100C700005460E460024A14600BFA046B08900B13B
:100C800000BF2C8A24F44054F08804432C82AC89A1
:100C900041F20C608443B08831890843718908436C
:100CA0000443AC81AC8A24F44074B0890443AC8220
:100CB0006846FFF7F3FC2048854202D01F48854272
:100CC00002D1DDF80C9001E0DDF80890A88910F45D
:100CD000004F08D009EBC90000EB0910316849004A
:100CE000B0FBF1F707E009EBC90000EB0910316830
:100CF0008900B0FBF1F76420B7FBF0F00401200994
:100D0000642101FB1078A88910F4004F08D032202C
:100D100000EBC800B0FBF1F000F00700044308E06E
:100D2000322000EB08106421B0FBF1F000F00F005E
:100D300004432C81BDE8FF870010014000140140EE
:100D4000C1F308028280704700BFFEE70FB4054B75
:100D500010B503A9044A029800F020F810BC5DF811
:100D600014FB000061140008C400002002E008C861
:100D7000121F08C1002AFAD170477047002001E015
:100D800001C1121F002AFBD170470246002102E078
:100D900000BF00BF491C9142FAD370472DE9FF4FB5
:100DA00089B09B460446002597E0252833D10027CB
:100DB000641C4E49B84601222378203B02FA03F016
:100DC000084202D00743641CF6E720782E2819D188
:100DD00014F8010F47F004072A280ED06FF02F02F5
:100DE0002078A0F1300109290CD808EB880102EB2A
:100DF000410100EB0108641CF2E70A98641C50F8FA
:100E0000048B0A90207800286BD0642808D06928C9
:100E100006D0752820D05A460B9990476D1C5BE090
:100E20000A994FF00A0901C90A91002804DAC0F1B1
:100E300000004FF02D0102E0390504D52B218DF87B
:100E40002010012103E0F90704D02021F7E78A46AA
:100E500008AE0EE00021FAE70A994FF00A0901C92D
:100E60000A91F7E74946FFF7E1F901F1300106F889
:100E7000011D0028F6D1ADEB060000F1200978072E
:100E800001D44FF00108C84502DDA8EB090000E0DD
:100E900000208046002706E008A85A46C05D0B994E
:100EA00090476D1C7F1C5745F6DB04E030205A4606
:100EB0000B9990476D1CB8F10001A8F10108F5DC11
:100EC00005E016F8010B5A460B9990476D1CB9F1D5
:100ED0000001A9F10109F4DC641C207800287FF4EA
:100EE00064AF0DB02846BDE8F08F0000092801006E
:100EF0002DE9F04106460C46174600BF1EB96FF0BB
:100F00000D00BDE8F08100BF00BF14B96FF005000F
:100F1000F7E700BF00BF00BF00BF00BF00224FF4D3
:100F20009A71104600F0F4FE2061206910B94FF06C
:100F3000FF30E6E700BF00BF607B20B93C48006897
:100F4000401C3B4908603A480068206020694068BE
:100F500060610120616908706169487096F82A0033
:100F60006169887000206169C870206800F030FCF9
:100F7000616948600020616908816169488161692F
:100F8000C860082F09D0042F07D0032F08D1207B79
:100F9000052802D0207B042802D170686169C860EE
:100FA00000206169086161694861616988610025A3
:100FB0000DE096F82A00A84203DD06F12B00405D03
:100FC00000E0002061691C314855681C85B2102D75
:100FD000EFD3002505E0002160692C304155681CE5
:100FE00085B2402DF7D3002505E0002160696C3003
:100FF0004155681C85B2802DF7D30E486169C1F850
:10100000EC0000202083002504E06069F0304555A5
:10101000681C85B2442DF8D301223521204600F00A
:10102000A9F83946204600F0B5F8002069E700002D
:10103000480000206382536310B5044600BF04B922
:1010400010BD00BF00BF00BF00BF00BF206910B1CE
:10105000206900F08CFF00202061606100BFEFE795
:10106000F8B505466C6A002600206062062120461D
:1010700000F042F9012221462846FFF739FF0646D3
:10108000002E30D102223921204600F073F8298D3C
:10109000204600F0A9F804223721204600F06AF823
:1010A0000121204600F076F80321204600F072F876
:1010B0001C21204600F06EF80621204600F06AF858
:1010C000204600F0A2F8228BF03291B2206900F0A5
:1010D000D0FF00954323124A2169606802F00EFB9D
:1010E0002046FFF7A9FF607B401C6073607B0628E9
:1010F00003DA617B0120884000E03C2000EB4001E6
:10110000C1EBC0104FF6FF7101EAC00707F2F31000
:101110004FF4FA7190FBF1F060833046F8BD0000A7
:101120003838000870B505466C6A04B970BD207B7C
:10113000042809D003DC98B1032812D107E0052860
:1011400003D00A280DD101E000BF00BF00BF284630
:1011500000F08CFD00206073284600F079F806E06E
:1011600005E0002060732846FFF77AFF00BF00BF4C
:1011700000BFDBE710B500BF00BF048B631C038317
:101180004369F0331955048B631C03834369F033BF
:101190001A5510BD00BF00BF038B5A1C0283426961
:1011A000F032D154704710B500BF00BF0B0E048B56
:1011B000621C02834269F0321355C1F30743048B6A
:1011C000621C02834269F0321355C1F30723048B7A
:1011D000621C02834269F0321355048B621C028345
:1011E0004269F032115510BD10B500BF00BF0B0AA7
:1011F000048B621C02834269F0321355048B621C1B
:1012000002834269F032115510BD00BF00B970472A
:1012100000BF00BF00BF00BF00BFFF22038B591CEF
:1012200001834169F031CA5406E00022038B591C46
:1012300001834169F031CA54018B442903D3017EF3
:1012400011F0030F02D0018B4429EED300BFDEE77B
:101250002DE9F84305466C6A0321204600F04CF85E
:10126000032221462846FFF743FE06464EBB0222D4
:1012700039212046FFF77EFF4FF410712046FFF71B
:10128000B3FF042232212046FFF774FF606A00F0AA
:10129000B2FA804641462046FFF785FF2046FFF719
:1012A000B4FF228BF03291B2206900F0E2FE00958B
:1012B0004323104A2169606802F020FA2046FFF7B4
:1012C000BBFE607B401C6073607B0A2805DA607B94
:1012D0004FF47A7110FB01F001E042F2107087B216
:1012E00007F2F3104FF4FA7190FBF1F0608330468F
:1012F000BDE8F88338380008027B8A4203D00173C6
:10130000002242734283704770B50546002412E004
:1013100004EB8400094901EB8000867C4EB104EBAC
:10132000840001EB80008068A84202D1204600F0D2
:1013300007F8601CC4B20A2CEADB70BDDC2A02206C
:1013400010B5044604EB84000C4951F8200060B14C
:1013500004EB8401094A52F8210000F008FE002045
:1013600004EB8401054A42F82100002004EB8401CB
:10137000024A02EB8101887410BD0000DC2A0220C1
:101380002DE9F84F0746884691469A46DDF828B081
:101390000020009000BF00BF00222A21032000F09F
:1013A000B7FC05461DB94FF0FF30BDE8F88F00BF10
:1013B00000BF6E6806F10E040D9800F016FAE0808A
:1013C00000BF00BFDAF80000A060BAF80400A081F6
:1013D0000B980168C4F812108088E082D9F80000E8
:1013E0003060B9F80400B080D8F80000C6F80600F4
:1013F000B8F804007081DBF80000C4F80E000C9807
:101400000068A0614FF48070208008206080062072
:101410002071042060714FF4C160B08129463846C4
:10142000BA6990470090284600F0A1FD0025009879
:10143000BBE700007FB504460D460121064A201D8A
:1014400004F12B038DE825000391044A1946204638
:10145000FFF796FF04B070BD423800083C38000822
:1014600070B504460D46E1B20548FFF769FC00BFC0
:1014700040210348FFF7EDFB0028F9D0204670BD5E
:101480000010014070B504460D462946204600F084
:10149000BEF9C04380B270BD2DE9F74F8CB0044651
:1014A0008946B9F828000890142004904FF00008ED
:1014B00060680B900B9EF08800F0A3F903900398EE
:1014C000C0F30C000790039800F4005006902089A8
:1014D000143880B209900899A1F11400C11700EBEB
:1014E0005171C1F3CF010A91A4E008981438099909
:1014F000884201DB012000E0002005900798C0F33E
:101500000C00069908430390059818B9039840F415
:1015100000500390059808B1099801E00A98C000AE
:101520001FFA80FB00221421022000F0F1FB054687
:1015300025B94FF0FF300FB0BDE8F08F00BF00BFFE
:10154000142268680B99FEF74DFE6E686168049876
:101550000844606061890498081A6081CDF808B079
:101560003FE061890298814201DD029800E06089D4
:101570008046B8F1000F01D1246832E000F062F833
:1015800007462FB9284600F0F2FC4FF0FF30D2E7B3
:1015900060683B4602224146CDE90008032000F086
:1015A00080FC8246BAF1000F08D1384600F04FF8AF
:1015B000284600F0DCFC4FF0FF30BCE7204600F08E
:1015C00094FD7C611E4838615146284600F09FFC1E
:1015D0000298A0EB080080B20290029800B1246843
:1015E00000BF02980028BCD1CDF81080039800F00D
:1015F000FCF8F0800BF1140188B200F0F6F870806E
:101600000020708114213046FFF73CFF7081D9F82B
:101610001430294648460E9A9847284600F0A7FC01
:101620000998A0EB0B0080B209900A99079808442A
:1016300080B20790099800287FF457AF00BF7AE77F
:10164000B117000810B5062000F0FAFA10BD10B569
:10165000044600BF00BF2146062000F0E1FA10BD9D
:101660002DE9FE4F06460F4615469846DDE90C9AD1
:1016700000BF00BF284600F071F8040002D1001F2F
:10168000BDE8FE8F43462A4639463046CDE9009AEA
:10169000029400F001F8F3E72DE9F84F05460F46F4
:1016A00090469A46DDF828B00C9E00BF00BFB8F106
:1016B000000F3BD04FF014091421284600F09AFC8B
:1016C00018B16FF00100BDE8F88F6C6800BF00BF73
:1016D00084F808A00B986072D8F800002061484692
:1016E0004FEAE97109EB9171C1F3870141F04001C3
:1016F000217084F801B0288900F077F8608000201C
:10170000E0801548008800F070F8A080124800883A
:10171000401C114908800FB1386810B97068E0604A
:1017200001E03868E0600020608103E06C682069B7
:101730000090E846308D48B12889318D884205DD1A
:10174000424631462846FFF7A7FEBCE742462946F7
:10175000304673699847B6E7C000002010B50246CE
:10176000114801680FE091F8310010F0010F09D025
:1017700010688B681840D1E901342340984201D1A8
:10178000084610BD09680029EDD10848006830B14D
:101790000648006890F8310010F0010F01D10020D8
:1017A000EFE702480068ECE7580000205C000020EA
:1017B00070B505462C4600BF00BF00BF00BF606982
:1017C00010B1606900F0D3FB2046FFF740FF70BD09
:1017D0000146080601F47F4240EA022001F47F023C
:1017E00040EA122040EA1160704701460806000CEA
:1017F00040EA1120704700B503461846FFF7E8FF9E
:1018000000BD00B502461046FFF7EFFF00BDF8B57A
:1018100005460A462B4600200090002103F00106F1
:1018200036B1002A04DD13F8010B8DF80100521EB9
:101830001C4603E034F8027B3944921E012AF9DC8D
:10184000002A02DD20788DF80000BDF80000014478
:1018500088B200EB114188B200EB114126B1C8B249
:10186000C1F3072747EA002188B2F8BD0EB5FEF79D
:10187000E3FEFEF79DFFFEF753FEFFF75FF8FFF76D
:10188000ADF900F00BFD00F079FCFFF7CDF9012078
:101890003E49088000BF3D4800884FF6FF718842EE
:1018A0001FDB01203A490870002038490880394878
:1018B000008838B93748801E008818B93548001F9D
:1018C000008868B1002407E0334830F8142021462E
:1018D00032A0FFF73BFA641C4FF6FF708442F3DB43
:1018E00000BF2A4800882A4991F900100844274976
:1018F00008800320FFF749FA01212A48FEF706FE77
:101900000320FFF742FA214801882748FEF781FFAC
:101910000320FFF73AFA01212248FEF7F9FD0020E3
:10192000009001900290002526E040211F48FEF71C
:10193000EFFD19E0002410E000211D48FEF769FFCB
:101940001420FFF722FA1A48FEF760FF5DF8241012
:1019500008444DF82400601CC4B2032CECDB402189
:101960001248FEF7D3FD00BF4FF400711148FEF797
:10197000C4FD0028DED16D1C012DD6DB009881B29C
:101980000548024A128820F8121084E70A00002055
:1019900000000020F6F80120C800002025642C2556
:1019A000640A0D000020024000380040001402408C
:1019B000005001400004024070B5054605B970BDF5
:1019C00000BF00BF00BF00BF0C480068854203D3C2
:1019D0000B480068854200D3F1E7A5F1080400BF79
:1019E00000BF0020207107480068844201D20548EA
:1019F0000460204600F07EFB00BFE0E74C000020C2
:101A00005000002054000020F0B502460AB9002022
:101A1000F0BDD01C20F0030082B20C2A00DA0C22A8
:101A2000B2F5205F01DD0020F2E72F4800882F4E3D
:101A30003688801B83B250E02C480068C1180879B2
:101A4000002847D10E8803F10800301A904241D394
:101A50000E8803F10800361A02F11400864218D3EA
:101A600003F10800104485B22048006844190020A2
:101A700020710888208063800D80012008712088F3
:101A8000B0F5205F07D02088184E36683044458076
:101A900001E00120087114480068814211D1124E02
:101AA000306803E00688114F3F68F01906791EB1CF
:101AB0000F4E3668B042F5D10B4E306000BF00BF0C
:101AC00000BF00BF00BF00BF00BF00BF00BF01F1EB
:101AD00008009DE705480068C35AC2F520509842A7
:101AE000AADC002094E70000540000204C000020F5
:101AF000500000202DE9F04106460A46D01C20F097
:101B0000030082B20C2A00DA0C22B2F5205F02DD5B
:101B10000020BDE8F08100BF00BF3E48006886425B
:101B200003D33D480068864201D33046F1E7A6F171
:101B3000080438480088201A85B22088401B0838DD
:101B400087B200BF00BFBA4201DD0020E1E7BA4220
:101B500001D13046DDE72088DFF8B8C0DCF800C0EE
:101B600000EB0C01087980BB088805F1080C94444F
:101B70001FFA8CF3DFF8A4C0DCF800C08C4508D154
:101B8000DFF890C0DCF800C09C44DFF89080C8F813
:101B900000C0DFF880C0DCF800C00CEB03014FF0A0
:101BA000000C81F804C008804D802380B1F800C08B
:101BB000BCF5205F08D0B1F800C0DFF85880D8F835
:101BC0000080C444ACF8023022E0FFE702F11400C8
:101BD000B8421DD805F10800104483B20D480068D2
:101BE000C1180E480068814201D20C4801600020F3
:101BF0000871208808804D8023800888B0F5205F18
:101C000006D00888DFF80CC0DCF800C060444380D0
:101C100030467EE74C000020500000205400002099
:101C200001B9704700BF00BF0A46044B53F820308B
:101C30001360024B43F8202000BFF2E704090220A2
:101C4000024600BF092A01DB0020704700BF06489A
:101C500050F8221031B1044B086843F8220000BF4D
:101C600000BF00BF0846F0E70409022010B5044693
:101C700094F8310010F0010F0CD014F8310F20F05F
:101C80000100207014F8310910F0200F02D0204616
:101C9000FFF73AFB10BD10B5044694F8310010F080
:101CA000100F0CD094F8310020F0100084F83100AF
:101CB00000BFE06910B12046E169884700BF10BD50
:101CC00010B5044694F8310010F0100F1FD194F8AD
:101CD000310040F0100084F83100606A10B12046F5
:101CE000FFF720FA94F8310010F0010F08D094F8B3
:101CF000310010F0200F03D0211D2046FFF79AFB82
:101D000000BFE06910B12046E169884700BF10BDFF
:101D10002DE9F05F83460F469046BBF1000F09D0D6
:101D2000BBF1010F08D0BBF1020F07D0BBF1030FCD
:101D300008D105E036260AE0222608E00E2606E055
:101D4000002604E000BF00BF0020BDE8F09F00BFF8
:101D5000B8F1000F68D0B8F1010F74D0B8F1020FDC
:101D600072D0B8F1030F70D10820FFF769FF044665
:101D70000CB90020E9E784F80C800020206006F10F
:101D800010002044C01C20F00300606000BF00BFB2
:101D90002781F01C20F00300C0F5FA70B84201DD85
:101DA000384604E0F01C20F00300C0F5FA706081B2
:101DB00000BF00BF00BF00BF0120E081A2466089D4
:101DC000A7EB00092CE00820FFF73AFF054625B9EC
:101DD000204600F0CCF80020B7E785F80C80002002
:101DE00068732860CAF8005000BF00BFA5F80890CB
:101DF0001FFA89F0B0F5FA7F02DA1FFA89F001E0E4
:101E00004FF4FA70688105F11000686000BF00BFF0
:101E100000BF00BF0120E8816889A9EB0009AA463C
:101E2000B9F1000FCFDC35E006F1130121F0030218
:101E3000F91C21F00301114488B2FFF7E5FD0446C7
:101E400024B9002081E711E011E01FE004F1100047
:101E50003044C01C20F003006060278167810020AF
:101E6000206084F80C8000BF00BF13E000BF072093
:101E7000FFF7E6FE04460CB9002066E7002060602C
:101E800027816781206084F80C8003E000BF00BFD9
:101E900000205AE700BF0120E08100206073204647
:101EA00053E7F0B505460C46DDE9056735B1012D70
:101EB00006D0022D06D0032D08D105E0362109E019
:101EC000222107E00E2105E0002103E000BF00BF52
:101ED0000020F0BD00BFC81C20F003002044B84221
:101EE00001DD0020F5E7002018602EB1C81C20F0AD
:101EF00003003044586001E000205860022058730D
:101F00001C815C811A730120D8811846E1E710B565
:101F1000024600BF02B101B910BD00BF104604E087
:101F200003890C892344038100680368002BF7D1DF
:101F300000BF00BF00BF00BF03890C892344038199
:101F4000016000BFE8E730B505460C46214628464B
:101F5000FFF7DDFF204600F0C8F830BD0146002045
:101F600002E0421CD0B209680029FAD170472DE97D
:101F7000F047044624B900BF00BF0020BDE8F08749
:101F800000BF00BF002631E000BF00BFE089401E57
:101F90001FFA80F8A4F80E80B8F1000F24D127684A
:101FA000257B607B10F0020F07D0A14600BF00BF69
:101FB0002046D9F81010884712E0032D04D121469D
:101FC0000820FFF72DFE0BE0012D01D0022D04D1DA
:101FD00021460720FFF724FE02E02046FFF7ECFC35
:101FE000701CC6B23C4600E0002400BF002CCBD1E0
:101FF0003046C3E770B5024600BF00BF01B10AB961
:10200000002070BD002908DA484284B200BF508920
:10201000A04201DA0120F4E700E08CB2137B55689E
:102020000BB1032B0AD15068401A506002F1100026
:102030005668864215D255600120E2E7022B01D096
:10204000012B0AD1002906DA5089A04203DB50682F
:10205000401A506005E00120D3E700BF00BF012017
:10206000CFE750890844508110890844108100202E
:10207000C7E72DE9F04106460F4600BF00BF00BF8D
:1020800000BF3089B84201DCBDE8F0813089A7EBA0
:1020900000083D4634460AE06089281A85B200BF30
:1020A00000BF208940442081246800BF00BF6089B0
:1020B000A842F1DB207B60B96089A84209D0A088E2
:1020C000001B284481B22046FFF714FD044600BFE0
:1020D00000BF658160892081206810B12068FFF70A
:1020E00046FF0020206000BFCEE710B1C189491C27
:1020F000C181704730B500BF00BF00BF00BF00BF47
:1021000000BF00BF00BF0388194C2468191988421A
:1021100015D00B799BB9174B1B6899420FD0164B02
:102120001B688B4201D1144B18600B880380104B45
:102130001B88C31A0C880E4D2D682C44638043887D
:102140000B4C24681A19824211D013797BB90A4BBF
:102150001B68834201D1084B1A6003881380044B2B
:102160001B88D31A0488024D2D682C44638030BD2F
:102170004C000020500000205400002000B585B025
:1021800000F02AF80020ADF800004FF48270ADF89E
:1021900002004FF40060ADF804000220ADF8060024
:1021A0000120ADF808004002ADF80A000820ADF8A3
:1021B0000C000020ADF80E000720ADF810006946B5
:1021C0000448FEF728FB01210248FEF713FB05B087
:1021D00000BD0000005001401CB501210805FEF7BC
:1021E0001BFA01212020FEF7F7F901210220FEF75A
:1021F000F3F900208DF8040002208DF8050000207E
:102200008DF807004FF40070009069462148FEF7F2
:1022100009F9052207212048FEF74CF9052208217B
:102220001D48FEF747F9052209211B48FEF742F930
:1022300002208DF804008DF8050000208DF80600BE
:1022400002208DF807008020009069461248FEF7B2
:10225000E9F84FF40070009069460F48FEF7E2F885
:102260004FF48070009069460B48FEF7DBF8402081
:10227000009001208DF8040000208DF80600022057
:102280008DF8050000208DF8070069460248FEF72A
:10229000C9F81CBD000402400014024000B585B01E
:1022A00000F030F801211548FEF732F90020ADF8B2
:1022B00000004FF48270ADF802004FF40060ADF8FA
:1022C00004000020ADF80600ADF808004FF40070DF
:1022D000ADF80A000820ADF80C000020ADF80E00A3
:1022E0000720ADF8100069460548FEF794FA012171
:1022F0000348FEF77FFA05B000BD00000020024051
:10230000003800401CB501218803FEF775F9012152
:102310000802FEF761F9052201211D48FEF7CAF8FF
:10232000052202211A48FEF7C5F8052203211848A4
:10233000FEF7C0F802208DF804008DF8050000209B
:102340008DF8060002208DF80700009069461048BD
:10235000FEF768F80820009069460D48FEF762F81D
:102360000420009069460A48FEF75CF801200090BE
:102370008DF8040000208DF8060002208DF805007D
:1023800000208DF8070069460148FEF74BF81CBD98
:10239000002002402DE9FC4704460E4600BF00BF66
:1023A000207E0A2808D121461C4800F0F3FD214672
:1023B0000220FFF735FC2FE0276DD4F82880D4F8F1
:1023C0008850D4F8109000BF2146154800F0E2FD77
:1023D00001201449087000BF206F10B1206F00F079
:1023E000A6FEE06E10B1E06E00F0A1FE4EB1A08B33
:1023F000618B231D2246CDE900104146384600F08E
:102400004BFE21460220FFF70BFC00BF1DB16FF011
:1024100009014846A84700BFBDE8FC877C000020B2
:10242000780000208400002010B5044601212046D9
:10243000FFF7B0FF10BD000070B506460220FFF7A1
:10244000FFFB04467CB900F061FB0220FFF7F8FBBC
:1024500004463CB9304600F02FFB0220FFF7F0FBAA
:10246000044600BF00BF002C44D094212046FDF755
:10247000D2FE04F11004667241F2D060A4F8560056
:102480004FF00000A4F8580040F66830A083E083C5
:102490004FF0000004F8070C4FF0FF0004F8060CA2
:1024A0004FF40670E0844FF00600A0864FF0000065
:1024B00020864FF0060060864FF0FF30A0844FF07A
:1024C0000100A08700F07AFB0546A5642564A5639A
:1024D000E56409480068606108480078607400207D
:1024E000E0730748E0660748E067002084F8820050
:1024F000A4F11004204670BD6C000020860000206E
:102500002530000800DD6D0010B50446207E01284E
:1025100003D0A07F40F01000A0770121204600F0FA
:1025200001F810BD7CB504460E46002E5BD0207E1F
:10253000042802D0207E072855D1606F20B9A08DD5
:10254000A0F5306168394ED000BF00BFA08B618B11
:10255000CDE90010231D2246A16A206D00F09CFDEC
:10256000204600F0F7FC00BF00BF5A480068A042B8
:1025700005D158480068C0685649086018E05548B9
:102580000068554908600EE053480068C068A042E2
:1025900004D15149E0680968C86008E04E48006805
:1025A000C0684D4908604C4800680028ECD100BF65
:1025B0000020E06000BF01204849087000BF207E75
:1025C00004280AD10A20207600BF45480068E06050
:1025D0004348046000F003FE03E021460220FFF7B9
:1025E0001FFB00207CBD207E082868D2DFE800F0B9
:1025F00004343F4F5767675F0025608B30B300BFDF
:1026000038480068A04205D136480068C06835499E
:10261000086018E0334800682F4908600EE02E4833
:102620000068C068A04204D12B49E0680968C8600E
:1026300008E029480068C068274908602648006803
:102640000028ECD100BF0020E06000BF214602203E
:10265000FFF7E6FA002435E000252146224800F085
:1026600099FC21460320FFF7DBFA00242AE000252D
:1026700000BF2146174800F08DFC01201749087063
:1026800000BF21460220FFF7CBFA00241AE02046C3
:1026900000F080FD05460DB90520207612E02046A9
:1026A00000F078FD05460DB9052020760AE02046A9
:1026B00000F070FD05460DB90920207602E00025E6
:1026C000002400BF00BF1CB115B9204600F084FAF9
:1026D000284687E778000020800000208400002042
:1026E0007C00002070000020740000202DE9F05FC5
:1026F00004460E469046994600BF207E18B16FF002
:102700000800BDE8F09F00BF16B13068606002E0CD
:102710006FF00500F5E7A4F81C800CB1206868B9DB
:10272000201DFFF71BF88346BBF1000F02D16FF0AD
:102730000300E6E7DBF80400206000BFB4F81AA04D
:10274000608B38B900F006FA6083608B10B96FF0C7
:102750000100D6E700F032FA0546002044F8280FC1
:10276000A562681E2062606340F66830A080E08049
:102770002068A06040F6683020874FF40670E08142
:10278000E089314600F0F8F8E0810120A084E0897A
:1027900000EB80004FF6FF7101EA4000E084C4F8CE
:1027A0005890A4F128044FF00201204600F0FBF8F5
:1027B0000746002F3CD102202076BAF1000F26D028
:1027C00000BF1C480068A04205D11A480068C068D4
:1027D0001849086018E017480068174908600EE0BB
:1027E00015480068C068A04204D11349E068096830
:1027F000C86008E010480068C0680F4908600E48CB
:1028000000680028ECD100BF0020E06000BF00BFDE
:1028100000BF0A480068E0600848046000F0DFFC80
:1028200000BF01200649087000BF204600F0D4F91F
:10283000384666E770000020800000207800002005
:10284000840000202DE9F04107460D4690464FF0E8
:10285000FF36002403E00D4921F81440641CB4F550
:102860007A7FF8D301234FF4FA620849284600F032
:10287000DEFC01234FF4FA620449284600F0D7FC3D
:102880002846FFF741FE0020BDE8F081320102201A
:102890002DE9F05F07460E4691469A46DDF82880FE
:1028A00018F0010F01D0042000E0002018F0020F02
:1028B00001D00C2100E0002145180420FFF7C0F9E9
:1028C000040005D13046FFF752FB0020BDE8F09F21
:1028D00084F80A800020206066603089401B2081D7
:1028E00014213046FFF786FB20B1204600F012FC91
:1028F0000020EBE760684068E060788BFEF775FFCA
:10290000E1680880B88BFEF770FFE16848805046A8
:10291000FEF75EFFE1684860AB46E91705EB917191
:102920008910491D49EA013188B2FEF75EFFE1686E
:1029300088810020E16848822046C7E708B500F09A
:1029400003F90A4908600846006848B10848009041
:10295000084B0722694605480068FFF7C7FE04E0F8
:10296000024801680220FFF75BF908BD340000202F
:10297000C0A80179452800082DE9F04105460E461A
:102980003046FEF7EBFE044654B1208D40B1208D59
:10299000283887B2BD4201DA284600E038460546AD
:1029A0002846BDE8F0812DE9F84304460D4600278E
:1029B000B84600BF00BFB4F86800082805DAB4F8CC
:1029C00068004FF6FC71884207D9A07F40F0800074
:1029D000A0774FF0FF30BDE8F88315F0020F00D06C
:1029E000012717F0010F01D0042000E0002017F0AC
:1029F000020F01D00C2100E0002100EB0108B4F827
:102A0000660010B94FF0FF30E5E70022414610465E
:102A1000FFF77EF95FEA000906D1A07F40F0800051
:102A2000A0774FF0FF30D6E700BF00BF00972A46DF
:102A300049462046E36DFFF72BFF060005D1A07F36
:102A400040F08000A077701EC5E700BF00BF00BF48
:102A500000BFE06E08B9E66607E0E06E00E00068DF
:102A600001680029FBD1066000BF0020A4F86A00BD
:102A700015F0020F02D115F0010F07D0E06D401CD8
:102A8000E065B4F86600401EA4F8660015F0010F7A
:102A900003D0A07F40F02000A0777068FFF75EFAB7
:102AA00034F8681F0844208034F8680908B100BF72
:102AB00000BF00208FE700002DE9F04106464FF0EF
:102AC0007F08002700250F48046813E0607EB042AD
:102AD0000FDC607E40450CDC0B49606A0968081A0F
:102AE000B84206D30849606A09680F1A254694F867
:102AF0001980E468002CE9D115B12846FFF794FC51
:102B0000BDE8F081780000206C00002070B5002640
:102B100000250B4804680BE00A49606A0968081A36
:102B2000B04204D30749606A09680E1A2546E46872
:102B3000002CF1D115B12846FFF776FC70BD0000DE
:102B40007C0000206C00002010B54020FFF774FCD2
:102B500010BD000030B5002300BF1648048800886F
:102B6000401C144D2880A4F57F40FF3803D14FF45A
:102B700040402C462080002117E00F4850F82100EB
:102B800002680EE0508B0B4C2488A04208D1581CE0
:102B900080B20346B0F5804F01DB002030BDDCE79A
:102BA000D268002AEED1481CC1B20429E5DB0148F5
:102BB0000088F3E764000020243800080448006817
:102BC00004490968084402490860084600687047DB
:102BD000680000206C0000202DE9F047044600BF8B
:102BE00000BF6C480068A04202D10020BDE8F08719
:102BF000B4F86000B4F84C10884202DAB4F860000F
:102C000001E0B4F84C008146E56EA07F10F0020FA1
:102C10000ED04DB1E9684868FEF7EDFDA16C401A91
:102C200029890844484503D9204600F08CFADDE79D
:102C3000266F26B100E0366830680028FBD191E0AD
:102C400000BFE9688889FEF7DCFD00BF206FA0B1F6
:102C5000A07F10F0440F10D1E06E38B1E06E006834
:102C600058B9E06E0089E18E884206DAB4F8660051
:102C700018B1B4F86800082801DB012000E000204A
:102C800020B9A07F10F0A00F00D177E02868E0669F
:102C9000207E02280BD01020FEF7A7FDE968898965
:102CA0000843E9688881A07F20F00300A0772146CF
:102CB000284600F0ADF8E9684868FEF79CFD074635
:102CC000E9688889FEF79DFD10F0030F01D001200F
:102CD00000E000202989084407EB0008206DB0EBD4
:102CE000080001D5C4F85080E9688889FEF789FD9D
:102CF00010F0030F01D0012000E0002029890844D2
:102D000000282BDD00202860206F10B925672E4693
:102D100027E0E9684868FEF76EFD0746F1684868F5
:102D2000FEF769FD381A16D504F1700700E03F6818
:102D3000386860B13968C9684868FEF75CFD82464A
:102D4000E9684868FEF757FDBAEB0000EFD4386831
:102D500028603D6005E03560366802E0284600F0F6
:102D6000D9F9E56E55B1E9684868FEF744FDA16CF4
:102D7000401A2989084448457FF662AF00BFE06EDB
:102D800010B90020A4F86A00A07F20F08000A0778E
:102D900000202BE7A40000202DE9F04705460E4651
:102DA0009046994606F11400404481B20022012069
:102DB000FEF7AEFF074647B300BF00BF7C68688BD5
:102DC000FEF713FD2080A88BFEF70FFD6080C4F88E
:102DD0000490A86AFEF7FCFCA060B246F11706EB6F
:102DE00091718910491D102242EA013188B2FEF723
:102DF000FCFCA081E88DFEF7F8FCE0810020208239
:102E00006082E98DA86A084428633846BDE8F087E7
:102E10002DE9FC4705460C46A06AFEF7D9FCE96897
:102E20008860E08DFEF7E1FCE968C881E18DA06A69
:102E300008442063E86800F11408A87A10F0010F34
:102E40000ED0211D40F2B450FFF796FD814649F0A7
:102E50000170FEF7BDFCC8F8000008F1040800BFCF
:102E6000B4F93400401C00D1A0860CB1206840B9F0
:102E7000201DFEF773FC06460EB9BDE8FC8770689E
:102E80002060A06B38B914480068A063E9684868FE
:102E9000FEF7B1FCE063A88969688988401A87B2A7
:102EA00068684089C01B6968488168680089C01BE0
:102EB000696808816968E86848600020E9680882F4
:102EC0000621607ACDE90001A37A221D21466868B7
:102ED000FEF7C6FB00BFD0E76C0000202DE9FF5FC6
:102EE0000C4616469846DDE90FAB0E9FA146B4424C
:102EF0001BDA1AF0020F0AD1B87F10F0400F14D17C
:102F0000BBF1000F03D0F86E08B9386F68B104F256
:102F1000B75020F00300B04201DD304603E004F278
:102F2000B75020F003001FFA80F9002249460098AC
:102F3000FEF7EEFE05461DB9002004B0BDE8F09F87
:102F400000BF00BF6889001BA8F800002C816C81BD
:102F50002846F2E710B50446207ED0B1207E0A282C
:102F600017D0207E012814D0606F20B1606FFEF76B
:102F7000FEFF002060674FF0FF30A086E06E00F09B
:102F8000D6F8206F00F0D3F80020E0662067A4F8A0
:102F90006A0010BD70B505460C4600BF2868A04207
:102FA00003D12868C068286017E01D4928680860B8
:102FB0000EE01B480068C068A04204D11849E068D0
:102FC0000968C86008E016480068C06814490860CD
:102FD000134800680028ECD100BF0020E06000BF6B
:102FE0002046FFF7B7FF207E0A280DD0207E01285B
:102FF0000AD0A07F10F0010F06D0A07F40F00200A1
:10300000A0772046FFF7E8FD207E012803D000BF0F
:1030100000BF00BF00BF0020207600BF00BF70BD12
:10302000800000202DE9F04107460D4614461E465B
:103030003CB12189284600F00CF82046FEF797FFA6
:1030400005E026B92846FFF75FFABDE8F0810020C9
:10305000FBE770B504460E4600BF00BF00BF00BFCF
:10306000A08D3044A085A08D40F66831884201DDF6
:103070000846A085204600F0B3F8054640F2DA2065
:10308000854208DB00BFA07F40F00200A07700BFB0
:103090002046FFF7A1FD70BD2DE9FC5F81460E467D
:1030A00017469846DDE90CAB002214210120FEF7FB
:1030B0002FFE05460DB9BDE8FC9F00BF00BF6C6840
:1030C0005046FEF792FB20805846FEF78EFB60804C
:1030D0004846FEF77DFB60603046FEF779FBA06056
:1030E00045F21400FEF781FBA08146F60B00E0815B
:1030F00000202082608206200021FF234246CDE985
:10310000001039462846FEF7ABFA2846FEF72FFF97
:1031100000BFD0E710B5044644B1606810B16068E4
:10312000FEF725FF21460420FEF77AFD10BD70B59D
:10313000044605E025682046FFF7ECFF2C4600BF5B
:10314000002CF7D170BD2DE9FC4104460027206D0D
:10315000FEF73EFB80464346002239462046FFF7F5
:103160001BFE054615B9B81EBDE8FC816E68A07F40
:1031700020F00300A0770621607ACDE90001A37A50
:10318000221D21462846FEF76BFA2846FEF7EFFE81
:103190000020E9E770B50446E06ED8B1E56E00E0C6
:1031A0002D6828680028FBD1E9688889FEF729FB8B
:1031B00010F0070F0DD10120FEF717FBE968898990
:1031C0000843E9688881A07F40F02000A0770020B4
:1031D00070BD00BF01212046FFF7E5FBF8E770470F
:1031E00010B501468B8D886AC218C88E40F2B4545F
:1031F0000B6BA04201DD204600E0C88E1844101A77
:1032000004D4888DC885086B101A10BD0B6B886AB2
:10321000C01A002802DD0020C88506E08C6A0B6B0E
:10322000181B00BF00BFC88500BF0020EDE72DE9D7
:10323000FF4F8FB0044617464FF0000A0025AB46FB
:1032400000200E900D9000260B900A900990814668
:10325000B4F8621001EBD1725210E38E9A4201DD94
:10326000E28E04E0B4F8620000EBD072521092B229
:10327000079200BF109820B96FF00D0013B0BDE8A1
:10328000F08F00BF3946204600F094F90890089866
:1032900008B10898F2E7B4F868000C90E06E0028D6
:1032A00073D0E56E00E02D6828680028FBD1A87A6D
:1032B00010F0010F01D0042000E00020A97A11F0E5
:1032C000020F01D00C2100E000210844069029895A
:1032D000069801440798401A1FFA80F8B4F86A006B
:1032E0000990BDF82400002818DD00BF00BFAB46E0
:1032F000BDF82400B84202DABDF8240000E03846E8
:10330000814606EB090086B2BDF82400A0EB090057
:1033100080B20990A8EB09001FFA80F800BF00BF37
:10332000BE4242DAB8F1000F3FDD288900283CDDBB
:10333000B81B404501DD404600E0B81B80B2059057
:10334000AB46129810F0010F16D00121129809AB6C
:103350004246CDE90040029103200599FFF7BEFDEA
:103360005FEA000A00D10EE1109A9119DAF8040020
:10337000059AFCF737FF0DE0012203200599FEF7BF
:10338000C7FC5FEA000A01D1FDE00FE0109830446D
:10339000CAF804000598304486B25046FEF7DEFDB8
:1033A0000C99084480B20C9000BF01E000BF00BF40
:1033B00084E0B81B80B206900B990798401A80B23F
:1033C0000590DDE90510884201DD059800E00698CA
:1033D0000490129810F0010F21D00D9808B9012126
:1033E00000E000211298CDE9004002910B9A049868
:1033F000104481B209AB0020079AFFF76FFD5FEA26
:10340000000800D1BFE000BF00BF109A9119D8F8A2
:1034100004300B9A9818049AFCF7E4FE1EE000BFF3
:1034200000BF012200200499FEF772FC039000B94E
:10343000A9E01098811903984160002210460B9969
:10344000FEF766FC5FEA000803D10398FEF78FFDE4
:1034500099E040460399FEF75AFD00BF4046FEF74B
:103460007DFD0C99084480B20C900C98082804DC6F
:103470004FF6FC710C98884203D94046FEF777FD61
:1034800081E00A980090E06D8319002241462046B1
:10349000FFF7FEF95FEA000B00D174E00D9810B958
:1034A000CDF834B004E000BF00BF0E98C0F800B003
:1034B000CDF838B00498304486B200BFBE42FFF663
:1034C00078AFB9F1000F21DDD5F8048017E0B8F826
:1034D00008004844A8F80800D8F8000068B9B8F80F
:1034E0000A20D8F8041088184A461099FCF77AFE8A
:1034F000B8F80A004844A8F80A00D8F80080B8F1E3
:10350000000FE4D128894844288100BFBDF8240079
:10351000A4F86A00BAF1000F0AD000BF00BF5146FC
:103520006868FEF7F4FC2889BAF808100844288176
:1035300015B90D98E06601E00D98286054F85C0F0D
:10354000384420606089C01B60810C98A081A089EC
:10355000A4F15C0408B100BF00BFBBF1000F10D0A4
:10356000DBF80C0068B1129810F0020F09D10820A6
:10357000FEF73BF9DBF80C1089890843DBF80C10E7
:10358000888100207AE6A07F40F08000A077BAF121
:10359000000F02D05046FEF7EAFC0D9810B10D98CE
:1035A000FFF7C5FDB4F8680008B100BF00BF4FF0D9
:1035B000FF3063E60246107E04280BD0107E0728F9
:1035C00008D0107E022805D0107E032802D06FF0AC
:1035D0000C00704709B90020FBE7B2F8660088428A
:1035E00006DA907F40F0800090774FF0FF30F0E7F0
:1035F000B2F86800082805DAB2F868004FF6FC73E4
:10360000984206D9907F40F0800090774FF0FF30CD
:10361000DFE7B2F8680008B100BF01E000BF00BFFB
:103620000020D6E72DE9F04105460E4617464FF03B
:1036300000081B48046818E0A54204D100BF00BF81
:103640004FF0010810E0608AB8420DD144B1206803
:1036500030B12EB1306818B120683168884203D18A
:103660006FF00700BDE8F081E468002CE4D10EB9EA
:10367000002000E03068286037B900F013F80746F2
:1036800017B96FF00700EDE76F82B8F1000F04D1B2
:1036900003480068E860024805600020E2E7000097
:1036A000AC00002010B5002200BF1248038800883B
:1036B000401C104C2080A3F57F40FF3803D14FF40D
:1036C0004040234618800C4801680EE0488A094BA8
:1036D0001B88984208D1501C80B20246B0F5804F3A
:1036E00001DB002010BDE0E7C9680029EED10148E8
:1036F0000088F7E7A8000020AC0000202DE9FF4F6C
:1037000083B004460E469B46DDF84080608A60B96F
:10371000628A21462046FFF785FF8246BAF1000FF4
:1037200003D0504607B0BDE8F08F08213046FEF7C1
:1037300061FC80B1002208210120FEF7E9FA05466C
:1037400015B94FF0FF30EDE7308928B131462846F2
:10375000FEF7F9FB00E0354600BF00BF6F68608AE6
:10376000FEF743F838805846FEF73FF8788000208F
:10377000F8800CB1206810B908F104090EE0206847
:10378000D8F80410884208D0B54203D02846FEF786
:10379000EEFB00256FF00500C4E7A1462889FEF77F
:1037A00024F8B8801121607A8DE80301A37A494694
:1037B0002846059AFDF770FF8246B54203D0284699
:1037C000FEF7D5FB00255046ACE7000010000000D6
:1037D00001000000010000000002000409000A00CE
:1037E000070007006A3800088B380008A73800086F
:1037F000713800085E38000848380008533800085F
:103800009C3800087A38000882380008923800088E
:103810000102030405060707070707070703060C4D
:1038200018306078740000207000002078000020BC
:103830007C00002000000000FFFFFFFFFFFFFFFFF4
:10384000FFFF00000000000046494E5F5741495409
:103850005F310046494E5F574149545F320045533E
:103860005441424C495348454400434C4F5345440E
:103870000053594E5F5243564400434C4F53494EF8
:1038800047004C4153545F41434B004C495354450E
:103890004E0054494D455F5741495400434C4F53E6
:1038A000455F574149540053594E5F53454E5400AC
:1038B000D038000800000020C80000006C0D00088F
:1038C00098390008C8000020E02E02007C0D000896
:1038D00001000000000000000000000000000000E7
:1038E0000000000000000000000000000010014087
:1038F0000000024000000240000000000000000044
:1039000000000000000000000000000001020304AD
:1039100001020304060708090000CDAB0000000007
:103920000000000000000000000000000000000097
:103930000000000000C000006E1900000000000040
:103940000000000000000000000000000000000077
:103950000000000000000000000000000000000067
:103960000000000000000000000000000000000057
:10397000000000000000000000C000000000000087
:103980000000000000000000000000000000000037
:0839900000000000000000002F
:04000005080001AD41
:00000001FF
