:020000040800F2
:1000000088060020CD0F0008290400082B040008F2
:100010002F04000833040008370400080000000023
:100020000000000000000000000000003B04000889
:100030003D040008000000003F04000841040008DF
:10004000E70F0008E70F0008E70F0008E70F0008B8
:10005000E70F0008E70F0008E70F0008E70F0008A8
:10006000E70F0008E70F0008E70F0008E70F000898
:10007000E70F0008E70F0008E70F0008E70F000888
:10008000E70F0008E70F0008E70F0008E70F000878
:10009000E70F0008E70F0008E70F0008E70F000868
:1000A000E70F0008E70F0008E70F0008E70F000858
:1000B000E70F0008E70F0008E70F0008E70F000848
:1000C000E70F0008E70F0008E70F0008E70F000838
:1000D000E70F0008E70F0008E70F0008E70F000828
:1000E000E70F0008E70F0008E70F0008E70F000818
:1000F000E70F0008E70F0008E70F0008E70F000808
:10010000E70F0008E70F0008E70F0008E70F0008F7
:10011000E70F0008E70F0008E70F0008E70F0008E7
:10012000E70F0008E70F0008E70F0008E70F0008D7
:10013000E70F0008E70F0008E70F0008E70F0008C7
:10014000E70F0008E70F0008E70F0008E70F0008B7
:10015000E70F0008E70F0008E70F0008E70F0008A7
:10016000E70F0008E70F0008E70F0008E70F000897
:10017000E70F0008E70F0008E70F0008E70F000887
:10018000E70F0008E70F0008E70F0008E70F000877
:10019000E70F0008E70F0008E70F0008E70F000867
:1001A000E70F0008E70F0008E70F000800F002F86B
:1001B00000F03CF80AA090E8000C82448344AAF1C5
:1001C0000107DA4501D100F031F8AFF2090EBAE8C3
:1001D0000F0013F0010F18BFFB1A43F0010318477B
:1001E000C01B0000E01B0000103A24BF78C878C193
:1001F000FAD8520724BF30C830C144BF04680C602D
:10020000704700000023002400250026103A28BF74
:1002100078C1FBD8520728BF30C148BF0B60704778
:100220001FB501F0B8FD1FBD10B510BD01F07DFD7B
:100230001146FFF7F5FF00F04BF801F09BFD03B40A
:10024000FFF7F2FF03BC01F09FFD000001B56D490F
:100250000098086000BF6B4800680028FBD108BD0B
:100260001CB50121082001F0F8F94FF4005000906E
:1002700002208DF8050001208DF8040000208DF883
:1002800006008DF8070069465F4800F045FF1CBD79
:100290001CB50121084601F0E0F94FF48070009090
:1002A00003208DF8050002208DF8040000208DF851
:1002B00006008DF807006946544800F02DFF002124
:1002C0004FF4800001F0ADF8012001F012F81CBDE0
:1002D00000F0E6FFFFF7DCFFFFF7C2FF00F07FFB57
:1002E00000F032F900BF4FF4FA71481EB0F1807F80
:1002F00001D301201BE0481E4FF0E022506150174F
:100300000F22002807DA13071D0E414B00F00F04DF
:10031000241F1D5503E013071C0E3E4B1C5400BF49
:1003200000204FF0E022906107201061002008B10A
:1003300000BFFEE70120FFF789FF00BF012136481B
:1003400000F068FF47F6FF71344801F073FC0121AB
:10035000314800F05DFF00BF00BF00BF00BF00BF1D
:1003600000BF00BF00BF00BF00BF00BF00BF00BF95
:1003700000BF00BF00BF00BF00BF00BF00BF00BF85
:1003800000BF00BF00BF00BF00BF00BF00BF00BF75
:1003900000BF00BF00BF00BF00BF00BF00BF00BF65
:1003A00000BF00BF00BF00BF00BF00BF00BF00BF55
:1003B00000BF00BF00BF00BF00BF00BF00BF00BF45
:1003C00000BF00BF00BF00BF00BF00BF00BF00BF35
:1003D00000BF00BF00BF4021114800F01BFF0021FB
:1003E000104801F027FC00BF40210D4800F010FF2D
:1003F000A4E70448006820B102480068401E014993
:100400000860704700000020000C0240000002401D
:1004100018ED00E000E400E0002002400038004059
:100420000014024000500140704700BFFEE700BFCB
:10043000FEE700BFFEE700BFFEE77047704770476A
:1004400010B5FFF7D6FF10BD1CB50021F94801F02B
:1004500070FBF84801F040FA00214FF4801001F0E1
:1004600054F900208DF804008DF8070080200090DA
:100470006946F14800F050FE4FF4807000906946E4
:10048000ED4800F049FE4FF4007000906946EA48DC
:1004900000F042FE402000906946E74800F03CFE34
:1004A0001CBD10B5FFF7D0FF10BD1CB5012108051C
:1004B00001F02BF90121202001F0CFF805220721BE
:1004C000DD4800F0B4FE05220821DB4800F0AFFE55
:1004D00005220921D84800F0AAFE02208DF8040068
:1004E0008DF8050000208DF8060002208DF8070029
:1004F000802000906946D04800F00EFE4FF4007056
:1005000000906946CC4800F007FE00208DF80400FA
:100510008DF807004FF4807000906946C64800F0DF
:10052000FBFD4020009001208DF8040000208DF894
:10053000060002208DF8050000208DF807006946AE
:10054000BD4800F0E9FD1CBD00B585B0FFF7ADFF6B
:100550000020ADF800004FF48270ADF802004FF4B7
:100560000060ADF804000220ADF806000120ADF8EF
:1005700008004002ADF80A000820ADF80C00002089
:10058000ADF80E000720ADF810006946A94801F04B
:10059000EFF90121A74801F0CCFA05B000BD10B574
:1005A000044600BF0221A34801F07BFB0028F9D0DC
:1005B0002146A04801F03EFB00BF01219D4801F00B
:1005C00070FB0028F9D09B4801F031FBC0B210BD90
:1005D00010B500244021984800F01CFE0520FFF7CC
:1005E000DEFF00BFA520FFF7DAFF044614F0010F7D
:1005F000F8D14021904800F00BFE10BD10B540210D
:100600008D4800F007FE0620FFF7C9FF40218A4809
:1006100000F0FEFD10BD10B50446FFF7EFFF4021CE
:10062000854800F0F7FDD820FFF7B9FFC4F3074075
:10063000FFF7B5FFC4F30720FFF7B1FFE0B2FFF704
:10064000AEFF40217C4800F0E3FDFFF7C1FF10BD85
:1006500010B5FFF7D3FF4021774800F0DBFDC7203E
:10066000FFF79DFF4021744800F0D2FDFFF7B0FF77
:1006700010BD70B505460C461646FFF7BFFF40217A
:100680006D4800F0C7FD0220FFF789FFC4F3074063
:10069000FFF785FFC4F30720FFF781FFE0B2FFF704
:1006A0007EFF03E02878FFF77AFF6D1C3000A6F18B
:1006B00001018EB2F6D140215F4800F0A9FDFFF79D
:1006C00087FF70BD2DE9F05F07460E4614464FF0D8
:1006D0000008C146C2460025AB4606F0FF0ACAF133
:1006E0000000C5B22046E11704EB1161C1F30728F1
:1006F000E11704EB11610912A4EB012101F0FF09DC
:10070000BAF1000F20D1B8F1000F05D122463146D1
:100710003846FFF7AEFF64E009E04FF480723146DF
:100720003846FFF7A6FF06F5807607F580775FEA83
:100730000800A8F1010101F0FF08EED14A46314658
:100740003846FFF796FF4CE0B8F1000F18D1A945E5
:1007500010DDA9EB050000F0FF0B2A4631463846B4
:10076000FFF787FF2E442F445A4631463846FFF79D
:1007700080FF36E0224631463846FFF77AFF30E008
:10078000601B84B22046E11704EB1161C1F3072816
:10079000E11704EB11610912A4EB012101F0FF093B
:1007A0002A4631463846FFF764FF2E442F4409E0BD
:1007B0004FF4807231463846FFF75BFF06F58076CE
:1007C00007F580775FEA0800A8F1010101F0FF0852
:1007D000EED1B9F1000F04D04A4631463846FFF752
:1007E00048FFBDE8F09F70B505460C46164640210F
:1007F000114800F00FFD0320FFF7D1FEC4F30740BE
:10080000FFF7CDFEC4F30720FFF7C9FEE0B2FFF704
:10081000C6FE04E0A520FFF7C2FE28706D1C300064
:10082000A6F101018EB2F5D14021034800F0F0FCA1
:1008300070BD000000500140001402402DE9F0415D
:1008400000240025002600274021284800F0E2FC73
:100850009F20FFF7A4FEA520FFF7A1FE0546A520D7
:10086000FFF79DFE0646A520FFF799FE07464021AB
:100870001E4800F0CDFC280440EA062040EA0704A8
:100880002046BDE8F08110B504464021174800F02D
:10089000C1FC0320FFF783FEC4F30740FFF77FFE90
:1008A000C4F30720FFF77BFEE0B2FFF778FE10BD30
:1008B00010B5A520FFF773FE10BD10B5044600BFAC
:1008C00002210B4801F0EDF90028F9D02146084833
:1008D00001F0B0F900BF0121054801F0E2F900285C
:1008E000F9D0034801F0A3F910BD00000014024044
:1008F000005001401CB50021FE4801F01AF9FD48E6
:1009000000F0EAFF00214FF4804000F0EDFE0020EF
:100910008DF804008DF80700022000906946F64823
:1009200000F0FAFB042000906946F34800F0F4FB65
:10093000082000906946F04800F0EEFB012000908E
:100940006946ED4800F0E8FB1CBD10B5FFF7D2FF8B
:1009500010BD1CB50121880300F0C6FE012108026C
:1009600000F07BFE05220121E34800F060FC052237
:100970000221E14800F05BFC05220321DE4800F083
:1009800056FC02208DF804008DF8050000208DF83B
:10099000060002208DF8070000906946D64800F056
:1009A000BBFB082000906946D34800F0B5FB04204B
:1009B00000906946D04800F0AFFB012000908DF810
:1009C000040000208DF8060002208DF805000020AC
:1009D0008DF807006946C84800F09EFB1CBD00B5B5
:1009E00085B0FFF7B6FF0121C34800F011FC0020DD
:1009F000ADF800004FF48270ADF802004FF40060D3
:100A0000ADF804000220ADF806000120ADF80800A2
:100A10004002ADF80A000820ADF80C000020ADF847
:100A20000E000720ADF810006946B24800F0A0FFA4
:100A30000121B04801F07DF805B000BD10B50446B5
:100A400000BF0221AB4801F02CF90028F9D0214663
:100A5000A84801F0EFF800BF0121A64801F021F9F4
:100A60000028F9D0A34801F0E2F8C0B210BD10B5DB
:100A700000240121A04800F0CDFB0520FFF7DEFF98
:100A800000BFA520FFF7DAFF044614F0010FF8D1EC
:100A90000121994800F0BCFB10BD10B5012196481A
:100AA00000F0B8FB0620FFF7C9FF0121924800F0D3
:100AB000AFFB10BD10B50446FFF7EFFF01218E48D4
:100AC00000F0A8FBD820FFF7B9FFC4F30740FFF7F9
:100AD000B5FFC4F30720FFF7B1FFE0B2FFF7AEFFA9
:100AE0000121854800F094FBFFF7C1FF10BD10B550
:100AF000FFF7D3FF0121804800F08CFBC720FFF7F0
:100B00009DFF01217C4800F083FBFFF7B0FF10BD83
:100B100070B505460C461646FFF7BFFF0121764823
:100B200000F078FB0220FFF789FFC4F30740FFF7CE
:100B300085FFC4F30720FFF781FFE0B2FFF77EFFD8
:100B400003E02878FFF77AFF6D1C3000A6F1010161
:100B50008EB2F6D10121684800F05AFBFFF787FFFB
:100B600070BD2DE9F05F07460E4614464FF00008B1
:100B7000C146C2460025AB4606F0FF0ACAF1000096
:100B8000C5B22046E11704EB1161C1F30728E11754
:100B900004EB11610912A4EB012101F0FF09BAF184
:100BA000000F20D1B8F1000F05D12246314638465A
:100BB000FFF7AEFF64E009E04FF48072314638463B
:100BC000FFF7A6FF06F5807607F580775FEA080055
:100BD000A8F1010101F0FF08EED14A46314638463E
:100BE000FFF796FF4CE0B8F1000F18D1A94510DDD2
:100BF000A9EB050000F0FF0B2A4631463846FFF707
:100C000087FF2E442F445A4631463846FFF780FF6F
:100C100036E0224631463846FFF77AFF30E0601B67
:100C200084B22046E11704EB1161C1F30728E117F4
:100C300004EB11610912A4EB012101F0FF092A461E
:100C400031463846FFF764FF2E442F4409E04FF445
:100C5000807231463846FFF75BFF06F5807607F570
:100C600080775FEA0800A8F1010101F0FF08EED1EA
:100C7000B9F1000F04D04A4631463846FFF748FF25
:100C8000BDE8F09F70B505460C46164601211A488E
:100C900000F0C0FA0320FFF7D1FEC4F30740FFF7CE
:100CA000CDFEC4F30720FFF7C9FEE0B2FFF7C6FE92
:100CB00004E0A520FFF7C2FE28706D1C3000A6F1ED
:100CC00001018EB2F5D101210B4800F0A1FA70BDEF
:100CD0002DE9F041002400250026002701210648C7
:100CE00000F098FA9F20FFF7A9FEA520FFF7A6FEC7
:100CF000054603E00038004000200240A520FFF731
:100D00009DFE0646A520FFF799FE074601211E48D5
:100D100000F07EFA280440EA062040EA0704204654
:100D2000BDE8F08110B504460121174800F072FAC1
:100D30000320FFF783FEC4F30740FFF77FFEC4F3F1
:100D40000720FFF77BFEE0B2FFF778FE10BD10B57D
:100D5000A520FFF773FE10BD10B5044600BF0221A9
:100D60000A4800F09EFF0028F9D02146074800F00D
:100D700061FF00BF0121054800F093FF0028F9D072
:100D8000024800F054FF10BD00200240003800402F
:100D90000CB50020019000908148006840F480303C
:100DA0007F49086000BF7E48006800F40030009072
:100DB0000198401C0190009818B90198B0F5A04F17
:100DC000F1D17748006810F4003F02D00120009074
:100DD00001E000200090009801285DD1704840306B
:100DE000006840F080506E49403108606D480068EE
:100DF00040F440406B490860694808300068684921
:100E0000083108600846006840F400400860084661
:100E1000006840F4A05008606348091F0860081F7C
:100E2000006840F08070091F086000BF5C480068DF
:100E300010F0007FFAD05B48006840F480305949D8
:100E4000086000BF5748406810F4803FFAD055480A
:100E5000006840F400305349086000BF51484068C2
:100E600010F4003FFAD040F20570504908604C4839
:100E70000830006820F0030049490831086008463E
:100E8000006840F00200086000BF45480830006874
:100E900000F00C000828F8D10CBD10B544480068DB
:100EA00040F47000424908603D48006840F001008D
:100EB0003B49086000203A4908310860384800681A
:100EC0003C490840364908603B48091D0860081F36
:100ED000006820F48020091F0860002030490C3190
:100EE0000860FFF755FF4FF0006031498039086016
:100EF00010BD70B500200022022300240221284DDD
:100F000008352D6805F00C0020B1042806D008280B
:100F100034D107E0294D2A4E356033E0294D284E63
:100F200035602FE01E4D2D1D2D68C5F380541C4DDE
:100F30002D1D2D6805F03F0154B1224DB5FBF1F593
:100F4000174E361D3668C6F3881605FB06F209E013
:100F50001A4DB5FBF1F5124E361D3668C6F38816EC
:100F600005FB06F20E4D2D1D2D68C5F301456D1CC8
:100F70006B00B2FBF3F5124E356003E00F4D104EDF
:100F8000356000BF00BF064D08352D68C5F3031559
:100F90000D4E705D0A4D2D68C540094E356070BD1F
:100FA0000038024000700040195A4007003C0240DF
:100FB00088ED00E0FFFFF6FE103000240024F4006E
:100FC0000400002040787D01080000200948804787
:100FD00009480047FEE7FEE7FEE7FEE7FEE7FEE71B
:100FE000FEE7FEE7FEE7FEE704480549054A064B33
:100FF000704700009B0E0008AD010008880000202B
:1010000088060020880200208802002010B50446CF
:101010009848844208D10121084600F087FB00214E
:10102000012000F083FB76E09348844208D101213F
:10103000022000F07BFB0021022000F077FB6AE039
:101040008E48844208D10121042000F06FFB00216A
:10105000042000F06BFB5EE08948844208D1012146
:10106000082000F063FB0021082000F05FFB52E045
:101070008448844208D10121102000F057FB002150
:10108000102000F053FB46E07F48844208D1012144
:10109000202000F04BFB0021202000F047FB3AE02D
:1010A0007A48844208D10121402000F03FFB002112
:1010B000402000F03BFB2EE07548844208D101211E
:1010C000802000F033FB0021802000F02FFB22E085
:1010D0007048844208D10121801500F027FB0021CF
:1010E000A01500F023FB16E06B48844208D10121D3
:1010F000401500F01BFB0021601500F017FB0AE013
:101100006648844207D10121001500F00FFB002141
:10111000201500F00BFB10BDF0B50A46002100239E
:10112000002400BF3DE0012505FA01F3156805EA3A
:1011300003049C4234D105684F000326BE40B543EA
:10114000056015794E00B540066835430560157990
:10115000012D02D01579022D16D185684F00032686
:10116000BE40B543856055794E00B540866835432D
:101170008560456801268E40B5434560456896798F
:101180008E40B6B235434560C5684F000326BE4069
:10119000B543C560D5794E00B540C6683543C560D6
:1011A000491C1029BFD3F0BD4FF6FF71016000212B
:1011B000017141718171C171704708B54FF480327E
:1011C0000092009A0A430092009AC261C161009A9B
:1011D000C261C2690092C269009208BD0246002045
:1011E00013690B4201D0012000E000207047014646
:1011F000086980B270470246002053690B4201D053
:10120000012000E0002070470146486980B2704725
:1012100001837047418370470AB1018300E0418335
:1012200070474161704742694A4042617047F0B57A
:10123000002300244D07ED0E02FA05F3CE1000F155
:10124000200555F826504E07F70E0F26BE40B54331
:10125000CF1000F1200646F82750CE1000F12005EF
:1012600055F8265045EA0304CE1000F1200545F854
:101270002640F0BD00000240000402400008024089
:10128000000C02400010024000140240001802400E
:10129000001C0240002002400024024000280240BE
:1012A000F648006840F00100F44908600020F34966
:1012B00008310860F1480068F1490840EF490860CA
:1012C000F048091D0860F048EC4984310860ED4899
:1012D0001038091D0860E948006820F48020E749BB
:1012E00008600020E5490C310860E4498C31086051
:1012F00070470021E14A921C117011460870704736
:1013000010B501460022002300204A11012A02D113
:10131000DA4C236808E0022A03D1D84C70342368E1
:1013200002E0D64C7434236801F01F02012494407B
:101330001C4201D0012000E0002010BD38B5002083
:1013400000900024002500BF3120FFF7D9FF05469B
:101350000098401C00900098B0F5A04F01D0002DDF
:10136000F2D03120FFF7CCFF08B1012400E00024C7
:10137000204638BD01460020C04A106820F0F80021
:1013800040EAC10010607047C04908607047002102
:10139000BA4A703211701170012802D004280AD1A3
:1013A00004E00121B54A7032117005E00521B34A0D
:1013B0007032117000E000BF00BF7047B449086090
:1013C000704770B5049C41EA82150126C6EB5306AE
:1013D00045EA0645054345EA0465A84E361D3560D5
:1013E00070BDAA490866704710B5830143EA0163DE
:1013F00043EA0273A14C8434236010BDA34988667C
:10140000704710B5830143EA016343EA02739B4CC2
:101410008834236010BD9D49086770479B49C864A4
:10142000704702460020954B0833186820F0EC60A6
:1014300042EA01031843914B083318607047024693
:1014400000208E4B0833186820F0784042EA0103F0
:1014500018438A4B08331860704701460020874ABA
:101460000832106820F0030008431060704783487A
:101470000830006800F00C007047014600207F4AE9
:101480000832106820F0F0000843106070470146F1
:1014900000207A4A0832106820F4E05008431060B7
:1014A000704701460020754A0832106820F46040F9
:1014B00040EAC10010607047F0B50021002200240E
:1014C0000225002602236D4F08373F6807F00C0104
:1014D00021B1042905D0082937D105E06D4F0760F7
:1014E00036E06D4F076033E0644F3F1D3F68C7F340
:1014F0008056624F3F1D3F6807F03F036EB1664F55
:10150000B7FBF3F7DFF874C10CF1040CDCF800C092
:10151000CCF3881C07FB0CF40CE05E4FB7FBF3F731
:10152000DFF858C10CF1040CDCF800C0CCF3881CC7
:1015300007FB0CF4514F3F1D3F68C7F301477F1C69
:101540007D00B4FBF5F7076002E0524F076000BF73
:1015500000BF4A4F08373F6807F0F00109094F4FB5
:101560007A5C0768D7404760444F08373F6807F404
:10157000E051890A494F7A5C4768D74087603F4FFE
:1015800008373F6807F46041490B444F7A5C47686D
:10159000D740C760F0BD002100F44072B2F5407F33
:1015A0000AD1364A0832116821F4F8113C4A024047
:1015B0001143324A08321160304A70321268C0F367
:1015C0000B031A432D4B70331A607047304944396E
:1015D000086070472E4940390860704731490860FB
:1015E000704701460020254A8C32106820F01F0009
:1015F0004A1E1043214A8C32106070470146002079
:101600001E4A8C32106820F4F8504A1E40EA02202C
:101610001A4A8C321060704701460020174A8C32FB
:10162000106820F440100843106070470146002005
:10163000124A8C32106820F4400008431060704752
:10164000014600200D4A8C32106820F440300843D7
:101650001060704714490860704739B1074A30324A
:1016600012680243054B30331A6006E0034A3032F9
:1016700012688243014B30331A60704700380240D1
:10168000FFFFF6EA1030002400300020000047423F
:10169000800E47420024F40040787D0118000020AD
:1016A000FFFCFF0F5C014742E011474229B1894A24
:1016B00012680243874B1A6004E0864A126882432C
:1016C000844B1A60704739B1824A121D1268024376
:1016D000804B1B1D1A6006E07E4A121D1268824371
:1016E0007C4B1B1D1A60704739B17A4A0C32126864
:1016F0000243784B0C331A6006E0764A0C321268CB
:101700008243744B0C331A60704739B1714A1032FE
:10171000126802436F4B10331A6006E06D4A1032B4
:10172000126882436B4B10331A60704739B1694AB3
:10173000243A12680243674B243B1A6006E0654A6C
:10174000243A12688243634B243B1A60704739B1D4
:10175000604A203A126802435E4B203B1A6006E062
:101760005C4A203A126882435A4B203B1A60704709
:1017700039B1584A1C3A12680243564B1C3B1A6056
:1017800006E0544A1C3A12688243524B1C3B1A60D2
:10179000704739B14F4A143A126802434D4B143B1B
:1017A0001A6006E04B4A143A12688243494B143BD4
:1017B0001A60704739B1474A103A12680243454BE4
:1017C000103B1A6006E0434A103A12688243414BCC
:1017D000103B1A60704739B13E4A1C32126802430E
:1017E0003C4B1C331A6006E03A4A1C3212688243B2
:1017F000384B1C331A60704739B1364A20321268B0
:101800000243344B20331A6006E0324A2032126819
:101810008243304B20331A60704739B12D4A24324D
:10182000126802432B4B24331A6006E0294A243203
:1018300012688243274B24331A60704739B1254A16
:101840002C3212680243234B2C331A6006E0214AE3
:101850002C32126882431F4B2C331A60704739B107
:101860001C4A3032126802431A4B30331A6006E0C9
:10187000184A303212688243164B30331A60704770
:1018800039B1144A273A12780243124B273B1A7097
:1018900006E0104A273A127882430E4B273B1A7013
:1018A00070470C484030006840F080700949403172
:1018B0000860704701460020064A283A12680A422A
:1018C00001D0012000E0002070470249263908704D
:1018D000704700003438024010B50446F74884428F
:1018E00008D101218014FFF765FF0021A014FFF744
:1018F00061FF3CE0F248844208D101210014FFF767
:1019000048FF00212014FFF744FF30E0ED488442F7
:1019100008D10121C013FFF73CFF0021E013FFF7BE
:1019200038FF24E0E848844208D101214014FFF741
:1019300041FF00216014FFF73DFF18E0E3488442B7
:1019400009D101210805FFF735FF00214FF4801070
:10195000FFF730FF0BE0DE48844208D10121480543
:10196000FFF728FF00214FF40010FFF723FF10BD01
:1019700010B50022028802F441520B884C882343A0
:101980008C882343CC8823430C8923434C892343ED
:101990008C892343CC8923431A430280838B4FF2E3
:1019A000FF74234083830B8A038210BD2DE9F04F1F
:1019B0000025022300240127002200269446904699
:1019C0009146B0F81CA04FF2400B0AEA0B0AA0F8AF
:1019D0001CA04FF0020AA0F820A0858BD1F808A027
:1019E000BAF1020F01D100BF6AE0B1F804A0BAF168
:1019F000000F01D1012700E00227DFF8D8A2DAF8B2
:101A000000A01AF4000F09D0DFF8C8A2DAF800A08D
:101A10002AF4000ADFF8BCB2CBF800A0DFF8B4A2C9
:101A20000AF17C0ADAF800A0CAF38818DFF8A4A249
:101A30000AF17C0ADAF800A0CAF30279DFF894A26E
:101A4000AAF1040ADAF800A00AF03F0CDFF888A235
:101A5000BAFBFCFA0AFB08FABAFBF9F6B1F806A0E1
:101A6000BAF5007F0ED14FEA162A0AEB8A0A4FEA2E
:101A70004A0AD1F808B0BAFBFBFA0AF1050A1FFAC4
:101A80008AF20FE04FEA471AB6FBFAFA0AEB8A0A23
:101A90004FEA4A0AD1F808B0BAFBFBFA0AF1050A84
:101AA0001FFA8AF24FF00A0AB2FBFAF202F00104BE
:101AB000A2EB040ACAF34F034FF6FF7A0AEA0424A2
:101AC000022B01DBFF2B01DD02230024B1F806A06D
:101AD0004AEA040A4AEA030AA0F820A0B1F804A0DE
:101AE000B1F80CB04AEA0B0AB1F802B04AEA0B0AA4
:101AF000B1F800B04AEA0B0A4AF4006A4AEA05055E
:101B00008583BDE8F08F0021018041808180C18004
:101B1000018141818181C1810721018270470021BA
:101B2000018041808180C18002218160002181810A
:101B3000704721B1028842F04002028004E002882E
:101B40004FF6BF731A400280704721B1828B42F476
:101B50008062828304E0828B4FF6FF331A408283D7
:101B6000704702884FF2FF731A40028002880A43CE
:101B700002807047B1F5804F04D1028842F4804260
:101B8000028004E002884BF6FF731A40028070471F
:101B9000A1F57E42FF3A04D0028842F480720280AE
:101BA00004E002884FF6FF631A400280704721B1BB
:101BB000828842F00402828004E082884FF6FB7340
:101BC0001A408280704721B1828842F010028280E0
:101BD00004E082884FF6EF731A408280704730B578
:101BE00000220023848B4FF240052C408483022482
:101BF0000484828B0C88B4F5007F01D00C8814B962
:101C00004FF4807308E00C88B4F5407F03D00C8853
:101C1000B4F5807F00D100238C888D892C434D88BA
:101C20002C431C4344F400642243828330BD0146AC
:101C3000888970478181704721B1028842F400523F
:101C4000028004E002884DF6FF731A40028070475C
:101C5000018841F48051018070470246002001292B
:101C600001D0108B00E0908A70470146088A7047C7
:101C70001AB183880B43838002E083888B4383807F
:101C8000704730B5002400230C110125A540ABB2EC
:101C90001AB185881D43858002E085889D43858033
:101CA00030BD0246002013890B4201D0012000E024
:101CB00000207047CA430281704700000030014095
:101CC00000380040003C004000340140005001401A
:101CD000005401400838024040787D01F0B50246CA
:101CE000002000240023002501F00F070126BE403C
:101CF000B4B20B1101269E40B3B2968806EA0305E2
:101D00001689264202D00DB1012000E00020F0BD6E
:101D100010B5002201F00F040123A3409AB2D3436F
:101D2000038110BD704770477047754600F028F872
:101D3000AE4605006946534620F00700854618B0B8
:101D400020B5FFF751F9BDE820404FF000064FF0F5
:101D500000074FF000084FF0000B21F00701AC46E0
:101D6000ACE8C009ACE8C009ACE8C009ACE8C009FF
:101D70008D4670470446AFF300802046FEF75FFAB9
:101D8000004870472800002001491820ABBEFEE73C
:101D90002600020070474FF04070E1EE100A7047D5
:101DA000C01D00080000002028000000E801000815
:101DB000E81D00082800002060060000040200085A
:101DC000000000000095BA0A0000000000000000BA
:101DD00001020304060708090000000001020304D1
:081DE0000102030406070809D3
:04000005080001AD41
:00000001FF
