:020000040800F2
:1000000088810220C1010008511200085310000825
:100010004D120008990200083D1900080000000078
:10002000000000000000000000000000FD150008B6
:100030009D020008000000007D1200085117000812
:10004000DB010008DB010008DB010008DB01000820
:10005000DB010008DB010008DB010008DB01000810
:10006000DB010008DB010008DB010008DB01000800
:10007000DB010008DB010008DB010008DB010008F0
:10008000DB010008DB010008DB010008DB010008E0
:10009000DB010008DB010008DB010008DB010008D0
:1000A000DB010008DB010008DB010008DB010008C0
:1000B000DB010008DB010008DB010008DB010008B0
:1000C000DB010008DB010008DB010008DB010008A0
:1000D000DB010008DB010008DB010008DB01000890
:1000E000DB010008DB010008DB010008DB01000880
:1000F000DB010008DB010008DB010008DB01000870
:10010000DB010008DB010008DB010008DB0100085F
:10011000DB010008DB010008DB010008DB0100084F
:10012000DB010008DB010008DB010008DB0100083F
:10013000DB010008DB010008DB010008DB0100082F
:10014000DB010008DB010008DB010008DB0100081F
:10015000DB010008DB010008DB010008DB0100080F
:10016000DB010008DB010008DB010008DB010008FF
:10017000DB010008DB010008DB010008DB010008EF
:10018000DB010008DB010008DB010008DB010008DF
:10019000DB010008DB010008DB010008DB010008CF
:1001A000DB010008DB010008DB010008DFF80CD0F0
:1001B00000F060F8004800472943000888810220C9
:1001C0000648804706480047FEE7FEE7FEE7FEE7F1
:1001D000FEE7FEE7FEE7FEE7FEE7FEE75917000849
:1001E000AD01000840EA01039B0703D009E008C9FC
:1001F000121F08C0042AFAD203E011F8013B00F8EC
:10020000013B521EF9D27047D2B201E000F8012B37
:10021000491EFBD270470022F6E710B513460A4686
:1002200004461946FFF7F0FF204610BD30B50446DE
:100230000020034600E05B1C934203D2E05CCD5CEF
:10024000401BF8D030BD30B50B46014600202022BF
:10025000012409E021FA02F59D4205D303FA02F5D3
:10026000491B04FA02F52844151EA2F10102F1DC33
:1002700030BD0000064C074D06E0E06840F0010389
:1002800094E8070098471034AC42F6D3FFF792FF8A
:10029000C47B0008E47B000800BFFEE77047000055
:1002A000064909680144064A116000BF044909680B
:1002B000024A12689142F9D87047000004000020F9
:1002C0000C0000201FB5042001F02EFA684601F052
:1002D00049F864210198B0FBF1F4601EB0F1807F11
:1002E00000D30FE0601E4FF0E02148610F214FF076
:1002F000FF3000F0AFFF00204FF0E02188610720C1
:10030000086100BF0021481E00F0A4FF00F02AF998
:1003100000F0A0FB1021012000F08EFC10F0010F76
:1003200005D00648006840F010000449086001202C
:1003300000F0F1FD00F0EEFD1FBD000020000020E8
:1003400034480068006810F0004F1DD13148006843
:10035000006810F4807F17D02F4800688068401C28
:100360002D49096888602C4800688068012804D1FC
:100370002848006828490968086026480068264916
:10038000096848600120704722480068006810F042
:10039000004F1ED11F480068006810F4007F18D07D
:1003A0001C480068006810F4807F12D1194800686A
:1003B0001949096808600020174909684860012048
:1003C00015490968886013480068C06811490860C9
:1003D0001DE010480068006810F0004F17D10D486C
:1003E0000068006810F4007F11D10A4800680068B6
:1003F00010F4807F0BD1084800688068401C0649D3
:100400000968886003480068C068024908600020E5
:10041000B9E70000540000205800002030B107491F
:10042000896941F00201054A916105E00349896942
:1004300021F00201014A91617047000000900240E2
:1004400070B50C4613460021124D286000BF18E01D
:1004500000EB41124FF00045156044F2F455556031
:10046000C1EBC11505EB450504EB850595605D1EE7
:100470008D4204D900EB41152035D56000E0D060F5
:10048000491C9942E4D3044DE860044D044E3560A4
:1004900070BD000054000020009002408032022015
:1004A0005800002030B10749896941F40051054ADC
:1004B000916105E00349896921F40051014A916184
:1004C000704700000090024030B50C4613460021F2
:1004D0000F4D286000BF15E000EB41124FF480156E
:1004E0001560C1EBC11505EB450504EB850595606D
:1004F0005D1E8D4204D900EB41152035D56000E02A
:10050000D060491C9942E7D3024D286130BD0000FC
:10051000500000200090024002680A4302607047C9
:1005200010B50121480600F0BBFE00214FF000701D
:1005300000F0B6FE10BD000008B50020009008488D
:10054000806940F4801006498861084680690090FF
:100550000120FFF7A5FE02490098886108BD000050
:10056000009002401CB50121C72000F089FE012146
:10057000880300F0B5FE4FF48070009003208DF8E2
:10058000050002208DF8040000208DF806008DF88B
:1005900007006946404800F0EDFC00214FF4800060
:1005A00000F05CFF002001F02BF88F2000906946DE
:1005B000394800F0DFFC0B220021374800F022FD13
:1005C0000B220121344800F01DFD0B22022132488C
:1005D00000F018FD0B2203212F4800F013FD0B2221
:1005E00007212D4800F00EFD4FF450600090694641
:1005F0002A4800F0BFFC0B220821284800F002FD29
:100600000B220A21254800F0FDFC0B22114623484D
:1006100000F0F8FC3E2000906946214800F0AAFC5A
:100620000B2201211E4800F0EDFC0B2202211C4888
:1006300000F0E8FC0B220321194800F0E3FC0B2238
:100640000421174800F0DEFC0B220521144800F0BD
:10065000D9FC4FF4C04000906946124800F08AFC73
:100660000B220D210F4800F0CDFC0B220E210D486E
:1006700000F0C8FCC020009069460B4800F07AFCEE
:100680000B220621084800F0BDFC0B22072106487A
:1006900000F0B8FC1CBD0000000002400004024055
:1006A0000008024000180240001C024000200449DB
:1006B000096811F0010F01D0012000E0002070470F
:1006C000009002401EB50021002200920192029289
:1006D0000C4A12681268C2F30D42111F00910A4AB7
:1006E000126812680292084A1268126892680192AF
:1006F000044A1268D268034B1A609DE81C0080E827
:100700001C001EBD54000020580000202DE9F041BF
:1007100088B004460F464FF00008002500200790DF
:10072000B54E029001200190B448056925F01C05E2
:1007300003A800F017FE049EB148864205D3B148D5
:10074000864202D245F008051AE0AE48864205D33B
:10075000A948864202D245F00C0511E0A64886421F
:1007600003D3A948864200D20AE0A748864205D3AF
:10077000A648864202D245F0040501E045F0100586
:100780009E4805614FF400420021384600F00EFB00
:1007900010B9002001906AE0FF20FFF781FD20687A
:1007A000002850D000BF0298401C0290012138461A
:1007B00000F042FA10F0040F03D1954902988842E4
:1007C000F1D393490298884202D1002001904EE073
:1007D000002002904FF480520021384600F0E6FAE3
:1007E00008B90020019000BF0298401C029001212E
:1007F000384600F021FA10F0200F03D18449029806
:100800008842F1D382490298884202D100200190A7
:100810002DE0002002901021384600F00DFA8046AD
:1008200018F0040F03D04FF40060206201E00020B4
:10083000206218F0020F02D00020606116E04FF431
:100840008040606112E0206AC0F3CF006169C1F3AB
:100850004F0140EA01020021384600F0A7FA08B92A
:100860000020019040F6FF70FFF71AFD00BF0198CD
:1008700020B94FF400602062C00060615F480568E5
:1008800064480540D4E901010843E168084321694F
:10089000084361690843A1690843E1690843216A83
:1008A0000843616A0843A16A0843E16A0843216B6F
:1008B0000843616B08430543504805600568012003
:1008C000FFF7EEFC4D480560D4E90E010843216CAA
:1008D0000843616C0843A16C0843E16C0843216D37
:1008E0000843616D08434549486008464568012052
:1008F000FFF7D6FC414845604049A06D8860E06D37
:10090000C860084685694FF641700540B4F860102C
:10091000606E40EA0140A16E0843E16E0843216F1A
:100920000843616F084305433448856185690120A8
:10093000FFF7B6FC31488561D4E91E0108432F4911
:10094000C8610846C5690120FFF7AAFC2B48C561AC
:100950003148856931480540D4E920010843D4F87D
:1009600088100843D4F88C100843D4F8901008433A
:10097000D4F894100843D4F898100843D4F89C1085
:100980000843D4F8A01008430543234885618569CE
:100990000120FFF785FC20488561D4E9290108433F
:1009A000D4F8AC100843D4F8B0100843D4F8B4100D
:1009B00040EA8100D4F8B810084340F4000016491A
:1009C0000860084605680120FFF76AFC12480560C8
:1009D000006840F080001049086008460568012062
:1009E000FFF75EFC0C4805600198012802D108B0B1
:1009F000BDE8F0810020FAE7008793030080024001
:100A0000002D3101C00E160200E1F50580D1F0087D
:100A1000FFFF04000F8120FF00900240233FDEF81B
:100A200010B50B794C7943EA0422094B03441A644C
:100A3000CB781B068C7843EA04434C7843EA0423C2
:100A40000C7843EA0402024B03445A6410BD0000D0
:100A50000080024010B501214FF0606000F010FCF2
:100A6000FFF75EFD00F01EF900BFFFF71FFE012833
:100A7000FBD01E4800F040F901201C49086000200E
:100A8000C8614FF4007088620020C86288634864BF
:100A9000C864086548654FF4806048620020C1F86A
:100AA00080004FF00070C1F884000011C1F88C0084
:100AB0000020C1F89400C1F898000420C1F8A000FB
:100AC000C005C1F8A4004012C1F8A8008001C1F817
:100AD000AC004012C1F8B0004000C1F8B8000121DC
:100AE0000248FFF713FE0249086010BDEC00022027
:100AF0002000002038B504460020009034B10B4897
:100B0000006840F004000949086005E007480068F3
:100B100020F00400054908600448006800900120A6
:100B2000FFF7BEFB01490098086038BD0080024015
:100B300038B504460020009034B10B48006840F0FE
:100B400008000949086005E00748006820F008002F
:100B5000054908600448006800900120FFF7A0FBE9
:100B600001490098086038BD0080024070B5024617
:100B70000023002500242E480068006810F0004F74
:100B800001D0002070BD2A48016840F2F450824232
:100B900008DD92FBF0F392FBF0F600FB162010B19B
:100BA0005B1C00E00123012B0CD1086840F0405091
:100BB0000860C2F30C004860086840F0004008601C
:100BC000C96826E0002422E0086820F04050086050
:100BD0001CB9086840F08050086040F2F45048604A
:100BE000581EA0420DD1086840F000500860581E01
:100BF000C0EBC01000EB4000A2EB8005C5F30C0079
:100C00004860086840F000400860C968641C9C4265
:100C1000DAD3074801600748406910F0040F04D098
:100C20000420044E7061002070600120AAE70000DB
:100C3000500000200090024018B502460B460021EB
:100C4000002000901548016901F01C014FF4784024
:100C500000EAC22001434FF4F86000EA8310014328
:100C600021F0020141F001010C48016100BF009830
:100C7000401C00900948016911F0010F03D0084C95
:100C80000098A042F3D3064C0098A04201D1002066
:100C900018BD0248406980B2FAE7000000800240B7
:100CA000FFFF04000348006840F0010001490860AC
:100CB000704700000090024010B50120FFF738FF98
:100CC0000120FFF717FFFFF737FC0120FFF7EAFBD2
:100CD0000120FFF7A3FB10BD10B50020FFF7E2FBDA
:100CE0000020FFF79BFB0020FFF704FFFFF724FC29
:100CF0000020FFF71DFF10BD0121016000214160B0
:100D00008160C16001614FF48041416100218161D6
:100D1000C1614FF400610162002141628162C162E0
:100D2000016341638163C163402101642021416407
:100D300000218164C164016541658165C165016609
:100D40008021416600218166C16601674167816734
:100D5000C1674FF08061C0F880104910C0F884105E
:100D60000021C0F888104FF40011C0F88C10002149
:100D7000C0F89010C0F89410C0F89810C0F89C10FB
:100D8000C0F8A0104FF00071C0F8A4104912C0F8CC
:100D9000A8108901C0F8AC104912C0F8B0100021A9
:100DA000C0F8B410C0F8B8107047000038B503465A
:100DB0000C460021002000901448016901F01C013C
:100DC0004FF4784000EAC32001434FF4F86000EA92
:100DD0008410014341F0020141F001010B484261DE
:100DE000016100BF0098401C00900848016911F0A3
:100DF000010F03D0064D0098A842F3D3044D00988C
:100E0000A84201D1002038BD0120FCE7008002404B
:100E1000FFFF04007FB506460020039096F83100DE
:100E2000C0F3001000285DD034480068002843D08B
:100E3000002003904FF4805200210120FFF7B6FFFD
:100E400000BF0398401C039001210846FFF7F4FE01
:100E500010F0200F03D12A4903988842F1D30020D3
:100E6000039010210120FFF7E7FE044614F0040F61
:100E700004D04FF400602149086202E000201F49BD
:100E8000086214F0020F03D000201C49486103E0FF
:100E90004FF48040194948611A480568174840696D
:100EA0001649096A08430543164805600120FFF703
:100EB000F7F9144805680560FFF7FEFE0020029070
:100EC000019000900120104908706B4601AA02A908
:100ED0000E4803F08FFC0D4803F007FD00200C497D
:100EE00008700AE0FFF7F8FE052007490870304651
:100EF00001F042FD054803F097FC7FBDEC000220A5
:100F0000FFFF0400008002403C000020A8010220F6
:100F100024000020704770B50546002411212846A2
:100F2000FFF78AFE044644F00304224611212846B6
:100F3000FFF73CFF08B9002070BD12212846FFF7DB
:100F40007BFE044644F02004224612212846FFF787
:100F50002DFF08B90020EFE719212846FFF76CFEA6
:100F6000044644F02004224619212846FFF71EFFBC
:100F70000120E1E7F0B50A4600210023002400BF6C
:100F80003DE0012505FA01F3156805EA03049C42DA
:100F900034D105684F000326BE40B543056015797E
:100FA0004E00B5400668354305601579012D02D025
:100FB0001579022D16D185684F000326BE40B54332
:100FC000856055794E00B540866835438560456833
:100FD00001268E40B5434560456896798E40B6B28D
:100FE00035434560C5684F000326BE40B543C56024
:100FF000D5794E00B540C6683543C560491C1029F7
:10100000BFD3F0BDF0B5002300244D07ED0E02FA6A
:1010100005F3CE1000F1200555F826504E07F70EC7
:101020000F26BE40B543CF1000F1200646F82750EA
:10103000CE1000F1200555F8265045EA0304CE10E5
:1010400000F1200545F82640F0BD4183704701833B
:10105000704700BFFEE700001CB50121082000F02A
:101060000FF94FF40050009002208DF80500012088
:101070008DF8040000208DF806008DF80700694601
:101080000148FFF777FF1CBD000C02401FB5002090
:1010900000901D480078012802D0022831D109E0D3
:1010A000022019490870194801F0FAFB002018497C
:1010B000086027E015484068154908600846006840
:1010C00030B1032010490870104801F055FC17E0BA
:1010D0000E48406A407B042812DD04200A4908704B
:1010E0000A4801F049FC0B4803906FF07F400290E2
:1010F0000948019001AB02AA03A9044803F07AFB56
:1011000000E000BF00BF1FBD3C000020A80102207E
:1011100030000020C0A80167C0A8010100B587B059
:1011200003F09EF903F0E6FA002006900590049083
:1011300016481749002204ABCDE90021029005AA08
:1011400006A9144803F01EFB124803F067FB12487F
:10115000006811280ED10F4890F8310040F01000BF
:101160000C4981F83100084603F0BFFB01200B4910
:10117000087005E0074803F057FB05200749087091
:101180000749044803F0A8FB07B000BDE932000896
:10119000A1330008A8010220200000203C0000200C
:1011A000150E000801B5204900980968401AFA2870
:1011B00004D31D490098086006F0D4F91B49009833
:1011C0000968401A41F28831884204D317490098CF
:1011D000086001F0E7FF164900980968401AB0F569
:1011E000FA7F12D312490098086000F09FFE114860
:1011F0000078032809D00F480078042805D00D484E
:101200000078052801D0FFF741FF0B4900980968D5
:10121000401A4EF66021884204D3074900980860BE
:1012200000F006FD08BD0000280000202C00002072
:10123000340000203C0000203800002010B5024897
:1012400002F0C6F810BD0000A801022000BFFEE7B2
:101250007047000010B5002807DA0A07140E054A87
:1012600000F00F031B1FD45403E00A07130E024AB9
:10127000135410BD18ED00E000E400E070470000DA
:1012800029B1064A12680243044B1A6004E0034A7B
:1012900012688243014B1A607047000030380240E8
:1012A00029B1064A12680243044B1A6004E0034A5B
:1012B00012688243014B1A607047000010380240E8
:1012C00029B1064A12680243044B1A6004E0034A3B
:1012D00012688243014B1A60704700004038024098
:1012E00029B1064A12680243044B1A6004E0034A1B
:1012F00012688243014B1A60704700004438024074
:101300001448006840F001001249086000201149AB
:10131000083108600F4800680F4908400D4908600F
:101320000E48091D08600E480A49843108600B48C0
:101330001038091D08600748006820F4802005491E
:101340000860002003490C31086002498C310860B4
:101350007047000000380240FFFFF6EA103000241A
:1013600000300020F0B500210022002402250026D4
:101370000223324F3F6807F00C0121B1042905D048
:10138000082937D105E02E4F076036E02D4F076062
:1013900033E02A4F3F1F3F68C7F38056274F3F1F58
:1013A0003F6807F03F036EB1264FB7FBF3F7DFF856
:1013B0008CC0ACF1040CDCF800C0CCF3881C07FB3B
:1013C0000CF40CE01E4FB7FBF3F7DFF870C0ACF184
:1013D000040CDCF800C0CCF3881C07FB0CF4174F9E
:1013E0003F1F3F68C7F301477F1C7D00B4FBF5F743
:1013F000076002E0124F076000BF00BF0F4F3F6859
:1014000007F0F0010909104F7A5C0768D740476080
:101410000A4F3F6807F4E051890A0B4F7A5C47682E
:10142000D7408760054F3F6807F46041490B064F7E
:101430007A5C4768D740C760F0BD000008380240BA
:101440000024F40040787D013D0000200021024A84
:1014500011701146087070470238024002460020A1
:10146000044B186820F0EC6042EA01031843014B7A
:1014700018607047083802401CB501210846FFF784
:10148000FFFE4FF48070009003208DF805000220CD
:101490008DF8040000208DF806008DF807006946DD
:1014A0000548FFF767FD00214FF48000FFF7D6FFE6
:1014B0000120FFF7CBFF1CBD0000024021B10288D4
:1014C00042F04002028004E002884FF6BF731A40E7
:1014D000028070478181704710B50022028802F4B3
:1014E00041520B884C8823438C882343CC88234368
:1014F0000C8923434C8923438C892343CC89234380
:101500001A430280838B4FF2FF74234083830B8A3C
:10151000038210BD7CB504460D462C4951F82410B9
:101520002B4A52F8242041EA02000121FFF7A8FECD
:101530002CB9284951F824000121FFF7D1FE264B90
:1015400013F81420254B33F81410254B53F82400BE
:10155000FFF758FD234B13F81420234B33F81410D6
:10156000224B53F82400FFF74DFD00208DF80600B4
:1015700001208DF8070002208DF804001C4830F887
:101580001400009002208DF80500154951F8240040
:101590006946FFF7EFFC02208DF80400154830F88B
:1015A00014000090114951F824006946FFF7E2FC4D
:1015B000114951F82400294600F052F90E4951F81A
:1015C0002400012100F01EF97CBD0000C07A000853
:1015D000C47A0008BC7A0008D07A0008CC7A0008E7
:1015E00018000020D27A0008CE7A00081C000020E3
:1015F000C87A0008CA7A000814000020704700006A
:101600000149086070470000DC0027420CB500204B
:10161000019000904048006840F480303E490860E6
:1016200000BF3D48006800F4003000900198401C65
:101630000190009818B90198B0F5A04FF1D1364843
:10164000006810F4003F02D00120009001E000206B
:101650000090009801285DD12F484030006840F08C
:1016600080502D49403108602C48006840F44040CB
:101670002A4908602848083000682749083108606E
:101680000846006840F4004008600846006840F4DE
:10169000A05008602248091F0860081F006840F039
:1016A0008070091F086000BF1B48006810F0007FB1
:1016B000FAD01A48006840F480301849086000BF2A
:1016C0001648406810F4803FFAD01448006840F48F
:1016D00000301249086000BF1048406810F4003F15
:1016E000FAD040F205700F4908600B4808300068D6
:1016F00020F003000849083108600846006840F0FF
:101700000200086000BF04480830006800F00C00C8
:101710000828F8D10CBD00000038024000700040DD
:10172000195A4007003C0240042808D14FF0E0213C
:10173000096941F004014FF0E022116107E04FF028
:10174000E021096921F004014FF0E02211617047A6
:1017500010B500F035F810BD10B51548006840F41C
:101760007000134908601348006840F001001149F7
:10177000086000200F49083108600E4800680E49D3
:1017800008400C4908600D48091D0860081F0068E2
:1017900020F48020091F0860002006490C310860F1
:1017A000FFF734FF4FF0006001498039086010BD39
:1017B00088ED00E000380240FFFFF6FE1030002404
:1017C000024800680A3001490860704704000020A0
:1017D0001CB501218020FFF753FD08200090022056
:1017E0008DF8050001208DF8040000208DF806001A
:1017F0008DF8070069460248FFF7BCFB1CBD0000DE
:10180000001C024021B1828942F40052828104E02E
:1018100082894DF6FF731A40828170471FB54FF4DD
:10182000612000900020ADF80400ADF80600ADF88E
:101830000800ADF80C000C20ADF80A006946002045
:10184000FFF768FE1FBD02460020B1F5007F00D102
:1018500000BF13880B4201D0012000E00020704738
:101860002DE9FF4705460E460024A14600BFA046CD
:10187000B08900B100BF2C8A24F44054F08804439E
:101880002C82AC8941F20C608443B08831890843D2
:10189000718908430443AC81AC8A24F44074B08954
:1018A0000443AC826846FFF75DFD2048854202D0C4
:1018B0001F48854202D1DDF80C9001E0DDF8089068
:1018C000A88910F4004F08D009EBC90000EB0910FB
:1018D00031684900B0FBF1F707E009EBC90000EB04
:1018E000091031688900B0FBF1F76420B7FBF0F014
:1018F00004012009642101FB1078A88910F4004F2D
:1019000008D0322000EBC800B0FBF1F000F0070077
:10191000044308E0322000EB08106421B0FBF1F032
:1019200000F00F0004432C81BDE8FF870010014048
:1019300000140140C1F308028280704700BFFEE737
:101940000FB4054B10B503A9044A029800F020F823
:1019500010BC5DF814FB0000FD330008E800002017
:1019600002E008C8121F08C1002AFAD17047704768
:10197000002001E001C1121F002AFBD1704702467E
:10198000002102E000BF00BF491C9142FAD370471A
:101990002DE9FF4F89B09B460446002597E0252896
:1019A00033D10027641C4E49B84601222378203BDE
:1019B00002FA03F0084202D00743641CF6E72078DD
:1019C0002E2819D114F8010F47F004072A280ED049
:1019D0006FF02F022078A0F1300109290CD808EB14
:1019E000880102EB410100EB0108641CF2E70A9850
:1019F000641C50F8048B0A90207800286BD064286F
:101A000008D0692806D0752820D05A460B999047EF
:101A10006D1C5BE00A994FF00A0901C90A91002880
:101A200004DAC0F100004FF02D0102E0390504D5C1
:101A30002B218DF82010012103E0F90704D020218B
:101A4000F7E78A4608AE0EE00021FAE70A994FF060
:101A50000A0901C90A91F7E74946FEF7F4FB01F1CB
:101A6000300106F8011D0028F6D1ADEB060000F1AB
:101A70002009780701D44FF00108C84502DDA8EB22
:101A8000090000E000208046002706E008A85A462A
:101A9000C05D0B9990476D1C7F1C5745F6DB04E039
:101AA00030205A460B9990476D1CB8F10001A8F1FF
:101AB0000108F5DC05E016F8010B5A460B99904732
:101AC0006D1CB9F10001A9F10109F4DC641C207856
:101AD00000287FF464AF0DB02846BDE8F08F000009
:101AE0000928010070B504460D4600BF04B970BD59
:101AF00000BF606A58B1606A007B082807D1286877
:101B0000616A496A884202D1204600F057F900BF55
:101B1000EDE77CB5064600BF06B97CBD00BF746A20
:101B200000BF04B9F9E700BF606B401C0ED0606BCA
:101B30001E303C21B0FBF1F5B5F5803F01D34FF6E7
:101B4000FF75A583A08B08B90120A083A06B401C62
:101B50000ED0A06B1E303C21B0FBF1F5B5F5803FF7
:101B600001D34FF6FF75E583E08B08B90120E083D0
:101B7000A08BE18B884204DBE08B002801DD002094
:101B8000A083A07B10B1A06A019010E094F824001B
:101B90007F2802DCFF21019108E0C02803DB6FF001
:101BA0007F41019102E04FF6FF71019100BFE06AB1
:101BB0000090684608B1009838B9606A01990840F9
:101BC0000090009840F08070009004F124013046AD
:101BD00002F046FE01A9304602F081FE6946304619
:101BE00002F037FE304602F080FE0A21204600F067
:101BF0004FFE00BF91E72DE9F04105466C6A0821D0
:101C0000204600F045FE002204F12401284601F0A0
:101C10008FF90746607B401C60734FF4FA7606F23A
:101C2000F310314690FBF1F06083BDE8F0810000D5
:101C300010B50F48046817E0606AA0B1606AC18BF4
:101C4000481E626AD083012903D1204600F0C1FEFC
:101C500009E0606A818B481E626A9083012902D183
:101C6000204600F0A6FE2468002CE5D110BD00003F
:101C7000700000202DE9F04106460C46174600BFD3
:101C80001EB96FF00D00BDE8F08100BF00BF14B9B0
:101C90006FF00500F7E700BF00BF00BF00BF00BF47
:101CA00000224FF49A71104602F03AFE206120693A
:101CB00010B94FF0FF30E6E700BF00BF607B20B9EE
:101CC0003C480068401C3B4908603A480068206076
:101CD000206940686061012061690870616948702D
:101CE00096F82A006169887000206169C8702068D0
:101CF00002F0CCFA6169486000206169088161697D
:101D000048816169C860082F09D0042F07D0032FCC
:101D100008D1207B052802D0207B042802D17068DE
:101D20006169C86000206169086161694861616931
:101D3000886100250DE096F82A00A84203DD06F12F
:101D40002B00405D00E0002061691C314855681C93
:101D500085B2102DEFD3002505E0002160692C30FD
:101D60004155681C85B2402DF7D3002505E00021C0
:101D700060696C304155681C85B2802DF7D30E48E0
:101D80006169C1F8EC0000202083002504E060694F
:101D9000F0304555681C85B2442DF8D30122352119
:101DA000204600F053F93946204600F05FF9002044
:101DB00069E7000060000020638253632DE9F84367
:101DC00005466C6A00260C21204600F061FD0422C5
:101DD00021462846FFF74EFF0646FEB9042232216F
:101DE000204600F033F9606A02F063FA804641460B
:101DF000204600F044F9204600F073F9228BF032BF
:101E000091B2206902F0E6FF009543230B4A216955
:101E1000606805F0EBFD204600F012F8607B401C86
:101E2000607342F2107707F2F3104FF4FA7190FBEF
:101E3000F1F060833046BDE8F88300004C7B000879
:101E400010B5044600BF04B910BD00BF00BF00BFFD
:101E500000BF00BF206910B1206902F039FF0020E7
:101E60002061606100BFEFE7F8B505466C6A0026A7
:101E7000002060620621204600F00AFD0122214672
:101E80002846FFF7F7FE0646002E30D10222392100
:101E9000204600F0DBF8298D204600F011F90422DD
:101EA0003721204600F0D2F80121204600F0DEF86C
:101EB0000321204600F0DAF81C21204600F0D6F875
:101EC0000621204600F0D2F8204600F00AF9228BC5
:101ED000F03291B2206902F07DFF00954323124A4F
:101EE0002169606805F082FD2046FFF7A9FF607B4D
:101EF000401C6073607B062803DA617B0120884008
:101F000000E03C2000EB4001C1EBC0104FF6FF7138
:101F100001EAC00707F2F3104FF4FA7190FBF1F0F9
:101F200060833046F8BD00004C7B000810B50F48B8
:101F3000046818E0606AA8B1606A408B012805DD7A
:101F4000606A408B401E616A48830BE0606A408B88
:101F5000012807D1606A408B401E616A4883204691
:101F600000F047FD2468002CE4D110BD7000002073
:101F700070B505466C6A0020A062E0621848C0781F
:101F800010B11848C06820631548007918B1154889
:101F90000069606302E0206B40086063104840798C
:101FA00018B110484069A06301E0206BA063A068ED
:101FB000006960620A48807938B10A49886902F08C
:101FC00065F9A0620120A07301E00020A07304481D
:101FD000C07920B10349C86902F058F9E06270BDC8
:101FE000B43202208C32022070B50446656A204665
:101FF00002F01AFC0949204602F032FC074920464B
:1020000002F027FC0549204602F069FC0C21284615
:1020100000F03EFC2046FFF727FF70BD487B00081C
:1020200070B505466C6A0748807850B106498868E3
:1020300002F02CF92062A06800696062284600F076
:10204000ADFB70BDB43202208C32022010B500BF4F
:1020500000BF048B631C03834369F0331955048B61
:10206000631C03834369F0331A5510BD00BF00BFE2
:10207000038B5A1C02834269F032D154704710B569
:1020800000BF00BF0B0E048B621C02834269F0325A
:102090001355C1F30743048B621C02834269F0327B
:1020A0001355C1F30723048B621C02834269F0328B
:1020B0001355048B621C02834269F032115510BD26
:1020C00010B500BF00BF0B0A048B621C028342697B
:1020D000F0321355048B621C02834269F0321155B1
:1020E00010BD00BF00B9704700BF00BF00BF00BFF8
:1020F00000BFFF22038B591C01834169F031CA5490
:1021000006E00022038B591C01834169F031CA5457
:10211000018B442903D3017E11F0030F02D0018B00
:102120004429EED300BFDEE72DE9F34F89B089469D
:102130000020069005900A21BE48FEF76CF8B9F819
:102140000A002C2804DA6FF001000BB0BDE8F08F14
:10215000D9F80410099881604FF0F00BB9F8080025
:10216000079000BF4C460AE06089ABEB00001FFA05
:1021700080FB61890798401A80B20790246814B1E7
:1021800060895845F0DD14B96FF00100DDE75F4666
:10219000DDF81CA06068089017E10898C05D049005
:1021A00000264FF0FF38B81C80B203906189781C7C
:1021B000814203DD791C0898455C07E0206818B16E
:1021C00020684068007800E0002005462E4604980C
:1021D000342856D00BDC032822D003DC80B1012840
:1021E00073D113E0062826D033287DD13FE035286F
:1021F00051D0362859D03A2861D03B2874D169E0B3
:10220000002005460646781E87B26FE000BF042D09
:1022100002D06FF0050098E700BF4FF0060865E0B8
:10222000042600BFB54202DA6FF005008DE700BF5B
:102230004FF007085AE000BFE91705EB91718910CC
:10224000B5EB810102D06FF005007EE700BF082DDD
:1022500001DA284600E00820064600BFB54202DA4F
:102260006FF0050071E700BF4FF008083EE000BFC7
:10227000042D02D06FF0050067E700BF4FF00308A0
:1022800034E000BF012D02D06FF005005DE700BF14
:102290004FF000082AE000BF012D02D06FF00500CA
:1022A00053E700BF4FF0010820E000BF042D02D02B
:1022B0006FF0050049E700BF4FF0020816E000BFCD
:1022C000042D03D06FF005003FE70DE000BF4FF095
:1022D00004080BE000BF042D02D06FF0050034E7C6
:1022E00000BF4FF0050801E0002600BF00BFA81C9A
:1022F000384487B2002E50DD0020029000BF00BF9E
:1023000000BF4C4810F8080098BB042E01DA304694
:1023100000E00420019002A92046039B019A02F0EC
:102320008EFC042E1EDD00BFF11706EB91718910A3
:10233000B6EB810102D06FF0050006E700BF012077
:102340003C4901F80800029801F0A0FF3A4941F821
:102350002800301FC6B20398001D80B2039008F118
:102360000108CCE7042E05D1029801F0A2FF0290EB
:102370000AE011E000BF012E02D06FF00500E4E694
:1023800000BF9DF80800029001202A4901F80800CA
:102390002949029841F8280000BF6089B84213DC3F
:1023A0006089381A87B26089AAEB00001FFA80FAA8
:1023B000574508DABAF1000F05D0246800BF00BF06
:1023C0006068089000E008E000BF34B10898C05D84
:1023D000FF2802D05745FFF6E0AE00BF1548007851
:1023E000A0B1154908680021124A1170012802D1D4
:1023F0000121069109E0022802D10121059104E0A2
:10240000032802D101210591069100BF069830B141
:10241000002006904FF06C0BEC200790A2E6059888
:1024200030B1002005904FF02C0B6C20079099E6FE
:1024300000208AE6B43202208C320220F8B505462C
:102440006C6A0421204600F023FA03222146284624
:10245000FFF710FC0646DEB9022239212046FFF7BD
:10246000F5FD298D2046FFF72BFE2046FFF739FEAC
:10247000228BF03291B2206902F0ACFC009543232C
:102480000F4A2169606805F0B1FA2046FFF7D8FCD1
:10249000607B401C6073607B0A2805DA607B4FF428
:1024A0007A7110FB01F001E042F2107087B207F27E
:1024B000F3104FF4FA7190FBF1F060833046F8BDF1
:1024C0004C7B00082DE9F84305466C6A0321204641
:1024D00000F0DEF9032221462846FFF7CBFB064633
:1024E0004EBB022239212046FFF7B0FD4FF4107198
:1024F0002046FFF7E5FD042232212046FFF7A6FD26
:10250000606A01F0D6FE804641462046FFF7B7FDDF
:102510002046FFF7E6FD228BF03291B2206902F0EF
:1025200059FC00954323104A2169606805F05EFA62
:102530002046FFF785FC607B401C6073607B0A28A7
:1025400005DA607B4FF47A7110FB01F001E042F292
:10255000107087B207F2F3104FF4FA7190FBF1F0AC
:1025600060833046BDE8F8834C7B00082DE9F05FBE
:1025700081461546DDF828B04F467C6AD5F804A0A0
:1025800000BF00BF68892C2800DA63E09AF80000D9
:10259000022800D05EE000260AE007F12B00815DF2
:1025A0000AF11C00805D814200D053E0701CC6B26D
:1025B00097F82A00B042F0DCDAF8040001F079FE66
:1025C0002168884200D045E029462046FFF7ACFD4F
:1025D00000B13FE02348407800B93BE0224890F842
:1025E0000480B8F1050F16D1207B012806D13846AA
:1025F000FFF7BEFC3846FFF7FEFA2AE0207B0328EF
:1026000005D0207B042802D0207B052821D1384624
:10261000FFF77FFA1DE0B8F1060F0FD1207B0328EA
:1026200008D0207B012805D0207B042802D0207B05
:10263000052803D13846FFF7D7FC0AE0B8F1020FAE
:1026400007D1207B062804D1002060833846FFF79D
:10265000E7FC00BF0020A060284602F039FBBDE87F
:10266000F09F0000B43202208C320220F8B50546FB
:102670006C6A0021204600F00BF9002020626062A5
:10268000A062E062A06360632063072221462846BF
:10269000FFF7F0FA06469EB92046FFF722FD228B8F
:1026A000F03291B2206902F095FB0095432304F1CA
:1026B00020022169606805F099F92046FFF7C0FB08
:1026C000607B401C6073607B0A2805DA607B4FF4F6
:1026D0007A7110FB01F001E042F2107087B207F24C
:1026E000F3104FF4FA7190FBF1F06083284602F08A
:1026F0009BF80749284602F0B3F80549284602F03E
:10270000A8F80349284602F0EAF83046F8BD000070
:10271000487B0008F8B505466C6A0521204600F0A4
:10272000B7F8032221462846FFF7A4FA0646E6B981
:10273000022239212046FFF789FC298D2046FFF728
:10274000BFFC2046FFF7CDFC228BF03291B220690E
:1027500002F040FB0095432304F1200221696068E8
:1027600005F044F92046FFF76BFB607B401C60736B
:10277000607B0A2805DA607B4FF4FA6110FB01F0F8
:1027800001E044F6206087B207F2F3104FF4FA71CB
:1027900090FBF1F060833046F8BD00002DE9F8436E
:1027A00005466C6A0121204600F072F8032221469A
:1027B0002846FFF75FFA0646002E4AD10222392149
:1027C0002046FFF743FC298D2046FFF779FC0422C1
:1027D00032212046FFF73AFC606A01F06AFD80462C
:1027E00041462046FFF74BFC042236212046FFF7E6
:1027F0002DFC206A01F05DFD804641462046FFF732
:102800003EFC042237212046FFF720FC0121204610
:10281000FFF72CFC03212046FFF728FC1C21204653
:10282000FFF724FC06212046FFF720FC2046FFF797
:1028300058FC228BF03291B2206902F0CBFA00955D
:102840004323124A2169606805F0D0F82046FFF75B
:10285000F7FA607B401C6073607B062803DA617BBB
:102860000120884000E03C2000EB4001C1EBC0109B
:102870004FF6FF7101EAC00707F2F3104FF4FA7147
:1028800090FBF1F060833046BDE8F8834C7B000894
:10289000027B8A4203D00173002242734283704755
:1028A00070B50546002600BF15B96FF00D0070BD6C
:1028B00000BF55F8244F687B20F008006873687BE0
:1028C000A5F1240510F0200F02D16FF00D00EEE706
:1028D000288DB0F5107F02DA4FF0FF30E7E74CB9F2
:1028E0003C2001F0EBFD044614B94FF0FF30DEE769
:1028F0006C6208E0606810B1606805F057F800BFCE
:1029000000BF00BF00BF3C212046FDF784FC05F05E
:102910000FF86060606810B94FF0FF30C7E760687B
:10292000007A40F020006168087244221049606813
:1029300004F0A4FE43220E49606804F0DFFE2A463C
:102940000C49606805F02EF82846FFF78DFA064618
:102950002EB1284600F010F84FF0FF30A7E795F8A9
:10296000310040F0080085F8310030469FE7000054
:10297000487B00086D25000870B5054600BF05B905
:1029800070BD00BF6C6A95F8310020F0080085F832
:10299000310064B1606820B1606805F007F800207C
:1029A000606000BF00BF00212046FFF771FF00BF3D
:1029B000E6E770B505466C6A207B012805D0207BD0
:1029C0000A2802D0207B052802D12846FFF7A2FE64
:1029D00070BD70B505466C6A207B012805D0207B50
:1029E0000A2802D0207B052802D12846FFF726FDC1
:1029F00070BD70B505466C6A207B0C2802D0207B28
:102A0000062803D12846FFF72FFA43E0207B012850
:102A10000DD1607B052803DC2846FFF7BFFE39E0B7
:102A20002846FFF723FE2846FFF71EFA32E0207BF8
:102A300008280AD1607B012803DC2846FFF7DBF871
:102A400028E02846FFF765F824E0207B052803D11D
:102A50002846FFF75FFE1DE0207B04280DD1607B38
:102A6000082803DC2846FFF7E9FC13E02846FFF7B7
:102A7000FDFD2846FFF7F8F90CE0207B032809D17B
:102A8000607B022803DA2846FFF71CFD02E0284697
:102A9000FFF7EAF970BD2DE9FC4705468846164662
:102AA00000BF0DB9BDE8FC8700BF70892A2803DA92
:102AB000304602F00DF9F5E7776807F10E0420883B
:102AC000B0F5807F08D12079062805D160790428E7
:102AD00002D16088082803D0304602F0F9F8E1E717
:102AE000D4F80E000190A0690090281D01D06868FC
:102AF00010B94FF0000907E000986968884201D1D9
:102B0000012000E000208146B9F1000F01D0012032
:102B100000E00220034604F1080201A9284600F063
:102B200087FBE088B0F5807F03D0B0F5007F31D11E
:102B30002BE0B9F1000F26D0022001F0B4FBE080B9
:102B4000D4F80E00A0616868C4F80E0000BF00BF92
:102B5000A068C4F81200A089E082A0683860A0894B
:102B6000B880D8F80000A060B8F80400A081D8F8B8
:102B70000000C7F80600B8F80400788131462846FE
:102B8000AA69904700E000BF05E001A92846FEF7CA
:102B9000A9FF00E000BF00BF304602F099F800BF77
:102BA00080E7000070B50546002412E004EB8400C5
:102BB000094901EB8000867C4EB104EB840001EBF7
:102BC00080008068A84202D1204600F0B7F8601C5F
:102BD000C4B20A2CEADB70BDBC7C02202DE9FC5F8C
:102BE00005460F464FF00A08C1460A260024A346B0
:102BF00000200190B246009000BF5CE004EB84002E
:102C00004D4A02EB8000817C0A2E02D109B966B2DE
:102C10004FE000294DD000BF00BF5DB104EB84023E
:102C2000454B03EB820228685268904202D160B2A1
:102C3000BDE8FC9F012928D104EB84003E4A52F8EC
:102C4000200088B104EB840002EB8000C27C009875
:102C500082422EDB4FFA84FA04EB8400364A02EB00
:102C60008000C07C009024E004EB8400324A02EB38
:102C70008000C07C58451CDB4FFA84F804EB8400CC
:102C800002EB800090F813B013E0022911DB04EB93
:102C90008400294A02EB8000C27C0198824208DB52
:102CA0004FFA84F904EB8400234A02EB8000C07CD5
:102CB0000190601CC4B20A2CA0DB17F0020F04D1F3
:102CC0000A2E05D117F0010F02D14FF0FF30AFE708
:102CD0000A2E01DAF4B21AE0B9F10A0F03DA09F0A8
:102CE000FF0400BF0EE0B8F10A0F02DA08F0FF049B
:102CF00008E0BAF10A0F02DA0AF0FF0402E04FF02E
:102D0000FF3095E700BF00BF204600F017F800BF76
:102D100000BF00BF00BF35B104EB8401064A02EBDF
:102D2000810128684860002004EB8401024A02EB1C
:102D30008101C87460B27BE7BC7C022010B50446F8
:102D400004EB84000C4951F8200060B104EB8401CD
:102D5000094A52F8210001F0BBFF002004EB840176
:102D6000054A42F82100002004EB8401024A02EBEC
:102D70008101887410BD0000BC7C02202DE9FC4755
:102D800004460F461546A94600BF00BF00BF00BF5E
:102D900000BF00BF0E21384601F0DDFF18B16FF013
:102DA0000100BDE8FC872146286800F067FC10B1EF
:102DB000DFF8048177E0287800F0F000E02815D1F2
:102DC00001208DF8000000208DF801005E208DF8B4
:102DD0000200687800F07F008DF80300A8788DF875
:102DE0000400E8788DF80500E8465BE02868A168F3
:102DF0000840D4E901121140884210D0288880B2DE
:102E0000A0F57E41A9390AD014F10C0004D0E06885
:102E100010B104F10C0902E06FF00300C1E727488C
:102E2000007800EB8000264901EB8000807C0228BE
:102E300012DB2249097801EB8101214A02EB810171
:102E4000D9F800004968884206D11C480278394602
:102E5000204600F037F8A4E700261BE006EB8600CA
:102E6000174901EB8000807C022811DB06EB86010C
:102E7000134A02EB8101D9F800004968884207D162
:102E80000E490E70F2B23946204600F01BF888E772
:102E9000701C46B20A2EE1DB3A464946204600F055
:102EA00047F87EE700BF434604F12B02394620462F
:102EB00000F05CF975E70000507B0008E600002098
:102EC000BC7C022070B505460E46144600BF00BF0C
:102ED00004EB8400154901EB8000807C022817D1A7
:102EE00004EB840001EB8000C07CE42810DB04EBE1
:102EF00084000A4602EB8000011D284600F020F9FC
:102F000030B9032004EB8401084A02EB8101887484
:102F100004EB8400054901EB800000F10C0305F18E
:102F20002B023146284600F021F970BDBC7C0220FE
:102F30002DE9F05F80460E46174608F12B094FF049
:102F4000FF3A4146306800F099FB38B9307800F01C
:102F5000F000E02802D00EB1306818B96FF00D0013
:102F6000BDE8F09F01213046FFF738FE0446002CF3
:102F700001DA2046F4E704EB8400424901EB8000CB
:102F8000807C30B9012004EB84013E4A02EB8101D0
:102F9000887400BF00BF04EB84003A4901EB800055
:102FA000807C012800D03FB93146404600F0C8F887
:102FB00082460FB95046D3E700BF00BF04EB840040
:102FC000304901EB8000807C02280FDB2E490C7019
:102FD00004EB84002B4901EB800000F10C034A460E
:102FE0003946404600F0C2F8824648E004EB8400CF
:102FF000244901EB8000807C012840D14FF0000B78
:103000003D4608E000BF00BF287B012802D04FF0FA
:10301000010B02E02D68002DF4D100BFBBF1000FC1
:1030200010D029890022032001F07AFC05466DB1F9
:103030003946284601F0A3FD40B1284601F048FE7C
:10304000002503E03D46284601F000FFA5B104EB52
:1030500084000C4951F8200030B104EB8401094A86
:1030600052F8210001F034FE04EB8400054941F8D8
:1030700020504FF0000A01E04FF0FF3A00BF5046E9
:103080006EE70000BC7C0220E60000202DE9F84F2E
:103090000746884691469A46DDF828B00020009001
:1030A00000BF00BF00222A21032001F039FC0546A1
:1030B0001DB94FF0FF30BDE8F88F00BF00BF6E684C
:1030C00006F10E040D9801F0EEF8E08000BF00BF9D
:1030D000DAF80000A060BAF80400A0810B9801683B
:1030E000C4F812108088E082D9F800003060B9F886
:1030F0000400B080D8F80000C6F80600B8F8040054
:103100007081DBF80000C4F80E000C980068A06124
:103110004FF48070208008206080062020710420F9
:1031200060714FF4C160B08129463846BA69904752
:103130000090284601F0CCFD00250098BBE7000078
:103140007FB504460D460121064A201D04F12B03DC
:103150008DE825000391044A19462046FFF796FFA3
:1031600004B070BD567B0008507B00082DE9F0418B
:1031700005460E4617469846746800BF00BFD8F84B
:1031800000002060B8F80400A0803868C4F8060089
:10319000B88860810820A08131462846AA699047F6
:1031A000BDE8F08170B500243DE004EB84001F49C8
:1031B00001EB8000857C25B304EB840001EB8000EB
:1031C000C07C401C04EB8401184A02EB8101C874E6
:1031D00004EB8400114601EB8000C07CF0280DDA7E
:1031E00004EB840001EB8000807C01280AD104EB11
:1031F000840001EB8000C07C022803DB2046FFF73F
:103200009DFD0EE004EB8400084901EB8000807C0A
:10321000032806D1022004EB8401044A02EB810159
:103220008874601CC4B20A2CBFDB70BDBC7C022059
:103230002DE9F04706460D461746984600BF00BFE9
:103240005DB1286848B13146286800F017FA20B906
:10325000287800F0F000E02803D16FF00D00BDE801
:10326000F08741462846FFF7B9FC0446002C01DAF6
:103270002046F4E7022004EB84011A4A02EB8101A4
:10328000887404EB8400114601EB8000866004EB37
:10329000840001EB80003968C160B9880182002098
:1032A00004EB840102EB8101C87404EB8400114635
:1032B00051F8200098B104EB840051F820900020D0
:1032C00004EB840142F821003B4606F12B024946FB
:1032D0003046FFF74BFF484601F0FAFC00BF0020E4
:1032E000BDE70000BC7C02202DE9F04104460E46FB
:1032F0004FF00E0860890E2800DC49E06568AF8950
:10330000287810F0010F16D02878012809D16878A4
:1033100088B9A8785E280ED1607B40F010006073F9
:1033200009E006221D492846FCF780FF18B9607B9A
:1033300040F008006073082F03D0B7F5C16F22D1A9
:1033400014E096F8310010F0200F00D120E0C8F111
:10335000000001B2204601F0FEFC10B100BF00BF2A
:1033600016E03146204600F095FA0DE096F831005F
:1033700010F0200F00D10BE0224606F12B01304661
:10338000FFF789FB00E003E000BF0020BDE8F0810B
:10339000204601F09DFC0020F8E70000507B00086B
:1033A00010B5044600BF00BF732084F832007421BA
:1033B00033200155044860610448A061204600F0B4
:1033C00045FE002010BD00007D2D0008AD41000825
:1033D00070B50446204600F079FE064616B94FF057
:1033E000FF3070BD2146304622699047054615B131
:1033F000304601F06DFC2846F3E7000070B5044646
:103400000D46E1B20548FEF795FA00BF402103489A
:10341000FEF719FA0028F9D0204670BD00100140CF
:1034200070B505460C4622460321284600F0B0F848
:1034300070BD00002DE9FE4F044689466568287876
:1034400000074FEA9068C8F10001204601F083FCB4
:1034500010B92089042800D28DE0606890F800A09F
:10346000BAF1000F03D0BAF1080F7ED100E07DE081
:1034700001264548007800F0F000E02800D1002641
:1034800041490868494600F0F9F800B1002626B91C
:10349000204601F01DFCBDE8FE8F2089082800D2DF
:1034A00069E0204600F0BFF818B1204601F010FC9A
:1034B000F1E72221204601F04EFC48B34146204668
:1034C00001F049FC10B100BF00BF58E02189002283
:1034D000022001F025FA064606B950E000BF00BF01
:1034E0002146304601F04BFB10B100BF00BF46E063
:1034F0007568C8F1000001B2304601F02CFC10B133
:1035000000BF00BF3BE0204601F0E2FB344608E08C
:103510006FF02101204601F01EFC10B100BF00BF7A
:103520002DE0676818480068E8601848006828615E
:10353000002038707880FF20287200206881414682
:10354000204601F008FC10B100BF0DE00DE00120A5
:103550000021FF230A46CDE9010900910A492046CE
:1035600000F092FA064600BF00E000BF00BF204610
:1035700001F0AEFB8FE7204601F0AAFB8BE7204667
:1035800001F0A6FB00BF86E7D8000020D400002091
:103590002DE9FE4306460F469046002224210120D5
:1035A00001F0BEF905460DB9BDE8FE8300BF00BFBE
:1035B000D6F804906C68277084F801800020A08001
:1035C000E08071686A6802F108001C22FCF70AFEBC
:1035D000002060806989204600F01BF86080D9F8DF
:1035E0000C00029001200021FF2302AACDE9001067
:1035F000284600F02DFA284601F06AFB00BFD3E709
:1036000070B505460C4622460B212846FFF7C0FF41
:1036100070BD70B504460D462946204600F055FEA3
:10362000C04380B270BD2DE9F0410646002400275A
:10363000354617E06989686800F047FE0444A0B287
:1036400000EB1444688900EBD0714910B0EB4101E4
:1036500007D0C7F10100C7B2E0B2C4F3072141EAC5
:1036600000242D68002DE5D127B1E0B2C4F3072175
:1036700041EA0024E04380B2BDE8F08118B502467B
:103680000092D04300D00AB9012018BD91F8310052
:1036900010F0020F01D10020F7E74868904201D1F5
:1036A0000020F2E700988B681840D1E901342340EC
:1036B000984208D1886822EA00008C68E343984267
:1036C00001D10120E1E70020DFE700002DE9F74FFD
:1036D0008CB004468946B9F828000890142004905C
:1036E0004FF0000860680B900B9EF08800F0E7FD3B
:1036F00003900398C0F30C000790039800F4005067
:1037000006902089143880B209900899A1F114001C
:10371000C11700EB5171C1F3CF010A91A4E00898E1
:1037200014380999884201DB012000E0002005904F
:103730000798C0F30C00069908430390059818B940
:10374000039840F400500390059808B1099801E0EF
:103750000A98C0001FFA80FB00221421022001F009
:10376000DFF8054625B94FF0FF300FB0BDE8F08F08
:1037700000BF00BF142268680B99FCF733FD6E6828
:10378000616804980844606061890498081A60813F
:10379000CDF808B03FE061890298814201DD0298CE
:1037A00000E060898046B8F1000F01D1246832E062
:1037B00000F062F807462FB9284601F089FA4FF069
:1037C000FF30D2E760683B4602224146CDE900085F
:1037D000032001F06EF98246BAF1000F08D1384695
:1037E00000F04FF8284601F073FA4FF0FF30BCE7C5
:1037F000204601F02BFB7C611E483861514628466B
:1038000001F08DF90298A0EB080080B202900298B6
:1038100000B1246800BF02980028BCD1CDF8108008
:10382000039800F040FDF0800BF1140188B200F025
:103830003AFD70800020708114213046FFF7E9FEC8
:103840007081D9F81430294648460E9A9847284680
:1038500001F03EFA0998A0EB0B0080B209900A999A
:103860000798084480B20790099800287FF457AF62
:1038700000BF7AE72D40000810B5062000F06CFF6D
:1038800010BD10B5044600BF00BF2146062000F061
:1038900021FF10BD2DE9F05F06460F464FF0010AEB
:1038A000756828780421B1EB201F05D0304601F05F
:1038B0000FFA0020BDE8F09F287800F00F084FF6BF
:1038C000FF7000EA8808688800F0F9FC814670897A
:1038D000404502DB3089484504DA304601F0F8F90A
:1038E0000020E7E74946304601F074FA2869534959
:1038F0000860E868524908604FF0010B3C4600BF81
:1039000094F8310010F0010F0FD0201D0DD0606829
:1039100058B14A4800686168884205D0474908683C
:103920002146FFF7ABFE00B10DE0BBF1000F04D064
:103930004FF0000B4348046800E02468BC4200D10B
:103940002468002CDCD100BF64B9687A112809D141
:1039500005EB08004188B1F5884F02D13C464FF095
:10396000000A00BFBAF1000F14D0354890B10068CA
:1039700080B1334908683946FFF780FE28B93048DE
:10398000007800F0F000E02804D1304601F0A0F902
:1039900000208FE724B9304601F09AF9002089E72A
:1039A000E8884FF63F71084207D0304600F0CEF865
:1039B00006460EB900207DE7756823480760234856
:1039C00005603946304601F08BFA58BB687A012809
:1039D0000DD0062806D011280ED13946304603F006
:1039E000BFFE1EE03946304601F0A0FE19E0394620
:1039F0003046FFF71FFD14E0104908683946FFF70D
:103A00003DFE50B90D48007800F0F000E02804D0E9
:103A1000756002213046FFF703FD304601F058F98A
:103A200000BF00BF00200849086008490860044939
:103A300008600249086000BF3CE70000D800002091
:103A4000D400002070000020CC000020D000002016
:103A50002DE9FE4F06460F4615469846DDE90C9ABD
:103A600000BF00BF284600F0B7FA040002D1001FD3
:103A7000BDE8FE8F43462A4639463046CDE9009AD6
:103A8000029400F001F8F3E72DE9F84F05460F46E0
:103A900090469A46DDF828B00C9E00BF00BFB8F1F2
:103AA000000F3BD04FF014091421284601F053F9C0
:103AB00018B16FF00100BDE8F88F6C6800BF00BF5F
:103AC00084F808A00B986072D8F80000206148467E
:103AD0004FEAE97109EB9171C1F3870141F04001AF
:103AE000217084F801B0288900F0DDFB608000209F
:103AF000E0801548008800F0D6FBA08012480088BE
:103B0000401C114908800FB1386810B97068E06036
:103B100001E03868E0600020608103E06C682069A3
:103B20000090E846308D48B12889318D884205DD06
:103B3000424631462846FFF7C9FDBCE742462946C2
:103B4000304673699847B6E7DC0000202DE9F84F4E
:103B5000804600200090D8F80450287800F00F002C
:103B60001421B1EB800F00D0ACE0E88800F0A7FB97
:103B7000C0F30C004FF6FF7101EAC00A688800F03C
:103B80009EFB297801F00F01A0EB81001FFA80FB5A
:103B9000404600F0EBFF06464D48018888190A2888
:103BA0000ADD3146284600F0D9F920B1484800889E
:103BB00030440A2800DD85E04648046812E0606968
:103BC000E968884209D1A0692969884205D1A0899C
:103BD000A988884201D1012000E0002000B103E063
:103BE00000942468002CEAD100BF34B9314628463D
:103BF00000F03AF9044694B964E0E88800F05FFB0D
:103C0000C004C00C0BD1E08900F059FBC004C00C0B
:103C100005D01422294604F10800FCF7E3FA2C48E9
:103C2000008830442A490880A87910F0200F06D176
:103C3000A07F40F00100A0770AEB0B00A083414673
:103C4000204600F049F8D0B3A08B1430A083606800
:103C50004068076860684568142204F10801284636
:103C6000FCF7C0FAA08B00F01EFB68800020E88003
:103C7000688114212846FFF7CCFC6881D4F80480C1
:103C80000CE0D7F804906FF01301384601F063F8A8
:103C90003946404600F043FFD9F80070002FF0D1BC
:103CA0002046009900F0CAF8404600F05FFF08493E
:103CB0000988081A064908804046BDE8F88FFFE7E2
:103CC0000020FAE7404601F003F80020F5E7000085
:103CD000E4000020E00000202DE9FC5F81460E4654
:103CE00000254FF0010BD6F804A0BAF8020000F04E
:103CF000E6FA9AF8001001F00F01A0EB810080B203
:103D00000090BAF8060000F0DAFAC0F30C004FF6A3
:103D1000FF7101EAC000019000BF00BF746800207D
:103D200020600198A080DDE900100844E080D9F807
:103D300004802AE0D8F80470A088B988884210DA94
:103D4000C4F8008055B1A088E988884203DBE08888
:103D5000B988884200DD62E02E6001E0C9F80460A5
:103D600016E0A088B988884200D158E0A088F98878
:103D7000884200DA53E02DB1E888B988884201D042
:103D80004FF0000BD7F800803D46B8F1000FD1D1BD
:103D900000BFB8F1000F0ED14DB100BF00BF2E60C3
:103DA000E888A188884206D04FF0000B03E000BFEE
:103DB00000BFC9F8046099F81E0010F0010F2CD064
:103DC000BBF1000F26D0D9F804004068808810B1FC
:103DD0004FF0000B1EE02546D4F800800BE0D8F829
:103DE0000440E888A188884202D04FF0000B05E02B
:103DF0002546D4F80080B8F1000FF0D100BFBBF128
:103E0000000F07D000BF00BF00BF00BF00BF00BF52
:103E100000BF00BF5846BDE8FC9F0020FBE73046CE
:103E200000F0A4FE04490988081A034908803046B6
:103E300000F04EFF0020EEE7E400002070B50446DD
:103E40000D4608480068A04203D106492068086072
:103E500003E000BF00BF206828602146052000F075
:103E600039FC70BDE000002070B505460E46052007
:103E700000F072FC044664B93146284600F06EF842
:103E8000B04203DB052000F067FC04460CB90020BB
:103E900070BD20212046FCF7BEF90320E0770648DC
:103EA00000682060044804601422294604F10800D8
:103EB000FCF798F92046EBE7E00000202DE9F047F9
:103EC00004468946002600BF00BFB9F1000F01D0AB
:103ED00000BF00BF6068D0F80480B8F80400C0B923
:103EE0006568D8F800006060142204F10801686871
:103EF000FCF778F901212846FFF782FB284600F0FD
:103F000035FE074600BF00BFF01986B2284600F014
:103F1000DFFE656810E0D5F80480AA46D8F80050A6
:103F2000504600F023FE074600BF00BFF01986B2DE
:103F3000504600F0CDFE00BF002DECD14946204692
:103F4000FFF77CFF00BF00BF03480088801B0249C9
:103F500008803046BDE8F087E40000202DE9F05FDE
:103F600005468946002700BF0026B346B2461948D9
:103F700004681DE06069E968884207D1A069296981
:103F8000884203D1A089A988884201D0012000E09D
:103F9000002048B10AF1010A0EB9264604E0E07F8C
:103FA000F17F884200DC2646206800B1A3462468E1
:103FB000002CDFD12EB159463046FFF77FFF8046F7
:103FC00047444F4502DABAF1010FCDDC3846BDE86F
:103FD000F09F0000E000002010B502461148016883
:103FE0000FE091F8310010F0010F09D010688B68D4
:103FF0001840D1E901342340984201D1084610BD50
:1040000009680029EDD10848006830B10648006809
:1040100090F8310010F0010F01D10020EFE70248C5
:104020000068ECE7700000207400002070B50546C1
:104030002C4600BF00BF00BF00BF606910B16069BF
:1040400000F046FE2046FFF71CFC70BD70B504462C
:10405000062084F82A00022084F82B0000212C205E
:1040600001552D2001552E2001552F2001553020BE
:10407000015504F12B010020FCF7D2FC40F2DC508A
:104080002085222084F8310004220C490C48FCF7DA
:104090001BFA04220B490C48FCF7D2F9002507E073
:1040A000074901EB45104FF44001FCF735FA6D1C50
:1040B000042DF5DBFCF700FE70BD0000B01A0220F5
:1040C00060020220E0020220E00102202DE9F04F10
:1040D00087B00024A1460027A3466846FCF7F2FA01
:1040E0009DE8070003AB07C303980690DDF810A016
:1040F000069881B20322104600F012FC8046B8F107
:10410000000F2ED0059E00BF454628E06F894FF076
:10411000000915E040F2F4531A1B0AEB04016B6826
:1041200003EB0900FCF75EF8F668D6F808A040F249
:10413000F450001B3F1A40F2F450001B814400244D
:10414000381940F2F4518842E4D80AEB04016A6855
:1041500002EB09003A46FCF745F83C442D68002D77
:10416000D4D1059E4FF0000B05E04FF000403060C9
:10417000F6680BF1010B0B48006880685845F4D8CD
:1041800000200849096888600748406910F0800FDE
:1041900004D080200449486100208860404607B070
:1041A000BDE8F08F58000020009002402DE9F84F44
:1041B0008B4634480068806800904FF00009002466
:1041C0000026A2462F48D0F8008000BF5D4644E09C
:1041D000D8F8000010F0004F02D06FF0010743E064
:1041E0006E894FF0000A25E040F2F4531A1B6B6809
:1041F00003EB0A01009B1819FBF7F4FFD8F80C80B9
:10420000D8F8000010F0004F02D06FF007072BE045
:10421000D8F80800009040F2F450001B361A40F223
:10422000F450001B824440F2F450001B48441FFA33
:1042300080F90024301940F2F4518842D4D86A68D9
:1042400002EB0A01009A10193246FBF7CBFF344407
:1042500009EB06001FFA80F92D68002DB8D14846F9
:10426000FCF784FC002700BF0748406910F0200FCE
:1042700004D0202004494861002048603846BDE849
:10428000F88F000050000020009002400146080610
:1042900001F47F4240EA022001F47F0240EA12204A
:1042A00040EA1160704701460806000C40EA112000
:1042B000704700B503461846FFF7E8FF00BD00B59C
:1042C00002461046FFF7EFFF00BDF8B505460A4667
:1042D0002B4600200090002103F0010636B1002A91
:1042E00004DD13F8010B8DF80100521E1C4603E09B
:1042F00034F8027B3944921E012AF9DC002A02DDDF
:1043000020788DF80000BDF80000014488B200EB71
:10431000114188B200EB114126B1C8B2C1F30727A1
:1043200047EA002188B2F8BDFCF7EAFFFDF7A4F8E0
:10433000FCF792FEFDF74CFA00F09CFE00F00AFE3E
:10434000FBF7C0FFFCF7EAFEFDF768FA01202749FA
:10435000088000BF254800884FF6FF71884225DBA2
:104360000120234908700020204908802148008846
:1043700088B120486438008868B1002407E01E48EE
:1043800030F8142021461DA0FDF7DAFA641C4FF620
:10439000FF708442F3DB08E0FBF7D2FF08B1FCF7C3
:1043A0004DFF18480068FCF7FDFEF5E70F48008850
:1043B0000F4991F9001008440C4908800320FDF7CB
:1043C000DEFA01211048FCF740FE0320FDF7D7FA82
:1043D000064801880D48FDF77DF80320FDF7CFFA68
:1043E00001210948FCF733FEB4E700000800002073
:1043F0000000002022000220EC00002025642C2573
:10440000640A0D0004000020002002400038004033
:1044100070B5054605B970BD00BF00BF00BF00BF45
:104420000C480068854203D30B480068854200D3DE
:10443000F1E7A5F1080400BF00BF00202071074884
:104440000068844201D205480460204600F004FD63
:1044500000BFE0E764000020680000206C0000203E
:1044600000BF00BF114921F00301114A116011463C
:1044700008684FF4205101800021418001711146EC
:10448000096801F520510B4A116001211268117170
:104490004FF42051074A12681180064A1268518071
:1044A00003490968044A116070470000C1320220C4
:1044B00064000020680000206C000020F0B5024677
:1044C0000AB90020F0BDD01C20F0030082B20C2AF3
:1044D00000DA0C22B2F5205F01DD0020F2E72F4860
:1044E00000882F4E3688801B83B250E02C4800682D
:1044F000C1180879002847D10E8803F10800301A46
:10450000904241D30E8803F10800361A02F11400DC
:10451000864218D303F10800104485B22048006891
:104520004419002020710888208063800D800120BC
:1045300008712088B0F5205F07D02088184E3668B3
:104540003044458001E00120087114480068814230
:1045500011D1124E306803E00688114F3F68F01900
:1045600006791EB10F4E3668B042F5D10B4E306061
:1045700000BF00BF00BF00BF00BF00BF00BF00BF43
:1045800000BF01F108009DE705480068C35AC2F565
:1045900020509842AADC002094E700006C00002024
:1045A00064000020680000202DE9F04106460A461C
:1045B000D01C20F0030082B20C2A00DA0C22B2F5E3
:1045C000205F02DD0020BDE8F08100BF00BF3E4853
:1045D0000068864203D33D480068864201D33046D6
:1045E000F1E7A6F1080438480088201A85B220882F
:1045F000401B083887B200BF00BFBA4201DD00206F
:10460000E1E7BA4201D13046DDE72088DFF8B8C0E3
:10461000DCF800C000EB0C01087980BB088805F1CC
:10462000080C94441FFA8CF3DFF8A4C0DCF800C037
:104630008C4508D1DFF890C0DCF800C09C44DFF85E
:104640009080C8F800C0DFF880C0DCF800C00CEB38
:1046500003014FF0000C81F804C008804D802380D6
:10466000B1F800C0BCF5205F08D0B1F800C0DFF899
:104670005880D8F80080C444ACF8023022E0FFE74C
:1046800002F11400B8421DD805F10800104483B2AD
:104690000D480068C1180E480068814201D20C48DC
:1046A000016000200871208808804D8023800888E0
:1046B000B0F5205F06D00888DFF80CC0DCF800C039
:1046C0006044438030467EE764000020680000209C
:1046D0006C00002001B9704700BF00BF0A46044BC0
:1046E00053F820301360024B43F8202000BFF2E75C
:1046F000D45A022010B5002001E0431C98B20928CA
:10470000FBDB114B23F00301002019E000230F4CC9
:1047100044F8203000220CE00C4B53F820300B60A2
:104720000A4B43F820100A4B33F810301944531C3D
:104730009AB2084B33F810309342EDDC431C98B228
:104740000928E3DB10BD0000FB5A0220D45A0220E6
:10475000D47A0008E67A0008024600BF092A01DB85
:104760000020704700BF064850F8221031B1044BBA
:10477000086843F8220000BF00BF00BF0846F0E70A
:10478000D45A02202DE9F04704460D4616461F462E
:10479000DDE909A9DDF8208000BF00BF00206060CE
:1047A000A060E06084F831006062E061C4F82080BD
:1047B0000E48007884F834000C480078401C0B49FF
:1047C0000870C4F810903B4632462946204600F057
:1047D00011F82046D04710B10020BDE8F08704480A
:1047E00000682060024804602046F6E77800002058
:1047F000700000202DE9F04106460F4614461D4684
:104800003946304600F02CF82146304600F067F873
:104810002946304600F01DF8BDE8F08101490860E6
:10482000704700007400002010B5044694F8310071
:1048300010F0010F0CD014F8310F20F0010020709F
:1048400014F8310910F0200F02D02046FEF7AAF923
:1048500010BD09B9002200E00A68C260704700007C
:104860002DE9F04107460C4654B320687968884228
:1048700001D1012000E0002010BB154806680BE0C4
:1048800030687968884206D1D6F80C80304600F04E
:10489000B7FC464600E0F668002EF1D10D480568E9
:1048A0000CE055B1286840B128687968884204D185
:1048B0000CB9002000E020682860ED68002DF0D1E0
:1048C0000CB9002000E020687860BDE8F0810000AD
:1048D000940000209000002000B1C161704709B928
:1048E000002200E00A688260704710B5044694F820
:1048F000310010F0010F12D114F8310F40F0010017
:10490000207014F8310910F0100F08D094F831001D
:1049100010F0200F03D0211D2046FEF711FC10BD22
:104920002DE9F05F83460F469046BBF1000F09D09A
:10493000BBF1010F08D0BBF1020F07D0BBF1030F91
:1049400008D105E036260AE0222608E00E2606E019
:10495000002604E000BF00BF0020BDE8F09F00BFBC
:10496000B8F1000F68D0B8F1010F74D0B8F1020FA0
:1049700072D0B8F1030F70D10820FFF7EDFE0446A6
:104980000CB90020E9E784F80C800020206006F1D3
:1049900010002044C01C20F00300606000BF00BF76
:1049A0002781F01C20F00300C0F5FA70B84201DD49
:1049B000384604E0F01C20F00300C0F5FA70608176
:1049C00000BF00BF00BF00BF0120E081A246608998
:1049D000A7EB00092CE00820FFF7BEFE054625B92D
:1049E000204600F075F90020B7E785F80C8000201C
:1049F00068732860CAF8005000BF00BFA5F808908F
:104A00001FFA89F0B0F5FA7F02DA1FFA89F001E0A7
:104A10004FF4FA70688105F11000686000BF00BFB4
:104A200000BF00BF0120E8816889A9EB0009AA4600
:104A3000B9F1000FCFDC35E006F1130121F00302DC
:104A4000F91C21F00301114488B2FFF737FD044639
:104A500024B9002081E711E011E01FE004F110000B
:104A60003044C01C20F00300606027816781002073
:104A7000206084F80C8000BF00BF13E000BF072057
:104A8000FFF76AFE04460CB9002066E7002060606C
:104A900027816781206084F80C8003E000BF00BF9D
:104AA00000205AE700BF0120E0810020607320460B
:104AB00053E7F0B505460C46DDE9056735B1012D34
:104AC00006D0022D06D0032D08D105E0362109E0DD
:104AD000222107E00E2105E0002103E000BF00BF16
:104AE0000020F0BD00BFC81C20F003002044B842E5
:104AF00001DD0020F5E7002018602EB1C81C20F071
:104B000003003044586001E00020586002205873D0
:104B10001C815C811A730120D8811846E1E710B529
:104B2000024600BF02B101B910BD00BF104604E04B
:104B300003890C892344038100680368002BF7D1A3
:104B400000BF00BF00BF00BF03890C89234403815D
:104B5000016000BFE8E730B505460C46214628460F
:104B6000FFF7DDFF204600F071F930BD014600205F
:104B700002E0421CD0B209680029FAD170472DE941
:104B8000F04105460C460026002700BF25B11CB1A8
:104B900028892189884203DA6FF00D00BDE8F08191
:104BA00000BF00BF6889801B6189C91B884204DB84
:104BB0006089C01B1FFA80F803E06889801B1FFA18
:104BC00080F86268D1196A6890194246FBF70AFBBF
:104BD00006EB080086B207EB080087B200BF00BFF3
:104BE00000BF00BF6089B84201DC002724686889E3
:104BF000B04208D100262D6800BF1DB914B16FF076
:104C00000D00CBE700BF54B160892189884206D1ED
:104C100000BF206810B16FF00500BFE700BF55B1BD
:104C200068892989884206D100BF286810B16FF0D1
:104C30000500B3E700BF002CB4D10020AEE72DE99A
:104C4000F05F8046894616461D464FF0000B00BFB8
:104C5000B8F1000F02D10020BDE8F09F00BF00BFF7
:104C6000B9F1000F01D10020F6E700BF4FF0000AB4
:104C7000B8F1000F02D0B9F1000F01D10020EBE72D
:104C8000444620E035B16089A84203DC6089281AD7
:104C900085B217E06089401B87B2B74200DD374616
:104CA0006268511909EB0A003A46FBF79BFA0BEBD5
:104CB00007001FFA80FB0AEB07001FFA80FAF01BBF
:104CC00086B2002524680EB1002CDBD15846C3E71C
:104CD0002DE9F047044624B900BF00BF0020BDE81D
:104CE000F08700BF00BF002631E000BF00BFE089B1
:104CF000401E1FFA80F8A4F80E80B8F1000F24D1EE
:104D00002768257B607B10F0020F07D0A14600BF0B
:104D100000BF2046D9F81010884712E0032D04D1B7
:104D200021460820FFF7D6FC0BE0012D01D0022D13
:104D300004D121460720FFF7CDFC02E02046FFF713
:104D400067FB701CC6B23C4600E0002400BF002C8C
:104D5000CBD13046C3E770B5024600BF00BF01B1FA
:104D60000AB9002070BD002908DA484284B200BFA9
:104D70005089A04201DA0120F4E700E08CB2137BF5
:104D800055680BB1032B0AD15068401A506002F1EC
:104D900010005668864215D255600120E2E7022BCA
:104DA00001D0012B0AD1002906DA5089A04203DB89
:104DB0005068401A506005E00120D3E700BF00BFF3
:104DC0000120CFE7508908445081108908441081A0
:104DD0000020C7E72DE9F04106460F4600BF00BF9F
:104DE00000BF00BF3089B84201DCBDE8F0813089E6
:104DF000A7EB00083D4634460AE06089281A85B2D0
:104E000000BF00BF208940442081246800BF00BF4C
:104E10006089A842F1DB207B60B96089A84209D093
:104E2000A088001B284481B22046FFF7BDFB044642
:104E300000BF00BF658160892081206810B12068B3
:104E4000FFF746FF0020206000BFCEE710B1C18908
:104E5000491CC1817047000030B500BF00BF00BFD2
:104E600000BF00BF00BF00BF00BF0388194C24680B
:104E70001919884215D00B799BB9174B1B689942B9
:104E80000FD0164B1B688B4201D1144B18600B8856
:104E90000380104B1B88C31A0C880E4D2D682C44C0
:104EA000638043880B4C24681A19824211D013790D
:104EB0007BB90A4B1B68834201D1084B1A600388F7
:104EC0001380044B1B88D31A0488024D2D682C4490
:104ED000638030BD64000020680000206C0000206A
:104EE0002DE9F04705468A460027D5F8048098F852
:104EF00009900026144804681FE0207C48451AD118
:104F000034B1206820B1114920680968884212D163
:104F1000606980B10E4B2A462146D4E905C0E047BE
:104F200048B10025012736B1E068F0600648006806
:104F3000E060054804602646E4680FB9002CDCD127
:104F40003846BDE8F08700007C000020D800002033
:104F5000D400002000B585B000F02AF80020ADF89C
:104F600000004FF48270ADF802004FF40060ADF81D
:104F700004000220ADF806000120ADF80800400250
:104F8000ADF80A000820ADF80C000020ADF80E00C6
:104F90000720ADF8100069460448FCF79DFA01218E
:104FA0000248FCF78BFA05B000BD0000005001403C
:104FB0001CB501210805FCF793F901212020FCF71D
:104FC0005FF901210220FCF75BF900208DF8040055
:104FD00002208DF8050000208DF807004FF40070C6
:104FE000009069462148FBF7C5FF052207212048AC
:104FF000FCF708F8052208211D48FCF703F80522F4
:1050000009211B48FBF7FEFF02208DF804008DF8F4
:10501000050000208DF8060002208DF80700802092
:10502000009069461248FBF7A5FF4FF4007000900E
:1050300069460F48FBF79EFF4FF480700090694669
:105040000B48FBF797FF4020009001208DF80400EB
:1050500000208DF8060002208DF8050000208DF854
:10506000070069460248FBF785FF1CBD00040240AB
:105070000014024000B585B000F030F80121154859
:10508000FBF7E5FF0020ADF800004FF48270ADF8AB
:1050900002004FF40060ADF804000020ADF80600F7
:1050A000ADF808004FF40070ADF80A000820ADF824
:1050B0000C000020ADF80E000720ADF81000694686
:1050C0000548FCF709FA01210348FCF7F7F905B098
:1050D00000BD000000200240003800401CB5012146
:1050E0008803FCF7EDF801210802FCF7C9F8052256
:1050F00001211D48FBF786FF052202211A48FBF714
:1051000081FF052203211848FBF77CFF02208DF860
:1051100004008DF8050000208DF8060002208DF8AF
:105120000700009069461048FBF724FF0820009014
:1051300069460D48FBF71EFF0420009069460A48A7
:10514000FBF718FF012000908DF8040000208DF877
:10515000060002208DF8050000208DF80700694642
:105160000148FBF707FF1CBD002002402DE9FC476A
:1051700004460E4600BF00BF207E0A2808D1214603
:105180001C4801F01BF821460220FFF7A3FA2FE08C
:10519000276DD4F82880D4F88850D4F8109000BF38
:1051A0002146154801F00AF801201449087000BF93
:1051B000206F10B1206F01F082FFE06E10B1E06E41
:1051C00001F07DFF4EB1A08B618B231D2246CDE9FE
:1051D00000104146384601F027FF21460220FFF724
:1051E00079FA00BF1DB16FF009014846A84700BF1A
:1051F000BDE8FC879800002094000020A00000205B
:1052000010B5044601212046FFF7B0FF10BD000095
:1052100070B506460220FFF79FFA04467CB900F0FD
:105220000BFD0220FFF798FA04463CB9304600F027
:10523000D9FC0220FFF790FA044600BF00BF002C03
:1052400044D094212046FAF7E6FF04F11004667278
:1052500041F2D060A4F856004FF00000A4F85800C6
:1052600040F66830A083E0834FF0000004F8070C9C
:105270004FF0FF0004F8060C4FF40670E0844FF086
:105280000600A0864FF0000020864FF006006086E2
:105290004FF0FF30A0844FF00100A08700F082FDA6
:1052A0000546A5642564A563E56409480068606156
:1052B0000848007860740020E0730748E0660748FB
:1052C000E067002084F88200A4F11004204670BD3D
:1052D00088000020A2000020B16E000800DD6D00F3
:1052E00010B50446207E012803D0A07F40F01000B6
:1052F000A0770121204600F001F810BD7CB50446DE
:105300000E46002E5BD0207E042802D0207E072887
:1053100055D1606F20B9A08DA0F5306168394ED0AD
:1053200000BF00BFA08B618BCDE90010231D22467A
:10533000A16A206D01F078FE204600F01FFF00BF3B
:1053400000BF5A480068A04205D158480068C068AC
:105350005649086018E055480068554908600EE055
:1053600053480068C068A04204D15149E068096808
:10537000C86008E04E480068C0684D4908604C4865
:1053800000680028ECD100BF0020E06000BF0120D1
:105390004849087000BF207E04280AD10A202076E0
:1053A00000BF45480068E0604348046002F082F8AE
:1053B00003E021460220FFF78DF900207CBD207E0E
:1053C000082868D2DFE800F004343F4F5767675F72
:1053D0000025608B30B300BF38480068A04205D17B
:1053E00036480068C0683549086018E033480068EE
:1053F0002F4908600EE02E480068C068A04204D122
:105400002B49E0680968C86008E029480068C0685E
:1054100027490860264800680028ECD100BF00201A
:10542000E06000BF21460220FFF754F9002435E078
:1054300000252146224800F0C1FE21460320FFF747
:1054400049F900242AE0002500BF2146174800F052
:10545000B5FE01201749087000BF21460220FFF762
:1054600039F900241AE0204601F05CFE05460DB92A
:105470000520207612E0204601F054FE05460DB9C5
:10548000052020760AE0204601F04CFE05460DB9C5
:105490000920207602E00025002400BF00BF1CB1D7
:1054A00015B9204600F08CFC284687E794000020C0
:1054B0009C000020A0000020980000208C0000200C
:1054C000900000202DE9F05F07460E4691469A466F
:1054D000DDF8288018F0010F01D0042000E0002042
:1054E00018F0020F01D00C2100E000214518042023
:1054F000FFF732F9040005D13046FFF7E9FB002041
:10550000BDE8F09F84F80A80002020606660308942
:10551000401B208114213046FFF71DFC20B120469E
:1055200001F0C0FD0020EBE760684068E060788B28
:10553000FEF7B9FEE1680880B88BFEF7B4FEE168BB
:1055400048805046FEF7A2FEE1684860AB46E91786
:1055500005EB91718910491D49EA013188B2FEF7C6
:10556000A2FEE16888810020E16848822046C7E702
:105570002DE9F04105460E463046FEF72DFD044666
:1055800054B1208D40B1208D283887B2BD4201DA58
:10559000284600E0384605462846BDE8F0812DE95A
:1055A000F84304460D460027B84600BF00BFB4F8D4
:1055B0006800082805DAB4F868004FF6FC718842E4
:1055C00007D9A07F40F08000A0774FF0FF30BDE802
:1055D000F88315F0020F00D0012717F0010F01D05A
:1055E000042000E0002017F0020F01D00C2100E0A1
:1055F000002100EB0108B4F8660010B94FF0FF304D
:10560000E5E7002241461046FFF78AF95FEA000904
:1056100006D1A07F40F08000A0774FF0FF30D6E7A2
:1056200000BF00BF00972A4649462046E36DFFF7BA
:1056300049FF060005D1A07F40F08000A077701ED2
:10564000C5E700BF00BF00BF00BFE06E08B9E66657
:1056500007E0E06E00E0006801680029FBD1066009
:1056600000BF0020A4F86A0015F0020F02D115F067
:10567000010F07D0E06D401CE065B4F86600401EE5
:10568000A4F8660015F0010F03D0A07F40F02000C1
:10569000A0777068FFF76AFA34F8681F0844208022
:1056A00034F8680908B100BF00BF00208FE7000090
:1056B00070B51B480078401C1949087000BF194894
:1056C000046829E094F8210015490978884223D01C
:1056D0001348007884F82100A07F10F0010F0CD04F
:1056E00000BFA07F40F00200A07700BF204600F07E
:1056F00067FBA07F20F00300A077E568606F48B1EA
:10570000002009490870204601F066F80648007834
:1057100000B1D4E72C4600BF002CD3D170BD0000EF
:10572000A200002094000020A00000202DE9FC47EA
:1057300006468A46FE4970680860FD487168006840
:10574000007800F00F0001EB8000FA490860F8488B
:10575000006800780007800E41423046FFF7FBFAF0
:1057600010B93089142800D20FE2F3490868514675
:10577000FDF784FF28B9F048007800F0F000E02839
:1057800000D102E2EB4909688889FEF798FD4FEAEB
:1057900020394FEA890041423046FFF7DCFA00B178
:1057A000F3E1E44909680888FEF789FDE1490968E1
:1057B0000880E04909684888FEF781FDDD490968ED
:1057C0004880DC4909684868FEF773FDD9490968D3
:1057D0004860DA490860D74909688868FEF769FDBA
:1057E000D44909688860D6490860D2490968C889DF
:1057F000FEF765FDCF490968C881CE4909688889E7
:10580000FEF75DFD00F03F00CE4908703089097851
:1058100011F0030F01D0012100E000210844CA4922
:1058200008800027C94804682AE000BF00BF00BF05
:1058300000BF00BF00BFA08BBE490968098888422D
:105840001CD1608BBB4909684988884216D1C04980
:1058500060680968884211D1B749206809688842A0
:105860000CD100BF00BF37B1E068F860B7480068EE
:10587000E060B648046000BF00BF03E02746E4686C
:10588000002CD2D100BF002C4DD1B248046820E0DA
:1058900000BF00BFA08BA74909680988884217D1BB
:1058A000608BA44909684988884211D1A849606879
:1058B000096888420CD1A04920680968884207D14C
:1058C000204601F0F9FD3046FFF702FABDE8FC87FB
:1058D000E468002CDCD100279F48056810E0688B45
:1058E000944909684988884208D193492868096819
:1058F000884202D00DB1286800B903E02F46ED6858
:10590000002DECD100BF75B137B1E868F86092485E
:105910000068E86090480560284600F0ABF9304622
:10592000FFF7D6F9D2E7002C75D000208B4908602C
:1059300030890881084646607E480068C8600020BB
:1059400087490860874908707E48007810F0080F82
:1059500003D0707B40F001007073606F58B1204637
:1059600000F03AFF0A3005D0606F20B17648008819
:10597000002800DDB8E07C480460204600F066FCAA
:10598000804618F10A0017D07648007810F0080F0A
:1059900013D000BFD4F8880028B16FF00A01D4F802
:1059A00088202069904700BF2146684800F006FC27
:1059B00021460220FEF78EFE95E06A48007810F03E
:1059C000100F17D0A07F10F0100F0AD100BFD4F82D
:1059D000880028B16FF00B01D4F888202069904727
:1059E00000BF2146594800F0E9FB21460220FEF79E
:1059F00071FE78E04FF00008B4F86400002812DD72
:105A000000BFA06F40B1B4F864202146A36F2069A5
:105A10009847804602E077E04FF0000800BF18F199
:105A20000A0000D160E04E48006868B300BF00BFC4
:105A3000A07F10F0100F07D049480068FFF748F921
:105A40002046FFF7DDFB4FE000BFE06F48B10023C9
:105A50004349D4F87CC020690A682146E047804663
:105A600007E000233E4821460268184601F020FA6C
:105A7000804600BF18F10A0000D135E0B8F1000FF0
:105A800002D03748006860673648007810F0200F71
:105A900023D0606F30B1606F407B40F02000616FB9
:105AA00048731AE0A08DA0F53061683902D0A08D4E
:105AB000401CA08500BFE06F40B100231A4621467C
:105AC000D4F87CC02069E047804601E04FF0000830
:105AD00000BF18F10A0000D106E00020224908604A
