:020000040800F2
:10000000880600202905000831050008330500088E
:100010003505000837050008390500080000000014
:100020000000000000000000000000003B05000888
:100030003D050008000000003F05000841050008DC
:100040004305000843050008430500084305000870
:100050004305000843050008430500084305000860
:100060004305000843050008430500084305000850
:100070004305000843050008430500084305000840
:100080004305000843050008430500084305000830
:100090004305000843050008430500084305000820
:1000A0004305000843050008430500084305000810
:1000B0004305000843050008430500084305000800
:1000C00043050008430500084305000843050008F0
:1000D00043050008430500084305000843050008E0
:1000E00043050008430500084305000843050008D0
:1000F00043050008430500084305000843050008C0
:1001000043050008430500084305000843050008AF
:10011000430500084305000843050008430500089F
:10012000430500084305000843050008430500088F
:10013000430500084305000843050008430500087F
:10014000430500084305000843050008430500086F
:10015000430500084305000843050008430500085F
:10016000430500084305000843050008430500084F
:10017000430500084305000843050008430500083F
:10018000430500084305000843050008430500082F
:10019000430500084305000843050008430500081F
:1001A00043050008430500084305000800F002F875
:1001B00000F03CF80AA090E8000C82448344AAF1C5
:1001C0000107DA4501D100F031F8AFF2090EBAE8C3
:1001D0000F0013F0010F18BFFB1A43F0010318477B
:1001E000D00C0000F00C0000103A24BF78C878C191
:1001F000FAD8520724BF30C830C144BF04680C602D
:10020000704700000023002400250026103A28BF74
:1002100078C1FBD8520728BF30C148BF0B60704778
:100220001FB500F040FE1FBD10B510BD00F005FE6B
:100230001146FFF7F5FF00F041F800F023FE03B48C
:10024000FFF7F2FF03BC00F027FE00001CB5012100
:10025000082000F0B0FC4FF40050009002208DF810
:10026000050001208DF8040000208DF806008DF8AF
:10027000070069461B4800F0FDF91CBD1CB50121B3
:10028000084600F098FC4FF48070009003208DF831
:10029000050002208DF8040000208DF806008DF87E
:1002A00007006946104800F0E5F900214FF480008E
:1002B00000F065FB012000F0CAFA1CBD00F09EFAB8
:1002C000FFF7DCFFFFF7C2FF00BF00BF4FF4005194
:1002D000044800F04BFA00BF4FF40051014800F011
:1002E00047FAF2E7000C0240000002400CB5002083
:1002F000019000908148006840F480307F49086098
:1003000000BF7E48006800F4003000900198401C57
:100310000190009818B90198B0F5A04FF1D1774835
:10032000006810F4003F02D00120009001E000209E
:100330000090009801285DD170484030006840F07E
:1003400080506E49403108606D48006840F440407C
:100350006B490860694808300068684908310860DE
:100360000846006840F4004008600846006840F411
:10037000A05008606348091F0860081F006840F02B
:100380008070091F086000BF5C48006810F0007FA3
:10039000FAD05B48006840F480305949086000BFDB
:1003A0005748406810F4803FFAD05548006840F440
:1003B00000305349086000BF5148406810F4003FC6
:1003C000FAD040F20570504908604C480830006887
:1003D00020F003004949083108600846006840F0F1
:1003E0000200086000BF45480830006800F00C00BB
:1003F0000828F8D10CBD10B54448006840F47000DE
:10040000424908603D48006840F001003B490860EF
:1004100000203A4908310860384800683C490840E3
:10042000364908603B48091D0860081F006820F431
:100430008020091F0860002030490C310860FFF758
:1004400055FF4FF0006031498039086010BD70B52C
:1004500000200022022300240221284D08352D68A7
:1004600005F00C0020B1042806D0082834D107E09C
:10047000294D2A4E356033E0294D284E35602FE056
:100480001E4D2D1D2D68C5F380541C4D2D1D2D684E
:1004900005F03F0154B1224DB5FBF1F5174E361D65
:1004A0003668C6F3881605FB06F209E01A4DB5FB5F
:1004B000F1F5124E361D3668C6F3881605FB06F2B6
:1004C0000E4D2D1D2D68C5F301456D1C6B00B2FB53
:1004D000F3F5124E356003E00F4D104E356000BF4E
:1004E00000BF064D08352D68C5F303150D4E705D30
:1004F0000A4D2D68C540094E356070BD0038024078
:1005000000700040195A4007003C024088ED00E0AE
:10051000FFFFF6FE103000240024F400000000204D
:1005200040787D01040000200948804709480047C1
:10053000FEE7FEE7FEE7FEE7FEE7FEE7FEE7FEE793
:10054000FEE7FEE704480549054A064B70470000F0
:10055000F7030008AD01000888000020880600208D
:10056000880200208802002010B504469848844282
:1005700008D10121084600F087FB0021012000F08E
:1005800083FB76E09348844208D10121022000F0E9
:100590007BFB0021022000F077FB6AE08E4884425A
:1005A00008D10121042000F06FFB0021042000F09D
:1005B0006BFB5EE08948844208D10121082000F0ED
:1005C00063FB0021082000F05FFB52E08448844276
:1005D00008D10121102000F057FB0021102000F06D
:1005E00053FB46E07F48844208D10121202000F0DF
:1005F0004BFB0021202000F047FB3AE07A48844280
:1006000008D10121402000F03FFB0021402000F0F4
:100610003BFB2EE07548844208D10121802000F088
:1006200033FB0021802000F02FFB22E07048844241
:1006300008D10121801500F027FB0021A01500F052
:1006400023FB16E06B48844208D10121401500F0DD
:100650001BFB0021601500F017FB0AE0664884428E
:1006600007D10121001500F00FFB0021201500F03B
:100670000BFB10BDF0B50A4600210023002400BF8B
:100680003DE0012505FA01F3156805EA03049C42E3
:1006900034D105684F000326BE40B5430560157987
:1006A0004E00B5400668354305601579012D02D02E
:1006B0001579022D16D185684F000326BE40B5433B
:1006C000856055794E00B54086683543856045683C
:1006D00001268E40B5434560456896798E40B6B296
:1006E00035434560C5684F000326BE40B543C5602D
:1006F000D5794E00B540C6683543C560491C102900
:10070000BFD3F0BD4FF6FF7101600021017141714F
:100710008171C171704708B54FF480320092009A20
:100720000A430092009AC261C161009AC261C26923
:100730000092C269009208BD0246002013690B4274
:1007400001D0012000E0002070470146086980B216
:1007500070470246002053690B4201D0012000E09F
:10076000002070470146486980B270470183704796
:10077000418370470AB1018300E0418370474161C2
:10078000704742694A4042617047F0B50023002437
:100790004D07ED0E02FA05F3CE1000F1200555F8D5
:1007A00026504E07F70E0F26BE40B543CF1000F17E
:1007B000200646F82750CE1000F1200555F82650A7
:1007C00045EA0304CE1000F1200545F82640F0BDAF
:1007D000000002400004024000080240000C0240F9
:1007E000001002400014024000180240001C0240A9
:1007F000002002400024024000280240F648006821
:1008000040F00100F44908600020F3490831086015
:10081000F1480068F1490840EF490860F048091DB7
:100820000860F048EC4984310860ED481038091D33
:100830000860E948006820F48020E749086000204B
:10084000E5490C310860E4498C31086070470021AB
:10085000E14A921C117011460870704710B50146AC
:100860000022002300204A11012A02D1DA4C236819
:1008700008E0022A03D1D84C7034236802E0D64C39
:100880007434236801F01F02012494401C4201D0FB
:10089000012000E0002010BD38B5002000900024A9
:1008A000002500BF3120FFF7D9FF05460098401C06
:1008B00000900098B0F5A04F01D0002DF2D031206B
:1008C000FFF7CCFF08B1012400E00024204638BD2A
:1008D00001460020C04A106820F0F80040EAC1003C
:1008E00010607047C049086070470021BA4A7032F2
:1008F00011701170012802D004280AD104E00121EE
:10090000B54A7032117005E00521B34A703211709A
:1009100000E000BF00BF7047B4490860704770B581
:10092000049C41EA82150126C6EB530645EA0645BA
:10093000054345EA0465A84E361D356070BDAA49D9
:100940000866704710B5830143EA016343EA027306
:10095000A14C8434236010BDA3498866704710B54C
:10096000830143EA016343EA02739B4C88342360AA
:1009700010BD9D49086770479B49C864704702468F
:100980000020954B0833186820F0EC6042EA010320
:100990001843914B083318607047024600208E4B75
:1009A0000833186820F0784042EA010318438A4B64
:1009B00008331860704701460020874A08321068E3
:1009C00020F0030008431060704783480830006837
:1009D00000F00C007047014600207F4A0832106882
:1009E00020F0F000084310607047014600207A4A6A
:1009F0000832106820F4E050084310607047014648
:100A00000020754A0832106820F4604040EAC100B6
:100A100010607047F0B50021002200240225002656
:100A200002236D4F08373F6807F00C0121B10429FC
:100A300005D0082937D105E06D4F076036E06D4FCE
:100A4000076033E0644F3F1D3F68C7F38056624F35
:100A50003F1D3F6807F03F036EB1664FB7FBF3F7EA
:100A6000DFF874C10CF1040CDCF800C0CCF3881C76
:100A700007FB0CF40CE05E4FB7FBF3F7DFF858C14F
:100A80000CF1040CDCF800C0CCF3881C07FB0CF460
:100A9000514F3F1D3F68C7F301477F1C7D00B4FBEA
:100AA000F5F7076002E0524F076000BF00BF4A4FF2
:100AB00008373F6807F0F00109094F4F7A5C076873
:100AC000D7404760444F08373F6807F4E051890A30
:100AD000494F7A5C4768D74087603F4F08373F6887
:100AE00007F46041490B444F7A5C4768D740C760C0
:100AF000F0BD002100F44072B2F5407F0AD1364AC1
:100B00000832116821F4F8113C4A02401143324A7C
:100B100008321160304A70321268C0F30B031A4376
:100B20002D4B70331A607047304944390860704764
:100B30002E494039086070473149086070470146C6
:100B40000020254A8C32106820F01F004A1E1043F6
:100B5000214A8C3210607047014600201E4A8C32B8
:100B6000106820F4F8504A1E40EA02201A4A8C32DB
:100B70001060704701460020174A8C32106820F43C
:100B8000401008431060704701460020124A8C3222
:100B9000106820F4400008431060704701460020B0
:100BA0000D4A8C32106820F44030084310607047C2
:100BB00014490860704739B1074A3032126802435D
:100BC000054B30331A6006E0034A30321268824324
:100BD000014B30331A60704700380240FFFFF6EADD
:100BE000103000240030002000004742800E4742B1
:100BF0000024F40040787D0114000020FFFCFF0F6A
:100C00005C014742E011474229B1894A1268024318
:100C1000874B1A6004E0864A12688243844B1A604C
:100C2000704739B1824A121D12680243804B1B1D66
:100C30001A6006E07E4A121D126882437C4B1B1D1F
:100C40001A60704739B17A4A0C3212680243784B05
:100C50000C331A6006E0764A0C3212688243744BF9
:100C60000C331A60704739B1714A1032126802436E
:100C70006F4B10331A6006E06D4A103212688243DF
:100C80006B4B10331A60704739B1694A243A1268C5
:100C90000243674B243B1A6006E0654A243A126817
:100CA0008243634B243B1A60704739B1604A203A53
:100CB000126802435E4B203B1A6006E05C4A203A11
:100CC000126882435A4B203B1A60704739B1584A28
:100CD0001C3A12680243564B1C3B1A6006E0544A09
:100CE0001C3A12688243524B1C3B1A60704739B160
:100CF0004F4A143A126802434D4B143B1A6006E007
:100D00004B4A143A12688243494B143B1A607047AD
:100D100039B1474A103A12680243454B103B1A60FA
:100D200006E0434A103A12688243414B103B1A6076
:100D3000704739B13E4A1C32126802433C4B1C33A7
:100D40001A6006E03A4A1C3212688243384B1C3360
:100D50001A60704739B1364A203212680243344B68
:100D600020331A6006E0324A203212688243304B48
:100D700020331A60704739B12D4A24321268024379
:100D80002B4B24331A6006E0294A2432126882432E
:100D9000274B24331A60704739B1254A2C32126828
:100DA0000243234B2C331A6006E0214A2C3212688E
:100DB00082431F4B2C331A60704739B11C4A3032C2
:100DC000126802431A4B30331A6006E0184A303278
:100DD00012688243164B30331A60704739B1144A97
:100DE000273A12780243124B273B1A7006E0104A4A
:100DF000273A127882430E4B273B1A7070470C48F3
:100E00004030006840F08070094940310860704708
:100E100001460020064A283A12680A4201D0012001
:100E200000E0002070470249263908707047000032
:100E300034380240704770477047754600F028F814
:100E4000AE4605006946534620F00700854618B0B7
:100E500020B5FFF777FBBDE820404FF000064FF0CC
:100E600000074FF000084FF0000B21F00701AC46DF
:100E7000ACE8C009ACE8C009ACE8C009ACE8C009FE
:100E80008D4670470446AFF300802046FFF7D7F940
:100E9000004870472400002001491820ABBEFEE73F
:100EA0002600020070474FF04070E1EE100A7047D4
:100EB000D00E00080000002024000000E801000817
:100EC000F40E00082400002064060000040200085C
:100ED0000095BA0A000000000000000001020304AF
:100EE00006070809000000000102030401020304D0
:040EF00006070809E0
:04000005080001AD41
:00000001FF
