:020000040800F2
:10000000780600208D040008950400089704000875
:10001000990400089B0400089D04000800000000EB
:100020000000000000000000000000009F04000825
:10003000A104000800000000A3040008A5040008B3
:10004000A7040008A7040008A7040008A7040008E4
:10005000A7040008A7040008A7040008A7040008D4
:10006000A7040008A7040008A7040008A7040008C4
:10007000A7040008A7040008A7040008A7040008B4
:10008000A7040008A7040008A7040008A7040008A4
:10009000A7040008A7040008A7040008A704000894
:1000A000A7040008A7040008A7040008A704000884
:1000B000A7040008A7040008A7040008A704000874
:1000C000A7040008A7040008A7040008A704000864
:1000D000A7040008A7040008A7040008A704000854
:1000E000A7040008A7040008A7040008A704000844
:1000F000A7040008A7040008A7040008A704000834
:10010000A7040008A7040008A7040008A704000823
:10011000A7040008A7040008A7040008A704000813
:10012000A7040008A7040008A7040008A704000803
:10013000A7040008A7040008A7040008A7040008F3
:10014000A7040008A7040008A7040008A7040008E3
:10015000A7040008A7040008A7040008A7040008D3
:10016000A7040008A7040008A7040008A7040008C3
:10017000A7040008A7040008A7040008A7040008B3
:10018000A7040008A7040008A7040008A7040008A3
:10019000A7040008A7040008A7040008A704000893
:1001A000A7040008A7040008A704000800F002F84C
:1001B00000F03CF80AA090E8000C82448344AAF1C5
:1001C0000107DA4501D100F031F8AFF2090EBAE8C3
:1001D0000F0013F0010F18BFFB1A43F0010318477B
:1001E0006803000088030000103A24BF78C878C173
:1001F000FAD8520724BF30C830C144BF04680C602D
:10020000704700000023002400250026103A28BF74
:1002100078C1FBD8520728BF30C148BF0B60704778
:100220001FB500F08CF91FBD10B510BD00F051F9DD
:100230001146FFF7F5FF00F008F800F06FF903B47E
:10024000FFF7F2FF03BC00F073F900BFFEE7000008
:100250000CB50020019000908148006840F4803087
:100260007F49086000BF7E48006800F400300090BD
:100270000198401C0190009818B90198B0F5A04F62
:10028000F1D17748006810F4003F02D001200090BF
:1002900001E000200090009801285DD170484030B6
:1002A000006840F080506E49403108606D48006839
:1002B00040F440406B49086069480830006868496C
:1002C000083108600846006840F4004008600846AD
:1002D000006840F4A05008606348091F0860081FC8
:1002E000006840F08070091F086000BF5C4800682B
:1002F00010F0007FFAD05B48006840F48030594924
:10030000086000BF5748406810F4803FFAD0554855
:10031000006840F400305349086000BF514840680D
:1003200010F4003FFAD040F20570504908604C4884
:100330000830006820F00300494908310860084689
:10034000006840F00200086000BF454808300068BF
:1003500000F00C000828F8D10CBD10B54448006826
:1003600040F47000424908603D48006840F00100D8
:100370003B49086000203A49083108603848006865
:100380003C490840364908603B48091D0860081F81
:10039000006820F48020091F0860002030490C31DB
:1003A0000860FFF755FF4FF0006031498039086061
:1003B00010BD70B500200022022300240221284D28
:1003C00008352D6805F00C0020B1042806D0082857
:1003D00034D107E0294D2A4E356033E0294D284EAF
:1003E00035602FE01E4D2D1D2D68C5F380541C4D2A
:1003F0002D1D2D6805F03F0154B1224DB5FBF1F5DF
:10040000174E361D3668C6F3881605FB06F209E05E
:100410001A4DB5FBF1F5124E361D3668C6F3881637
:1004200005FB06F20E4D2D1D2D68C5F301456D1C13
:100430006B00B2FBF3F5124E356003E00F4D104E2A
:10044000356000BF00BF064D08352D68C5F30315A4
:100450000D4E705D0A4D2D68C540094E356070BD6A
:100460000038024000700040195A4007003C02402A
:1004700088ED00E0FFFFF6FE103000240024F400B9
:100480000000002040787D010400002009488047DA
:1004900009480047FEE7FEE7FEE7FEE7FEE7FEE766
:1004A000FEE7FEE7FEE7FEE704480549054A064B7E
:1004B000704700005B030008AD01000878000020D1
:1004C00078060020780200207802002070477047EC
:1004D0007047754600F028F8AE4605006946534659
:1004E00020F00700854618B020B5FFF7DDFFBDE816
:1004F00020404FF000064FF000074FF000084FF08B
:10050000000B21F00701AC46ACE8C009ACE8C0091B
:10051000ACE8C009ACE8C0098D4670470446AFF3AB
:1005200000802046FFF78BFE004870471400002033
:1005300001491820ABBEFEE72600020070474FF0CD
:100540004070E1EE100A70476805000800000020C6
:1005500014000000E80100087C05000814000020D9
:1005600064060000040200080095BA0A00000000BA
:0C05700000000000010203040607080957
:04000005080001AD41
:00000001FF
